{
  "_format": "hh-sol-artifact-1",
  "contractName": "ERC1155Mock",
  "sourceName": "contracts/mocks/ERC1155Mock.sol",
  "abi": [
    {
      "inputs": [
        {
          "internalType": "string",
          "name": "uri",
          "type": "string"
        }
      ],
      "stateMutability": "nonpayable",
      "type": "constructor"
    },
    {
      "anonymous": false,
      "inputs": [
        {
          "indexed": true,
          "internalType": "address",
          "name": "account",
          "type": "address"
        },
        {
          "indexed": true,
          "internalType": "address",
          "name": "operator",
          "type": "address"
        },
        {
          "indexed": false,
          "internalType": "bool",
          "name": "approved",
          "type": "bool"
        }
      ],
      "name": "ApprovalForAll",
      "type": "event"
    },
    {
      "anonymous": false,
      "inputs": [
        {
          "indexed": true,
          "internalType": "address",
          "name": "operator",
          "type": "address"
        },
        {
          "indexed": true,
          "internalType": "address",
          "name": "from",
          "type": "address"
        },
        {
          "indexed": true,
          "internalType": "address",
          "name": "to",
          "type": "address"
        },
        {
          "indexed": false,
          "internalType": "uint256[]",
          "name": "ids",
          "type": "uint256[]"
        },
        {
          "indexed": false,
          "internalType": "uint256[]",
          "name": "values",
          "type": "uint256[]"
        }
      ],
      "name": "TransferBatch",
      "type": "event"
    },
    {
      "anonymous": false,
      "inputs": [
        {
          "indexed": true,
          "internalType": "address",
          "name": "operator",
          "type": "address"
        },
        {
          "indexed": true,
          "internalType": "address",
          "name": "from",
          "type": "address"
        },
        {
          "indexed": true,
          "internalType": "address",
          "name": "to",
          "type": "address"
        },
        {
          "indexed": false,
          "internalType": "uint256",
          "name": "id",
          "type": "uint256"
        },
        {
          "indexed": false,
          "internalType": "uint256",
          "name": "value",
          "type": "uint256"
        }
      ],
      "name": "TransferSingle",
      "type": "event"
    },
    {
      "anonymous": false,
      "inputs": [
        {
          "indexed": false,
          "internalType": "string",
          "name": "value",
          "type": "string"
        },
        {
          "indexed": true,
          "internalType": "uint256",
          "name": "id",
          "type": "uint256"
        }
      ],
      "name": "URI",
      "type": "event"
    },
    {
      "inputs": [
        {
          "internalType": "address",
          "name": "account",
          "type": "address"
        },
        {
          "internalType": "uint256",
          "name": "id",
          "type": "uint256"
        }
      ],
      "name": "balanceOf",
      "outputs": [
        {
          "internalType": "uint256",
          "name": "",
          "type": "uint256"
        }
      ],
      "stateMutability": "view",
      "type": "function"
    },
    {
      "inputs": [
        {
          "internalType": "address[]",
          "name": "accounts",
          "type": "address[]"
        },
        {
          "internalType": "uint256[]",
          "name": "ids",
          "type": "uint256[]"
        }
      ],
      "name": "balanceOfBatch",
      "outputs": [
        {
          "internalType": "uint256[]",
          "name": "",
          "type": "uint256[]"
        }
      ],
      "stateMutability": "view",
      "type": "function"
    },
    {
      "inputs": [
        {
          "internalType": "address",
          "name": "owner",
          "type": "address"
        },
        {
          "internalType": "uint256",
          "name": "id",
          "type": "uint256"
        },
        {
          "internalType": "uint256",
          "name": "value",
          "type": "uint256"
        }
      ],
      "name": "burn",
      "outputs": [],
      "stateMutability": "nonpayable",
      "type": "function"
    },
    {
      "inputs": [
        {
          "internalType": "address",
          "name": "owner",
          "type": "address"
        },
        {
          "internalType": "uint256[]",
          "name": "ids",
          "type": "uint256[]"
        },
        {
          "internalType": "uint256[]",
          "name": "values",
          "type": "uint256[]"
        }
      ],
      "name": "burnBatch",
      "outputs": [],
      "stateMutability": "nonpayable",
      "type": "function"
    },
    {
      "inputs": [
        {
          "internalType": "address",
          "name": "account",
          "type": "address"
        },
        {
          "internalType": "address",
          "name": "operator",
          "type": "address"
        }
      ],
      "name": "isApprovedForAll",
      "outputs": [
        {
          "internalType": "bool",
          "name": "",
          "type": "bool"
        }
      ],
      "stateMutability": "view",
      "type": "function"
    },
    {
      "inputs": [
        {
          "internalType": "address",
          "name": "to",
          "type": "address"
        },
        {
          "internalType": "uint256",
          "name": "id",
          "type": "uint256"
        },
        {
          "internalType": "uint256",
          "name": "value",
          "type": "uint256"
        },
        {
          "internalType": "bytes",
          "name": "data",
          "type": "bytes"
        }
      ],
      "name": "mint",
      "outputs": [],
      "stateMutability": "nonpayable",
      "type": "function"
    },
    {
      "inputs": [
        {
          "internalType": "address",
          "name": "to",
          "type": "address"
        },
        {
          "internalType": "uint256[]",
          "name": "ids",
          "type": "uint256[]"
        },
        {
          "internalType": "uint256[]",
          "name": "values",
          "type": "uint256[]"
        },
        {
          "internalType": "bytes",
          "name": "data",
          "type": "bytes"
        }
      ],
      "name": "mintBatch",
      "outputs": [],
      "stateMutability": "nonpayable",
      "type": "function"
    },
    {
      "inputs": [
        {
          "internalType": "address",
          "name": "from",
          "type": "address"
        },
        {
          "internalType": "address",
          "name": "to",
          "type": "address"
        },
        {
          "internalType": "uint256[]",
          "name": "ids",
          "type": "uint256[]"
        },
        {
          "internalType": "uint256[]",
          "name": "amounts",
          "type": "uint256[]"
        },
        {
          "internalType": "bytes",
          "name": "data",
          "type": "bytes"
        }
      ],
      "name": "safeBatchTransferFrom",
      "outputs": [],
      "stateMutability": "nonpayable",
      "type": "function"
    },
    {
      "inputs": [
        {
          "internalType": "address",
          "name": "from",
          "type": "address"
        },
        {
          "internalType": "address",
          "name": "to",
          "type": "address"
        },
        {
          "internalType": "uint256",
          "name": "id",
          "type": "uint256"
        },
        {
          "internalType": "uint256",
          "name": "amount",
          "type": "uint256"
        },
        {
          "internalType": "bytes",
          "name": "data",
          "type": "bytes"
        }
      ],
      "name": "safeTransferFrom",
      "outputs": [],
      "stateMutability": "nonpayable",
      "type": "function"
    },
    {
      "inputs": [
        {
          "internalType": "address",
          "name": "operator",
          "type": "address"
        },
        {
          "internalType": "bool",
          "name": "approved",
          "type": "bool"
        }
      ],
      "name": "setApprovalForAll",
      "outputs": [],
      "stateMutability": "nonpayable",
      "type": "function"
    },
    {
      "inputs": [
        {
          "internalType": "string",
          "name": "newuri",
          "type": "string"
        }
      ],
      "name": "setURI",
      "outputs": [],
      "stateMutability": "nonpayable",
      "type": "function"
    },
    {
      "inputs": [
        {
          "internalType": "bytes4",
          "name": "interfaceId",
          "type": "bytes4"
        }
      ],
      "name": "supportsInterface",
      "outputs": [
        {
          "internalType": "bool",
          "name": "",
          "type": "bool"
        }
      ],
      "stateMutability": "view",
      "type": "function"
    },
    {
      "inputs": [
        {
          "internalType": "uint256",
          "name": "",
          "type": "uint256"
        }
      ],
      "name": "uri",
      "outputs": [
        {
          "internalType": "string",
          "name": "",
          "type": "string"
        }
      ],
      "stateMutability": "view",
      "type": "function"
    }
  ],
  "bytecode": "0x60806040523480156200001157600080fd5b506040516200206238038062002062833981016040819052620000349162000107565b80620000408162000048565b505062000230565b80516200005d90600290602084019062000061565b5050565b8280546200006f90620001dd565b90600052602060002090601f016020900481019282620000935760008555620000de565b82601f10620000ae57805160ff1916838001178555620000de565b82800160010185558215620000de579182015b82811115620000de578251825591602001919060010190620000c1565b50620000ec929150620000f0565b5090565b5b80821115620000ec5760008155600101620000f1565b600060208083850312156200011a578182fd5b82516001600160401b038082111562000131578384fd5b818501915085601f83011262000145578384fd5b8151818111156200015a576200015a6200021a565b604051601f8201601f19908116603f011681019083821181831017156200018557620001856200021a565b8160405282815288868487010111156200019d578687fd5b8693505b82841015620001c05784840186015181850187015292850192620001a1565b82841115620001d157868684830101525b98975050505050505050565b600181811c90821680620001f257607f821691505b602082108114156200021457634e487b7160e01b600052602260045260246000fd5b50919050565b634e487b7160e01b600052604160045260246000fd5b611e2280620002406000396000f3fe608060405234801561001057600080fd5b50600436106100ce5760003560e01c80634e1273f41161008c578063a22cb46511610066578063a22cb465146101bd578063e985e9c5146101d0578063f242432a1461020c578063f5298aca1461021f576100ce565b80634e1273f4146101775780636b20c45414610197578063731133e9146101aa576100ce565b8062fdd58e146100d357806301ffc9a7146100f957806302fe53051461011c5780630e89341c146101315780631f7fdffa146101515780632eb2c2d614610164575b600080fd5b6100e66100e13660046116b1565b610232565b6040519081526020015b60405180910390f35b61010c61010736600461182a565b6102c9565b60405190151581526020016100f0565b61012f61012a366004611862565b61031d565b005b61014461013f3660046118b0565b610329565b6040516100f09190611a31565b61012f61015f3660046115e2565b6103bd565b61012f610172366004611468565b6103cf565b61018a61018536600461175f565b610672565b6040516100f091906119f0565b61012f6101a5366004611571565b6107d4565b61012f6101b836600461170c565b6107e4565b61012f6101cb366004611677565b6107f0565b61010c6101de366004611436565b6001600160a01b03918216600090815260016020908152604080832093909416825291909152205460ff1690565b61012f61021a36600461150e565b610904565b61012f61022d3660046116da565b610ad1565b60006001600160a01b0383166102a35760405162461bcd60e51b815260206004820152602b60248201527f455243313135353a2062616c616e636520717565727920666f7220746865207a60448201526a65726f206164647265737360a81b60648201526084015b60405180910390fd5b506000908152602081815260408083206001600160a01b03949094168352929052205490565b60006001600160e01b03198216636cdb3d1360e11b14806102fa57506001600160e01b031982166303a24d0760e21b145b8061031557506301ffc9a760e01b6001600160e01b03198316145b90505b919050565b61032681610adc565b50565b60606002805461033890611c7e565b80601f016020809104026020016040519081016040528092919081815260200182805461036490611c7e565b80156103b15780601f10610386576101008083540402835291602001916103b1565b820191906000526020600020905b81548152906001019060200180831161039457829003601f168201915b50505050509050919050565b6103c984848484610af3565b50505050565b81518351146103f05760405162461bcd60e51b815260040161029a90611ba2565b6001600160a01b0384166104165760405162461bcd60e51b815260040161029a90611ad0565b61041e610c65565b6001600160a01b0316856001600160a01b031614806104445750610444856101de610c65565b6104ab5760405162461bcd60e51b815260206004820152603260248201527f455243313135353a207472616e736665722063616c6c6572206973206e6f74206044820152711bdddb995c881b9bdc88185c1c1c9bdd995960721b606482015260840161029a565b60006104b5610c65565b905060005b84518110156106045760008582815181106104e557634e487b7160e01b600052603260045260246000fd5b60200260200101519050600085838151811061051157634e487b7160e01b600052603260045260246000fd5b602090810291909101810151600084815280835260408082206001600160a01b038e1683529093529190912054909150818110156105615760405162461bcd60e51b815260040161029a90611b58565b61056b8282611c67565b60008085815260200190815260200160002060008c6001600160a01b03166001600160a01b03168152602001908152602001600020819055508160008085815260200190815260200160002060008b6001600160a01b03166001600160a01b0316815260200190815260200160002060008282546105e99190611c4f565b92505081905550505050806105fd90611ce6565b90506104ba565b50846001600160a01b0316866001600160a01b0316826001600160a01b03167f4a39dc06d4c0dbc64b70af90fd698a233a518aa5d07e595d983b8c0526c8f7fb8787604051610654929190611a03565b60405180910390a461066a818787878787610c6a565b505050505050565b606081518351146106d75760405162461bcd60e51b815260206004820152602960248201527f455243313135353a206163636f756e747320616e6420696473206c656e677468604482015268040dad2e6dac2e8c6d60bb1b606482015260840161029a565b6000835167ffffffffffffffff81111561070157634e487b7160e01b600052604160045260246000fd5b60405190808252806020026020018201604052801561072a578160200160208202803683370190505b50905060005b84518110156107cc5761079185828151811061075c57634e487b7160e01b600052603260045260246000fd5b602002602001015185838151811061078457634e487b7160e01b600052603260045260246000fd5b6020026020010151610232565b8282815181106107b157634e487b7160e01b600052603260045260246000fd5b60209081029190910101526107c581611ce6565b9050610730565b509392505050565b6107df838383610dd5565b505050565b6103c984848484610f84565b816001600160a01b0316610802610c65565b6001600160a01b0316141561086b5760405162461bcd60e51b815260206004820152602960248201527f455243313135353a2073657474696e6720617070726f76616c20737461747573604482015268103337b91039b2b63360b91b606482015260840161029a565b8060016000610878610c65565b6001600160a01b03908116825260208083019390935260409182016000908120918716808252919093529120805460ff1916921515929092179091556108bc610c65565b6001600160a01b03167f17307eab39ab6107e8899845ad3d59bd9653f200f220920489ca2b5937696c31836040516108f8911515815260200190565b60405180910390a35050565b6001600160a01b03841661092a5760405162461bcd60e51b815260040161029a90611ad0565b610932610c65565b6001600160a01b0316856001600160a01b031614806109585750610958856101de610c65565b6109b65760405162461bcd60e51b815260206004820152602960248201527f455243313135353a2063616c6c6572206973206e6f74206f776e6572206e6f7260448201526808185c1c1c9bdd995960ba1b606482015260840161029a565b60006109c0610c65565b90506109e18187876109d188611056565b6109da88611056565b5050505050565b6000848152602081815260408083206001600160a01b038a16845290915290205483811015610a225760405162461bcd60e51b815260040161029a90611b58565b610a2c8482611c67565b6000868152602081815260408083206001600160a01b038c81168552925280832093909355881681529081208054869290610a68908490611c4f565b909155505060408051868152602081018690526001600160a01b03808916928a821692918616917fc3d58168c5ae7397731d063d5bbf3d657854427343f4c083240f7aacaa2d0f62910160405180910390a4610ac88288888888886110af565b50505050505050565b6107df838383611179565b8051610aef90600290602084019061128e565b5050565b6001600160a01b038416610b195760405162461bcd60e51b815260040161029a90611bea565b8151835114610b3a5760405162461bcd60e51b815260040161029a90611ba2565b6000610b44610c65565b905060005b8451811015610bfd57838181518110610b7257634e487b7160e01b600052603260045260246000fd5b6020026020010151600080878481518110610b9d57634e487b7160e01b600052603260045260246000fd5b602002602001015181526020019081526020016000206000886001600160a01b03166001600160a01b031681526020019081526020016000206000828254610be59190611c4f565b90915550819050610bf581611ce6565b915050610b49565b50846001600160a01b031660006001600160a01b0316826001600160a01b03167f4a39dc06d4c0dbc64b70af90fd698a233a518aa5d07e595d983b8c0526c8f7fb8787604051610c4e929190611a03565b60405180910390a46109da81600087878787610c6a565b335b90565b6001600160a01b0384163b1561066a5760405163bc197c8160e01b81526001600160a01b0385169063bc197c8190610cae908990899088908890889060040161194d565b602060405180830381600087803b158015610cc857600080fd5b505af1925050508015610cf8575060408051601f3d908101601f19168201909252610cf591810190611846565b60015b610da557610d04611d2d565b806308c379a01415610d3e5750610d19611d44565b80610d245750610d40565b8060405162461bcd60e51b815260040161029a9190611a31565b505b60405162461bcd60e51b815260206004820152603460248201527f455243313135353a207472616e7366657220746f206e6f6e20455243313135356044820152732932b1b2b4bb32b91034b6b83632b6b2b73a32b960611b606482015260840161029a565b6001600160e01b0319811663bc197c8160e01b14610ac85760405162461bcd60e51b815260040161029a90611a44565b6001600160a01b038316610dfb5760405162461bcd60e51b815260040161029a90611b15565b8051825114610e1c5760405162461bcd60e51b815260040161029a90611ba2565b6000610e26610c65565b604080516020810190915260009052905060005b8351811015610f25576000848281518110610e6557634e487b7160e01b600052603260045260246000fd5b602002602001015190506000848381518110610e9157634e487b7160e01b600052603260045260246000fd5b602090810291909101810151600084815280835260408082206001600160a01b038c168352909352919091205490915081811015610ee15760405162461bcd60e51b815260040161029a90611a8c565b610eeb8282611c67565b6000938452602084815260408086206001600160a01b038c1687529091529093209290925550819050610f1d81611ce6565b915050610e3a565b5060006001600160a01b0316846001600160a01b0316826001600160a01b03167f4a39dc06d4c0dbc64b70af90fd698a233a518aa5d07e595d983b8c0526c8f7fb8686604051610f76929190611a03565b60405180910390a450505050565b6001600160a01b038416610faa5760405162461bcd60e51b815260040161029a90611bea565b6000610fb4610c65565b9050610fc6816000876109d188611056565b6000848152602081815260408083206001600160a01b038916845290915281208054859290610ff6908490611c4f565b909155505060408051858152602081018590526001600160a01b0380881692600092918516917fc3d58168c5ae7397731d063d5bbf3d657854427343f4c083240f7aacaa2d0f62910160405180910390a46109da816000878787876110af565b6040805160018082528183019092526060916000919060208083019080368337019050509050828160008151811061109e57634e487b7160e01b600052603260045260246000fd5b602090810291909101015292915050565b6001600160a01b0384163b1561066a5760405163f23a6e6160e01b81526001600160a01b0385169063f23a6e61906110f390899089908890889088906004016119ab565b602060405180830381600087803b15801561110d57600080fd5b505af192505050801561113d575060408051601f3d908101601f1916820190925261113a91810190611846565b60015b61114957610d04611d2d565b6001600160e01b0319811663f23a6e6160e01b14610ac85760405162461bcd60e51b815260040161029a90611a44565b6001600160a01b03831661119f5760405162461bcd60e51b815260040161029a90611b15565b60006111a9610c65565b90506111da818560006111bb87611056565b6111c487611056565b5050604080516020810190915260009052505050565b6000838152602081815260408083206001600160a01b03881684529091529020548281101561121b5760405162461bcd60e51b815260040161029a90611a8c565b6112258382611c67565b6000858152602081815260408083206001600160a01b038a811680865291845282852095909555815189815292830188905292938616917fc3d58168c5ae7397731d063d5bbf3d657854427343f4c083240f7aacaa2d0f62910160405180910390a45050505050565b82805461129a90611c7e565b90600052602060002090601f0160209004810192826112bc5760008555611302565b82601f106112d557805160ff1916838001178555611302565b82800160010185558215611302579182015b828111156113025782518255916020019190600101906112e7565b5061130e929150611312565b5090565b5b8082111561130e5760008155600101611313565b600067ffffffffffffffff83111561134157611341611d17565b604051611358601f8501601f191660200182611cb9565b80915083815284848401111561136d57600080fd5b83836020830137600060208583010152509392505050565b80356001600160a01b038116811461031857600080fd5b600082601f8301126113ac578081fd5b813560206113b982611c2b565b6040516113c68282611cb9565b8381528281019150858301600585901b870184018810156113e5578586fd5b855b85811015611403578135845292840192908401906001016113e7565b5090979650505050505050565b600082601f830112611420578081fd5b61142f83833560208501611327565b9392505050565b60008060408385031215611448578182fd5b61145183611385565b915061145f60208401611385565b90509250929050565b600080600080600060a0868803121561147f578081fd5b61148886611385565b945061149660208701611385565b9350604086013567ffffffffffffffff808211156114b2578283fd5b6114be89838a0161139c565b945060608801359150808211156114d3578283fd5b6114df89838a0161139c565b935060808801359150808211156114f4578283fd5b5061150188828901611410565b9150509295509295909350565b600080600080600060a08688031215611525578081fd5b61152e86611385565b945061153c60208701611385565b93506040860135925060608601359150608086013567ffffffffffffffff811115611565578182fd5b61150188828901611410565b600080600060608486031215611585578283fd5b61158e84611385565b9250602084013567ffffffffffffffff808211156115aa578384fd5b6115b68783880161139c565b935060408601359150808211156115cb578283fd5b506115d88682870161139c565b9150509250925092565b600080600080608085870312156115f7578384fd5b61160085611385565b9350602085013567ffffffffffffffff8082111561161c578485fd5b6116288883890161139c565b9450604087013591508082111561163d578384fd5b6116498883890161139c565b9350606087013591508082111561165e578283fd5b5061166b87828801611410565b91505092959194509250565b60008060408385031215611689578182fd5b61169283611385565b9150602083013580151581146116a6578182fd5b809150509250929050565b600080604083850312156116c3578182fd5b6116cc83611385565b946020939093013593505050565b6000806000606084860312156116ee578081fd5b6116f784611385565b95602085013595506040909401359392505050565b60008060008060808587031215611721578182fd5b61172a85611385565b93506020850135925060408501359150606085013567ffffffffffffffff811115611753578182fd5b61166b87828801611410565b60008060408385031215611771578182fd5b823567ffffffffffffffff80821115611788578384fd5b818501915085601f83011261179b578384fd5b813560206117a882611c2b565b6040516117b58282611cb9565b8381528281019150858301600585901b870184018b10156117d4578889fd5b8896505b848710156117fd576117e981611385565b8352600196909601959183019183016117d8565b5096505086013592505080821115611813578283fd5b506118208582860161139c565b9150509250929050565b60006020828403121561183b578081fd5b813561142f81611dd6565b600060208284031215611857578081fd5b815161142f81611dd6565b600060208284031215611873578081fd5b813567ffffffffffffffff811115611889578182fd5b8201601f81018413611899578182fd5b6118a884823560208401611327565b949350505050565b6000602082840312156118c1578081fd5b5035919050565b6000815180845260208085019450808401835b838110156118f7578151875295820195908201906001016118db565b509495945050505050565b60008151808452815b818110156119275760208185018101518683018201520161190b565b818111156119385782602083870101525b50601f01601f19169290920160200192915050565b6001600160a01b0386811682528516602082015260a060408201819052600090611979908301866118c8565b828103606084015261198b81866118c8565b9050828103608084015261199f8185611902565b98975050505050505050565b6001600160a01b03868116825285166020820152604081018490526060810183905260a0608082018190526000906119e590830184611902565b979650505050505050565b60006020825261142f60208301846118c8565b600060408252611a1660408301856118c8565b8281036020840152611a2881856118c8565b95945050505050565b60006020825261142f6020830184611902565b60208082526028908201527f455243313135353a204552433131353552656365697665722072656a656374656040820152676420746f6b656e7360c01b606082015260800190565b60208082526024908201527f455243313135353a206275726e20616d6f756e7420657863656564732062616c604082015263616e636560e01b606082015260800190565b60208082526025908201527f455243313135353a207472616e7366657220746f20746865207a65726f206164604082015264647265737360d81b606082015260800190565b60208082526023908201527f455243313135353a206275726e2066726f6d20746865207a65726f206164647260408201526265737360e81b606082015260800190565b6020808252602a908201527f455243313135353a20696e73756666696369656e742062616c616e636520666f60408201526939103a3930b739b332b960b11b606082015260800190565b60208082526028908201527f455243313135353a2069647320616e6420616d6f756e7473206c656e677468206040820152670dad2e6dac2e8c6d60c31b606082015260800190565b60208082526021908201527f455243313135353a206d696e7420746f20746865207a65726f206164647265736040820152607360f81b606082015260800190565b600067ffffffffffffffff821115611c4557611c45611d17565b5060051b60200190565b60008219821115611c6257611c62611d01565b500190565b600082821015611c7957611c79611d01565b500390565b600181811c90821680611c9257607f821691505b60208210811415611cb357634e487b7160e01b600052602260045260246000fd5b50919050565b601f8201601f1916810167ffffffffffffffff81118282101715611cdf57611cdf611d17565b6040525050565b6000600019821415611cfa57611cfa611d01565b5060010190565b634e487b7160e01b600052601160045260246000fd5b634e487b7160e01b600052604160045260246000fd5b600060033d1115610c6757600481823e5160e01c90565b600060443d1015611d5457610c67565b6040516003193d81016004833e81513d67ffffffffffffffff8160248401118184111715611d86575050505050610c67565b8285019150815181811115611da057505050505050610c67565b843d8701016020828501011115611dbc57505050505050610c67565b611dcb60208286010187611cb9565b509094505050505090565b6001600160e01b03198116811461032657600080fdfea26469706673582212200e4bff7058984cff42a7dbbca6097a8b9f7a417b762b080ba2eb01eb125d472864736f6c63430008030033",
  "linkReferences": {},
  "deployedLinkReferences": {}
}