{
  "contracts/mocks/DummyImplementation.sol": {
    "DummyImplementation": {
      "abi": [
        {
          "inputs": [],
          "name": "get",
          "outputs": [
            {
              "internalType": "bool",
              "name": "",
              "type": "bool"
            }
          ],
          "stateMutability": "pure",
          "type": "function"
        },
        {
          "inputs": [
            {
              "internalType": "uint256",
              "name": "_value",
              "type": "uint256"
            },
            {
              "internalType": "string",
              "name": "_text",
              "type": "string"
            },
            {
              "internalType": "uint256[]",
              "name": "_values",
              "type": "uint256[]"
            }
          ],
          "name": "initialize",
          "outputs": [],
          "stateMutability": "nonpayable",
          "type": "function"
        },
        {
          "inputs": [],
          "name": "initializeNonPayable",
          "outputs": [],
          "stateMutability": "nonpayable",
          "type": "function"
        },
        {
          "inputs": [
            {
              "internalType": "uint256",
              "name": "_value",
              "type": "uint256"
            }
          ],
          "name": "initializeNonPayableWithValue",
          "outputs": [],
          "stateMutability": "nonpayable",
          "type": "function"
        },
        {
          "inputs": [],
          "name": "initializePayable",
          "outputs": [],
          "stateMutability": "payable",
          "type": "function"
        },
        {
          "inputs": [
            {
              "internalType": "uint256",
              "name": "_value",
              "type": "uint256"
            }
          ],
          "name": "initializePayableWithValue",
          "outputs": [],
          "stateMutability": "payable",
          "type": "function"
        },
        {
          "inputs": [],
          "name": "reverts",
          "outputs": [],
          "stateMutability": "pure",
          "type": "function"
        },
        {
          "inputs": [],
          "name": "text",
          "outputs": [
            {
              "internalType": "string",
              "name": "",
              "type": "string"
            }
          ],
          "stateMutability": "view",
          "type": "function"
        },
        {
          "inputs": [],
          "name": "value",
          "outputs": [
            {
              "internalType": "uint256",
              "name": "",
              "type": "uint256"
            }
          ],
          "stateMutability": "view",
          "type": "function"
        },
        {
          "inputs": [
            {
              "internalType": "uint256",
              "name": "",
              "type": "uint256"
            }
          ],
          "name": "values",
          "outputs": [
            {
              "internalType": "uint256",
              "name": "",
              "type": "uint256"
            }
          ],
          "stateMutability": "view",
          "type": "function"
        },
        {
          "inputs": [],
          "name": "version",
          "outputs": [
            {
              "internalType": "string",
              "name": "",
              "type": "string"
            }
          ],
          "stateMutability": "pure",
          "type": "function"
        }
      ],
      "evm": {
        "bytecode": {
          "linkReferences": {},
          "object": "608060405234801561001057600080fd5b5061063f806100206000396000f3fe60806040526004361061009c5760003560e01c80635e383d21116100645780635e383d21146101495780636d4ce63c14610169578063763e2831146101855780639fba1f9a146101a5578063d31f8b6b146101af578063e79f5bee146101cf5761009c565b80631f1bd692146100a1578063227367d5146100cc5780633bccbbc9146100e55780633fa4f245146100fa57806354fd4d501461011e575b600080fd5b3480156100ad57600080fd5b506100b66101dd565b6040516100c39190610534565b60405180910390f35b3480156100d857600080fd5b506100e3600a600055565b005b3480156100f157600080fd5b506100e361026b565b34801561010657600080fd5b5061011060005481565b6040519081526020016100c3565b34801561012a57600080fd5b50604080518082019091526002815261563160f01b60208201526100b6565b34801561015557600080fd5b50610110610164366004610460565b6102b7565b34801561017557600080fd5b50604051600181526020016100c3565b34801561019157600080fd5b506100e36101a0366004610460565b600055565b6100e36064600055565b3480156101bb57600080fd5b506100e36101ca366004610478565b6102d8565b6100e36101a0366004610460565b600180546101ea906105b8565b80601f0160208091040260200160405190810160405280929190818152602001828054610216906105b8565b80156102635780601f1061023857610100808354040283529160200191610263565b820191906000526020600020905b81548152906001019060200180831161024657829003601f168201915b505050505081565b60405162461bcd60e51b815260206004820152601c60248201527f44756d6d79496d706c656d656e746174696f6e20726576657274656400000000604482015260640160405180910390fd5b600281815481106102c757600080fd5b600091825260209091200154905081565b600083905581516102f090600190602085019061030a565b50805161030490600290602084019061038e565b50505050565b828054610316906105b8565b90600052602060002090601f016020900481019282610338576000855561037e565b82601f1061035157805160ff191683800117855561037e565b8280016001018555821561037e579182015b8281111561037e578251825591602001919060010190610363565b5061038a9291506103c8565b5090565b82805482825590600052602060002090810192821561037e579160200282018281111561037e578251825591602001919060010190610363565b5b8082111561038a57600081556001016103c9565b600082601f8301126103ed578081fd5b8135602067ffffffffffffffff821115610409576104096105f3565b8160051b610418828201610587565b838152828101908684018388018501891015610432578687fd5b8693505b85841015610454578035835260019390930192918401918401610436565b50979650505050505050565b600060208284031215610471578081fd5b5035919050565b60008060006060848603121561048c578182fd5b8335925060208085013567ffffffffffffffff808211156104ab578485fd5b818701915087601f8301126104be578485fd5b8135818111156104d0576104d06105f3565b6104e2601f8201601f19168501610587565b81815289858386010111156104f5578687fd5b8185850186830137868583830101528096505050604087013592508083111561051c578384fd5b505061052a868287016103dd565b9150509250925092565b6000602080835283518082850152825b8181101561056057858101830151858201604001528201610544565b818111156105715783604083870101525b50601f01601f1916929092016040019392505050565b604051601f8201601f1916810167ffffffffffffffff811182821017156105b0576105b06105f3565b604052919050565b600181811c908216806105cc57607f821691505b602082108114156105ed57634e487b7160e01b600052602260045260246000fd5b50919050565b634e487b7160e01b600052604160045260246000fdfea26469706673582212203452be91fe5d0209e601657b193a012f12f88633415dd044d37cfa7e92f2042864736f6c63430008030033",
          "opcodes": "PUSH1 0x80 PUSH1 0x40 MSTORE CALLVALUE DUP1 ISZERO PUSH2 0x10 JUMPI PUSH1 0x0 DUP1 REVERT JUMPDEST POP PUSH2 0x63F DUP1 PUSH2 0x20 PUSH1 0x0 CODECOPY PUSH1 0x0 RETURN INVALID PUSH1 0x80 PUSH1 0x40 MSTORE PUSH1 0x4 CALLDATASIZE LT PUSH2 0x9C JUMPI PUSH1 0x0 CALLDATALOAD PUSH1 0xE0 SHR DUP1 PUSH4 0x5E383D21 GT PUSH2 0x64 JUMPI DUP1 PUSH4 0x5E383D21 EQ PUSH2 0x149 JUMPI DUP1 PUSH4 0x6D4CE63C EQ PUSH2 0x169 JUMPI DUP1 PUSH4 0x763E2831 EQ PUSH2 0x185 JUMPI DUP1 PUSH4 0x9FBA1F9A EQ PUSH2 0x1A5 JUMPI DUP1 PUSH4 0xD31F8B6B EQ PUSH2 0x1AF JUMPI DUP1 PUSH4 0xE79F5BEE EQ PUSH2 0x1CF JUMPI PUSH2 0x9C JUMP JUMPDEST DUP1 PUSH4 0x1F1BD692 EQ PUSH2 0xA1 JUMPI DUP1 PUSH4 0x227367D5 EQ PUSH2 0xCC JUMPI DUP1 PUSH4 0x3BCCBBC9 EQ PUSH2 0xE5 JUMPI DUP1 PUSH4 0x3FA4F245 EQ PUSH2 0xFA JUMPI DUP1 PUSH4 0x54FD4D50 EQ PUSH2 0x11E JUMPI JUMPDEST PUSH1 0x0 DUP1 REVERT JUMPDEST CALLVALUE DUP1 ISZERO PUSH2 0xAD JUMPI PUSH1 0x0 DUP1 REVERT JUMPDEST POP PUSH2 0xB6 PUSH2 0x1DD JUMP JUMPDEST PUSH1 0x40 MLOAD PUSH2 0xC3 SWAP2 SWAP1 PUSH2 0x534 JUMP JUMPDEST PUSH1 0x40 MLOAD DUP1 SWAP2 SUB SWAP1 RETURN JUMPDEST CALLVALUE DUP1 ISZERO PUSH2 0xD8 JUMPI PUSH1 0x0 DUP1 REVERT JUMPDEST POP PUSH2 0xE3 PUSH1 0xA PUSH1 0x0 SSTORE JUMP JUMPDEST STOP JUMPDEST CALLVALUE DUP1 ISZERO PUSH2 0xF1 JUMPI PUSH1 0x0 DUP1 REVERT JUMPDEST POP PUSH2 0xE3 PUSH2 0x26B JUMP JUMPDEST CALLVALUE DUP1 ISZERO PUSH2 0x106 JUMPI PUSH1 0x0 DUP1 REVERT JUMPDEST POP PUSH2 0x110 PUSH1 0x0 SLOAD DUP2 JUMP JUMPDEST PUSH1 0x40 MLOAD SWAP1 DUP2 MSTORE PUSH1 0x20 ADD PUSH2 0xC3 JUMP JUMPDEST CALLVALUE DUP1 ISZERO PUSH2 0x12A JUMPI PUSH1 0x0 DUP1 REVERT JUMPDEST POP PUSH1 0x40 DUP1 MLOAD DUP1 DUP3 ADD SWAP1 SWAP2 MSTORE PUSH1 0x2 DUP2 MSTORE PUSH2 0x5631 PUSH1 0xF0 SHL PUSH1 0x20 DUP3 ADD MSTORE PUSH2 0xB6 JUMP JUMPDEST CALLVALUE DUP1 ISZERO PUSH2 0x155 JUMPI PUSH1 0x0 DUP1 REVERT JUMPDEST POP PUSH2 0x110 PUSH2 0x164 CALLDATASIZE PUSH1 0x4 PUSH2 0x460 JUMP JUMPDEST PUSH2 0x2B7 JUMP JUMPDEST CALLVALUE DUP1 ISZERO PUSH2 0x175 JUMPI PUSH1 0x0 DUP1 REVERT JUMPDEST POP PUSH1 0x40 MLOAD PUSH1 0x1 DUP2 MSTORE PUSH1 0x20 ADD PUSH2 0xC3 JUMP JUMPDEST CALLVALUE DUP1 ISZERO PUSH2 0x191 JUMPI PUSH1 0x0 DUP1 REVERT JUMPDEST POP PUSH2 0xE3 PUSH2 0x1A0 CALLDATASIZE PUSH1 0x4 PUSH2 0x460 JUMP JUMPDEST PUSH1 0x0 SSTORE JUMP JUMPDEST PUSH2 0xE3 PUSH1 0x64 PUSH1 0x0 SSTORE JUMP JUMPDEST CALLVALUE DUP1 ISZERO PUSH2 0x1BB JUMPI PUSH1 0x0 DUP1 REVERT JUMPDEST POP PUSH2 0xE3 PUSH2 0x1CA CALLDATASIZE PUSH1 0x4 PUSH2 0x478 JUMP JUMPDEST PUSH2 0x2D8 JUMP JUMPDEST PUSH2 0xE3 PUSH2 0x1A0 CALLDATASIZE PUSH1 0x4 PUSH2 0x460 JUMP JUMPDEST PUSH1 0x1 DUP1 SLOAD PUSH2 0x1EA SWAP1 PUSH2 0x5B8 JUMP JUMPDEST DUP1 PUSH1 0x1F ADD PUSH1 0x20 DUP1 SWAP2 DIV MUL PUSH1 0x20 ADD PUSH1 0x40 MLOAD SWAP1 DUP2 ADD PUSH1 0x40 MSTORE DUP1 SWAP3 SWAP2 SWAP1 DUP2 DUP2 MSTORE PUSH1 0x20 ADD DUP3 DUP1 SLOAD PUSH2 0x216 SWAP1 PUSH2 0x5B8 JUMP JUMPDEST DUP1 ISZERO PUSH2 0x263 JUMPI DUP1 PUSH1 0x1F LT PUSH2 0x238 JUMPI PUSH2 0x100 DUP1 DUP4 SLOAD DIV MUL DUP4 MSTORE SWAP2 PUSH1 0x20 ADD SWAP2 PUSH2 0x263 JUMP JUMPDEST DUP3 ADD SWAP2 SWAP1 PUSH1 0x0 MSTORE PUSH1 0x20 PUSH1 0x0 KECCAK256 SWAP1 JUMPDEST DUP2 SLOAD DUP2 MSTORE SWAP1 PUSH1 0x1 ADD SWAP1 PUSH1 0x20 ADD DUP1 DUP4 GT PUSH2 0x246 JUMPI DUP3 SWAP1 SUB PUSH1 0x1F AND DUP3 ADD SWAP2 JUMPDEST POP POP POP POP POP DUP2 JUMP JUMPDEST PUSH1 0x40 MLOAD PUSH3 0x461BCD PUSH1 0xE5 SHL DUP2 MSTORE PUSH1 0x20 PUSH1 0x4 DUP3 ADD MSTORE PUSH1 0x1C PUSH1 0x24 DUP3 ADD MSTORE PUSH32 0x44756D6D79496D706C656D656E746174696F6E20726576657274656400000000 PUSH1 0x44 DUP3 ADD MSTORE PUSH1 0x64 ADD PUSH1 0x40 MLOAD DUP1 SWAP2 SUB SWAP1 REVERT JUMPDEST PUSH1 0x2 DUP2 DUP2 SLOAD DUP2 LT PUSH2 0x2C7 JUMPI PUSH1 0x0 DUP1 REVERT JUMPDEST PUSH1 0x0 SWAP2 DUP3 MSTORE PUSH1 0x20 SWAP1 SWAP2 KECCAK256 ADD SLOAD SWAP1 POP DUP2 JUMP JUMPDEST PUSH1 0x0 DUP4 SWAP1 SSTORE DUP2 MLOAD PUSH2 0x2F0 SWAP1 PUSH1 0x1 SWAP1 PUSH1 0x20 DUP6 ADD SWAP1 PUSH2 0x30A JUMP JUMPDEST POP DUP1 MLOAD PUSH2 0x304 SWAP1 PUSH1 0x2 SWAP1 PUSH1 0x20 DUP5 ADD SWAP1 PUSH2 0x38E JUMP JUMPDEST POP POP POP POP JUMP JUMPDEST DUP3 DUP1 SLOAD PUSH2 0x316 SWAP1 PUSH2 0x5B8 JUMP JUMPDEST SWAP1 PUSH1 0x0 MSTORE PUSH1 0x20 PUSH1 0x0 KECCAK256 SWAP1 PUSH1 0x1F ADD PUSH1 0x20 SWAP1 DIV DUP2 ADD SWAP3 DUP3 PUSH2 0x338 JUMPI PUSH1 0x0 DUP6 SSTORE PUSH2 0x37E JUMP JUMPDEST DUP3 PUSH1 0x1F LT PUSH2 0x351 JUMPI DUP1 MLOAD PUSH1 0xFF NOT AND DUP4 DUP1 ADD OR DUP6 SSTORE PUSH2 0x37E JUMP JUMPDEST DUP3 DUP1 ADD PUSH1 0x1 ADD DUP6 SSTORE DUP3 ISZERO PUSH2 0x37E JUMPI SWAP2 DUP3 ADD JUMPDEST DUP3 DUP2 GT ISZERO PUSH2 0x37E JUMPI DUP3 MLOAD DUP3 SSTORE SWAP2 PUSH1 0x20 ADD SWAP2 SWAP1 PUSH1 0x1 ADD SWAP1 PUSH2 0x363 JUMP JUMPDEST POP PUSH2 0x38A SWAP3 SWAP2 POP PUSH2 0x3C8 JUMP JUMPDEST POP SWAP1 JUMP JUMPDEST DUP3 DUP1 SLOAD DUP3 DUP3 SSTORE SWAP1 PUSH1 0x0 MSTORE PUSH1 0x20 PUSH1 0x0 KECCAK256 SWAP1 DUP2 ADD SWAP3 DUP3 ISZERO PUSH2 0x37E JUMPI SWAP2 PUSH1 0x20 MUL DUP3 ADD DUP3 DUP2 GT ISZERO PUSH2 0x37E JUMPI DUP3 MLOAD DUP3 SSTORE SWAP2 PUSH1 0x20 ADD SWAP2 SWAP1 PUSH1 0x1 ADD SWAP1 PUSH2 0x363 JUMP JUMPDEST JUMPDEST DUP1 DUP3 GT ISZERO PUSH2 0x38A JUMPI PUSH1 0x0 DUP2 SSTORE PUSH1 0x1 ADD PUSH2 0x3C9 JUMP JUMPDEST PUSH1 0x0 DUP3 PUSH1 0x1F DUP4 ADD SLT PUSH2 0x3ED JUMPI DUP1 DUP2 REVERT JUMPDEST DUP2 CALLDATALOAD PUSH1 0x20 PUSH8 0xFFFFFFFFFFFFFFFF DUP3 GT ISZERO PUSH2 0x409 JUMPI PUSH2 0x409 PUSH2 0x5F3 JUMP JUMPDEST DUP2 PUSH1 0x5 SHL PUSH2 0x418 DUP3 DUP3 ADD PUSH2 0x587 JUMP JUMPDEST DUP4 DUP2 MSTORE DUP3 DUP2 ADD SWAP1 DUP7 DUP5 ADD DUP4 DUP9 ADD DUP6 ADD DUP10 LT ISZERO PUSH2 0x432 JUMPI DUP7 DUP8 REVERT JUMPDEST DUP7 SWAP4 POP JUMPDEST DUP6 DUP5 LT ISZERO PUSH2 0x454 JUMPI DUP1 CALLDATALOAD DUP4 MSTORE PUSH1 0x1 SWAP4 SWAP1 SWAP4 ADD SWAP3 SWAP2 DUP5 ADD SWAP2 DUP5 ADD PUSH2 0x436 JUMP JUMPDEST POP SWAP8 SWAP7 POP POP POP POP POP POP POP JUMP JUMPDEST PUSH1 0x0 PUSH1 0x20 DUP3 DUP5 SUB SLT ISZERO PUSH2 0x471 JUMPI DUP1 DUP2 REVERT JUMPDEST POP CALLDATALOAD SWAP2 SWAP1 POP JUMP JUMPDEST PUSH1 0x0 DUP1 PUSH1 0x0 PUSH1 0x60 DUP5 DUP7 SUB SLT ISZERO PUSH2 0x48C JUMPI DUP2 DUP3 REVERT JUMPDEST DUP4 CALLDATALOAD SWAP3 POP PUSH1 0x20 DUP1 DUP6 ADD CALLDATALOAD PUSH8 0xFFFFFFFFFFFFFFFF DUP1 DUP3 GT ISZERO PUSH2 0x4AB JUMPI DUP5 DUP6 REVERT JUMPDEST DUP2 DUP8 ADD SWAP2 POP DUP8 PUSH1 0x1F DUP4 ADD SLT PUSH2 0x4BE JUMPI DUP5 DUP6 REVERT JUMPDEST DUP2 CALLDATALOAD DUP2 DUP2 GT ISZERO PUSH2 0x4D0 JUMPI PUSH2 0x4D0 PUSH2 0x5F3 JUMP JUMPDEST PUSH2 0x4E2 PUSH1 0x1F DUP3 ADD PUSH1 0x1F NOT AND DUP6 ADD PUSH2 0x587 JUMP JUMPDEST DUP2 DUP2 MSTORE DUP10 DUP6 DUP4 DUP7 ADD ADD GT ISZERO PUSH2 0x4F5 JUMPI DUP7 DUP8 REVERT JUMPDEST DUP2 DUP6 DUP6 ADD DUP7 DUP4 ADD CALLDATACOPY DUP7 DUP6 DUP4 DUP4 ADD ADD MSTORE DUP1 SWAP7 POP POP POP PUSH1 0x40 DUP8 ADD CALLDATALOAD SWAP3 POP DUP1 DUP4 GT ISZERO PUSH2 0x51C JUMPI DUP4 DUP5 REVERT JUMPDEST POP POP PUSH2 0x52A DUP7 DUP3 DUP8 ADD PUSH2 0x3DD JUMP JUMPDEST SWAP2 POP POP SWAP3 POP SWAP3 POP SWAP3 JUMP JUMPDEST PUSH1 0x0 PUSH1 0x20 DUP1 DUP4 MSTORE DUP4 MLOAD DUP1 DUP3 DUP6 ADD MSTORE DUP3 JUMPDEST DUP2 DUP2 LT ISZERO PUSH2 0x560 JUMPI DUP6 DUP2 ADD DUP4 ADD MLOAD DUP6 DUP3 ADD PUSH1 0x40 ADD MSTORE DUP3 ADD PUSH2 0x544 JUMP JUMPDEST DUP2 DUP2 GT ISZERO PUSH2 0x571 JUMPI DUP4 PUSH1 0x40 DUP4 DUP8 ADD ADD MSTORE JUMPDEST POP PUSH1 0x1F ADD PUSH1 0x1F NOT AND SWAP3 SWAP1 SWAP3 ADD PUSH1 0x40 ADD SWAP4 SWAP3 POP POP POP JUMP JUMPDEST PUSH1 0x40 MLOAD PUSH1 0x1F DUP3 ADD PUSH1 0x1F NOT AND DUP2 ADD PUSH8 0xFFFFFFFFFFFFFFFF DUP2 GT DUP3 DUP3 LT OR ISZERO PUSH2 0x5B0 JUMPI PUSH2 0x5B0 PUSH2 0x5F3 JUMP JUMPDEST PUSH1 0x40 MSTORE SWAP2 SWAP1 POP JUMP JUMPDEST PUSH1 0x1 DUP2 DUP2 SHR SWAP1 DUP3 AND DUP1 PUSH2 0x5CC JUMPI PUSH1 0x7F DUP3 AND SWAP2 POP JUMPDEST PUSH1 0x20 DUP3 LT DUP2 EQ ISZERO PUSH2 0x5ED JUMPI PUSH4 0x4E487B71 PUSH1 0xE0 SHL PUSH1 0x0 MSTORE PUSH1 0x22 PUSH1 0x4 MSTORE PUSH1 0x24 PUSH1 0x0 REVERT JUMPDEST POP SWAP2 SWAP1 POP JUMP JUMPDEST PUSH4 0x4E487B71 PUSH1 0xE0 SHL PUSH1 0x0 MSTORE PUSH1 0x41 PUSH1 0x4 MSTORE PUSH1 0x24 PUSH1 0x0 REVERT INVALID LOG2 PUSH5 0x6970667358 0x22 SLT KECCAK256 CALLVALUE MSTORE 0xBE SWAP2 INVALID 0x5D MUL MULMOD 0xE6 ADD PUSH6 0x7B193A012F12 0xF8 DUP7 CALLER COINBASE 0x5D 0xD0 DIFFICULTY 0xD3 PUSH29 0xFA7E92F2042864736F6C63430008030033000000000000000000000000 "
        },
        "methodIdentifiers": {
          "get()": "6d4ce63c",
          "initialize(uint256,string,uint256[])": "d31f8b6b",
          "initializeNonPayable()": "227367d5",
          "initializeNonPayableWithValue(uint256)": "763e2831",
          "initializePayable()": "9fba1f9a",
          "initializePayableWithValue(uint256)": "e79f5bee",
          "reverts()": "3bccbbc9",
          "text()": "1f1bd692",
          "value()": "3fa4f245",
          "values(uint256)": "5e383d21",
          "version()": "54fd4d50"
        }
      }
    }
  }
}