{
  "_format": "hh-sol-artifact-1",
  "contractName": "ERC20SnapshotMock",
  "sourceName": "contracts/mocks/ERC20SnapshotMock.sol",
  "abi": [
    {
      "inputs": [
        {
          "internalType": "string",
          "name": "name",
          "type": "string"
        },
        {
          "internalType": "string",
          "name": "symbol",
          "type": "string"
        },
        {
          "internalType": "address",
          "name": "initialAccount",
          "type": "address"
        },
        {
          "internalType": "uint256",
          "name": "initialBalance",
          "type": "uint256"
        }
      ],
      "stateMutability": "nonpayable",
      "type": "constructor"
    },
    {
      "anonymous": false,
      "inputs": [
        {
          "indexed": true,
          "internalType": "address",
          "name": "owner",
          "type": "address"
        },
        {
          "indexed": true,
          "internalType": "address",
          "name": "spender",
          "type": "address"
        },
        {
          "indexed": false,
          "internalType": "uint256",
          "name": "value",
          "type": "uint256"
        }
      ],
      "name": "Approval",
      "type": "event"
    },
    {
      "anonymous": false,
      "inputs": [
        {
          "indexed": false,
          "internalType": "uint256",
          "name": "id",
          "type": "uint256"
        }
      ],
      "name": "Snapshot",
      "type": "event"
    },
    {
      "anonymous": false,
      "inputs": [
        {
          "indexed": true,
          "internalType": "address",
          "name": "from",
          "type": "address"
        },
        {
          "indexed": true,
          "internalType": "address",
          "name": "to",
          "type": "address"
        },
        {
          "indexed": false,
          "internalType": "uint256",
          "name": "value",
          "type": "uint256"
        }
      ],
      "name": "Transfer",
      "type": "event"
    },
    {
      "inputs": [
        {
          "internalType": "address",
          "name": "owner",
          "type": "address"
        },
        {
          "internalType": "address",
          "name": "spender",
          "type": "address"
        }
      ],
      "name": "allowance",
      "outputs": [
        {
          "internalType": "uint256",
          "name": "",
          "type": "uint256"
        }
      ],
      "stateMutability": "view",
      "type": "function"
    },
    {
      "inputs": [
        {
          "internalType": "address",
          "name": "spender",
          "type": "address"
        },
        {
          "internalType": "uint256",
          "name": "amount",
          "type": "uint256"
        }
      ],
      "name": "approve",
      "outputs": [
        {
          "internalType": "bool",
          "name": "",
          "type": "bool"
        }
      ],
      "stateMutability": "nonpayable",
      "type": "function"
    },
    {
      "inputs": [
        {
          "internalType": "address",
          "name": "account",
          "type": "address"
        }
      ],
      "name": "balanceOf",
      "outputs": [
        {
          "internalType": "uint256",
          "name": "",
          "type": "uint256"
        }
      ],
      "stateMutability": "view",
      "type": "function"
    },
    {
      "inputs": [
        {
          "internalType": "address",
          "name": "account",
          "type": "address"
        },
        {
          "internalType": "uint256",
          "name": "snapshotId",
          "type": "uint256"
        }
      ],
      "name": "balanceOfAt",
      "outputs": [
        {
          "internalType": "uint256",
          "name": "",
          "type": "uint256"
        }
      ],
      "stateMutability": "view",
      "type": "function"
    },
    {
      "inputs": [
        {
          "internalType": "address",
          "name": "account",
          "type": "address"
        },
        {
          "internalType": "uint256",
          "name": "amount",
          "type": "uint256"
        }
      ],
      "name": "burn",
      "outputs": [],
      "stateMutability": "nonpayable",
      "type": "function"
    },
    {
      "inputs": [],
      "name": "decimals",
      "outputs": [
        {
          "internalType": "uint8",
          "name": "",
          "type": "uint8"
        }
      ],
      "stateMutability": "view",
      "type": "function"
    },
    {
      "inputs": [
        {
          "internalType": "address",
          "name": "spender",
          "type": "address"
        },
        {
          "internalType": "uint256",
          "name": "subtractedValue",
          "type": "uint256"
        }
      ],
      "name": "decreaseAllowance",
      "outputs": [
        {
          "internalType": "bool",
          "name": "",
          "type": "bool"
        }
      ],
      "stateMutability": "nonpayable",
      "type": "function"
    },
    {
      "inputs": [
        {
          "internalType": "address",
          "name": "spender",
          "type": "address"
        },
        {
          "internalType": "uint256",
          "name": "addedValue",
          "type": "uint256"
        }
      ],
      "name": "increaseAllowance",
      "outputs": [
        {
          "internalType": "bool",
          "name": "",
          "type": "bool"
        }
      ],
      "stateMutability": "nonpayable",
      "type": "function"
    },
    {
      "inputs": [
        {
          "internalType": "address",
          "name": "account",
          "type": "address"
        },
        {
          "internalType": "uint256",
          "name": "amount",
          "type": "uint256"
        }
      ],
      "name": "mint",
      "outputs": [],
      "stateMutability": "nonpayable",
      "type": "function"
    },
    {
      "inputs": [],
      "name": "name",
      "outputs": [
        {
          "internalType": "string",
          "name": "",
          "type": "string"
        }
      ],
      "stateMutability": "view",
      "type": "function"
    },
    {
      "inputs": [],
      "name": "snapshot",
      "outputs": [],
      "stateMutability": "nonpayable",
      "type": "function"
    },
    {
      "inputs": [],
      "name": "symbol",
      "outputs": [
        {
          "internalType": "string",
          "name": "",
          "type": "string"
        }
      ],
      "stateMutability": "view",
      "type": "function"
    },
    {
      "inputs": [],
      "name": "totalSupply",
      "outputs": [
        {
          "internalType": "uint256",
          "name": "",
          "type": "uint256"
        }
      ],
      "stateMutability": "view",
      "type": "function"
    },
    {
      "inputs": [
        {
          "internalType": "uint256",
          "name": "snapshotId",
          "type": "uint256"
        }
      ],
      "name": "totalSupplyAt",
      "outputs": [
        {
          "internalType": "uint256",
          "name": "",
          "type": "uint256"
        }
      ],
      "stateMutability": "view",
      "type": "function"
    },
    {
      "inputs": [
        {
          "internalType": "address",
          "name": "recipient",
          "type": "address"
        },
        {
          "internalType": "uint256",
          "name": "amount",
          "type": "uint256"
        }
      ],
      "name": "transfer",
      "outputs": [
        {
          "internalType": "bool",
          "name": "",
          "type": "bool"
        }
      ],
      "stateMutability": "nonpayable",
      "type": "function"
    },
    {
      "inputs": [
        {
          "internalType": "address",
          "name": "sender",
          "type": "address"
        },
        {
          "internalType": "address",
          "name": "recipient",
          "type": "address"
        },
        {
          "internalType": "uint256",
          "name": "amount",
          "type": "uint256"
        }
      ],
      "name": "transferFrom",
      "outputs": [
        {
          "internalType": "bool",
          "name": "",
          "type": "bool"
        }
      ],
      "stateMutability": "nonpayable",
      "type": "function"
    }
  ],
  "bytecode": "0x60806040523480156200001157600080fd5b506040516200163638038062001636833981016040819052620000349162000461565b8351849084906200004d90600390602085019062000308565b5080516200006390600490602084019062000308565b5050506200007882826200008260201b60201c565b505050506200058e565b6001600160a01b038216620000dd5760405162461bcd60e51b815260206004820152601f60248201527f45524332303a206d696e7420746f20746865207a65726f206164647265737300604482015260640160405180910390fd5b620000eb6000838362000178565b8060026000828254620000ff9190620004f0565b90915550506001600160a01b038216600090815260208190526040812080548392906200012e908490620004f0565b90915550506040518181526001600160a01b038316906000907fddf252ad1be2c89b69c2b068fc378daa952ba7f163c4a11628f55a4df523b3ef9060200160405180910390a35050565b62000190838383620001ea60201b620005601760201c565b6001600160a01b038316620001ba57620001aa82620001ef565b620001b462000220565b620001ea565b6001600160a01b038216620001d457620001aa83620001ef565b620001df83620001ef565b620001ea82620001ef565b505050565b6001600160a01b03811660009081526005602052604090206200021d90620002178362000232565b62000251565b50565b6200023060066200021760025490565b565b6001600160a01b0381166000908152602081905260409020545b919050565b60006200026a6008620002ad60201b620005651760201c565b9050806200027884620002b1565b1015620001ea578254600180820185556000858152602080822090930193909355938401805494850181558252902090910155565b5490565b8054600090620002c4575060006200024c565b81548290620002d6906001906200050b565b81548110620002f557634e487b7160e01b600052603260045260246000fd5b906000526020600020015490506200024c565b828054620003169062000525565b90600052602060002090601f0160209004810192826200033a576000855562000385565b82601f106200035557805160ff191683800117855562000385565b8280016001018555821562000385579182015b828111156200038557825182559160200191906001019062000368565b506200039392915062000397565b5090565b5b8082111562000393576000815560010162000398565b600082601f830112620003bf578081fd5b81516001600160401b0380821115620003dc57620003dc62000578565b604051601f8301601f19908116603f0116810190828211818310171562000407576200040762000578565b8160405283815260209250868385880101111562000423578485fd5b8491505b8382101562000446578582018301518183018401529082019062000427565b838211156200045757848385830101525b9695505050505050565b6000806000806080858703121562000477578384fd5b84516001600160401b03808211156200048e578586fd5b6200049c88838901620003ae565b95506020870151915080821115620004b2578485fd5b50620004c187828801620003ae565b604087015190945090506001600160a01b0381168114620004e0578283fd5b6060959095015193969295505050565b6000821982111562000506576200050662000562565b500190565b60008282101562000520576200052062000562565b500390565b600181811c908216806200053a57607f821691505b602082108114156200055c57634e487b7160e01b600052602260045260246000fd5b50919050565b634e487b7160e01b600052601160045260246000fd5b634e487b7160e01b600052604160045260246000fd5b611098806200059e6000396000f3fe608060405234801561001057600080fd5b50600436106101005760003560e01c806370a08231116100975780639dc29fac116100665780639dc29fac146101eb578063a457c2d7146101fe578063a9059cbb14610211578063dd62ed3e1461022457610100565b806370a08231146101b557806395d89b41146101c85780639711715a146101d0578063981b24d0146101d857610100565b8063313ce567116100d3578063313ce5671461016b578063395093511461017a57806340c10f191461018d5780634ee2cd7e146101a257610100565b806306fdde0314610105578063095ea7b31461012357806318160ddd1461014657806323b872dd14610158575b600080fd5b61010d61025d565b60405161011a9190610f51565b60405180910390f35b610136610131366004610f10565b6102ef565b604051901515815260200161011a565b6002545b60405190815260200161011a565b610136610166366004610ed5565b610306565b6040516012815260200161011a565b610136610188366004610f10565b6103bc565b6101a061019b366004610f10565b6103f3565b005b61014a6101b0366004610f10565b610401565b61014a6101c3366004610e89565b61044a565b61010d610469565b6101a0610478565b61014a6101e6366004610f39565b610483565b6101a06101f9366004610f10565b6104ae565b61013661020c366004610f10565b6104b8565b61013661021f366004610f10565b610553565b61014a610232366004610ea3565b6001600160a01b03918216600090815260016020908152604080832093909416825291909152205490565b60606003805461026c90610fe7565b80601f016020809104026020016040519081016040528092919081815260200182805461029890610fe7565b80156102e55780601f106102ba576101008083540402835291602001916102e5565b820191906000526020600020905b8154815290600101906020018083116102c857829003601f168201915b5050505050905090565b60006102fc338484610569565b5060015b92915050565b600061031384848461068e565b6001600160a01b03841660009081526001602090815260408083203384529091529020548281101561039d5760405162461bcd60e51b815260206004820152602860248201527f45524332303a207472616e7366657220616d6f756e74206578636565647320616044820152676c6c6f77616e636560c01b60648201526084015b60405180910390fd5b6103b185336103ac8685610fd0565b610569565b506001949350505050565b3360008181526001602090815260408083206001600160a01b038716845290915281205490916102fc9185906103ac908690610fa4565b6103fd8282610871565b5050565b6001600160a01b03821660009081526005602052604081208190819061042890859061095c565b915091508161043f5761043a8561044a565b610441565b805b95945050505050565b6001600160a01b0381166000908152602081905260409020545b919050565b60606004805461026c90610fe7565b610480610a5c565b50565b600080600061049384600661095c565b91509150816104a4576002546104a6565b805b949350505050565b6103fd8282610ab7565b3360009081526001602090815260408083206001600160a01b03861684529091528120548281101561053a5760405162461bcd60e51b815260206004820152602560248201527f45524332303a2064656372656173656420616c6c6f77616e63652062656c6f77604482015264207a65726f60d81b6064820152608401610394565b61054933856103ac8685610fd0565b5060019392505050565b60006102fc33848461068e565b505050565b5490565b6001600160a01b0383166105cb5760405162461bcd60e51b8152602060048201526024808201527f45524332303a20617070726f76652066726f6d20746865207a65726f206164646044820152637265737360e01b6064820152608401610394565b6001600160a01b03821661062c5760405162461bcd60e51b815260206004820152602260248201527f45524332303a20617070726f766520746f20746865207a65726f206164647265604482015261737360f01b6064820152608401610394565b6001600160a01b0383811660008181526001602090815260408083209487168084529482529182902085905590518481527f8c5be1e5ebec7d5bd14f71427d1e84f3dd0314c0f7b2291e5b200ac8c7c3b92591015b60405180910390a3505050565b6001600160a01b0383166106f25760405162461bcd60e51b815260206004820152602560248201527f45524332303a207472616e736665722066726f6d20746865207a65726f206164604482015264647265737360d81b6064820152608401610394565b6001600160a01b0382166107545760405162461bcd60e51b815260206004820152602360248201527f45524332303a207472616e7366657220746f20746865207a65726f206164647260448201526265737360e81b6064820152608401610394565b61075f838383610c12565b6001600160a01b038316600090815260208190526040902054818110156107d75760405162461bcd60e51b815260206004820152602660248201527f45524332303a207472616e7366657220616d6f756e7420657863656564732062604482015265616c616e636560d01b6064820152608401610394565b6107e18282610fd0565b6001600160a01b038086166000908152602081905260408082209390935590851681529081208054849290610817908490610fa4565b92505081905550826001600160a01b0316846001600160a01b03167fddf252ad1be2c89b69c2b068fc378daa952ba7f163c4a11628f55a4df523b3ef8460405161086391815260200190565b60405180910390a350505050565b6001600160a01b0382166108c75760405162461bcd60e51b815260206004820152601f60248201527f45524332303a206d696e7420746f20746865207a65726f2061646472657373006044820152606401610394565b6108d360008383610c12565b80600260008282546108e59190610fa4565b90915550506001600160a01b03821660009081526020819052604081208054839290610912908490610fa4565b90915550506040518181526001600160a01b038316906000907fddf252ad1be2c89b69c2b068fc378daa952ba7f163c4a11628f55a4df523b3ef9060200160405180910390a35050565b600080600084116109a85760405162461bcd60e51b815260206004820152601660248201527504552433230536e617073686f743a20696420697320360541b6044820152606401610394565b6008548411156109fa5760405162461bcd60e51b815260206004820152601d60248201527f4552433230536e617073686f743a206e6f6e6578697374656e742069640000006044820152606401610394565b6000610a068486610c5f565b8454909150811415610a1f576000809250925050610a55565b6001846001018281548110610a4457634e487b7160e01b600052603260045260246000fd5b906000526020600020015492509250505b9250929050565b6000610a6c600880546001019055565b6000610a7760085490565b90507f8030e83b04d87bef53480e26263266d6ca66863aa8506aca6f2559d18aa1cb6781604051610aaa91815260200190565b60405180910390a1905090565b6001600160a01b038216610b175760405162461bcd60e51b815260206004820152602160248201527f45524332303a206275726e2066726f6d20746865207a65726f206164647265736044820152607360f81b6064820152608401610394565b610b2382600083610c12565b6001600160a01b03821660009081526020819052604090205481811015610b975760405162461bcd60e51b815260206004820152602260248201527f45524332303a206275726e20616d6f756e7420657863656564732062616c616e604482015261636560f01b6064820152608401610394565b610ba18282610fd0565b6001600160a01b03841660009081526020819052604081209190915560028054849290610bcf908490610fd0565b90915550506040518281526000906001600160a01b038516907fddf252ad1be2c89b69c2b068fc378daa952ba7f163c4a11628f55a4df523b3ef90602001610681565b6001600160a01b038316610c3657610c2982610d3e565b610c31610d68565b610560565b6001600160a01b038216610c4d57610c2983610d3e565b610c5683610d3e565b61056082610d3e565b8154600090610c7057506000610300565b82546000905b80821015610cda576000610c8a8383610d78565b905084868281548110610cad57634e487b7160e01b600052603260045260246000fd5b90600052602060002001541115610cc657809150610cd4565b610cd1816001610fa4565b92505b50610c76565b600082118015610d1d57508385610cf2600185610fd0565b81548110610d1057634e487b7160e01b600052603260045260246000fd5b9060005260206000200154145b15610d3657610d2d600183610fd0565b92505050610300565b509050610300565b6001600160a01b038116600090815260056020526040902061048090610d638361044a565b610dd6565b610d766006610d6360025490565b565b60006002610d868184611022565b610d91600286611022565b610d9b9190610fa4565b610da59190610fbc565b610db0600284610fbc565b610dbb600286610fbc565b610dc59190610fa4565b610dcf9190610fa4565b9392505050565b6000610de160085490565b905080610ded84610e21565b1015610560578254600180820185556000858152602080822090930193909355938401805494850181558252902090910155565b8054600090610e3257506000610464565b81548290610e4290600190610fd0565b81548110610e6057634e487b7160e01b600052603260045260246000fd5b90600052602060002001549050610464565b80356001600160a01b038116811461046457600080fd5b600060208284031215610e9a578081fd5b610dcf82610e72565b60008060408385031215610eb5578081fd5b610ebe83610e72565b9150610ecc60208401610e72565b90509250929050565b600080600060608486031215610ee9578081fd5b610ef284610e72565b9250610f0060208501610e72565b9150604084013590509250925092565b60008060408385031215610f22578182fd5b610f2b83610e72565b946020939093013593505050565b600060208284031215610f4a578081fd5b5035919050565b6000602080835283518082850152825b81811015610f7d57858101830151858201604001528201610f61565b81811115610f8e5783604083870101525b50601f01601f1916929092016040019392505050565b60008219821115610fb757610fb7611036565b500190565b600082610fcb57610fcb61104c565b500490565b600082821015610fe257610fe2611036565b500390565b600181811c90821680610ffb57607f821691505b6020821081141561101c57634e487b7160e01b600052602260045260246000fd5b50919050565b6000826110315761103161104c565b500690565b634e487b7160e01b600052601160045260246000fd5b634e487b7160e01b600052601260045260246000fdfea2646970667358221220fd2359c4b550cf38d9133d48470e3ccf377f36e2f2cae4ae2c228c6c7ab9f4ee64736f6c63430008030033",
  "linkReferences": {},
  "deployedLinkReferences": {}
}