{
  "_format": "hh-sol-artifact-1",
  "contractName": "AddressImpl",
  "sourceName": "contracts/mocks/AddressImpl.sol",
  "abi": [
    {
      "anonymous": false,
      "inputs": [
        {
          "indexed": false,
          "internalType": "string",
          "name": "data",
          "type": "string"
        }
      ],
      "name": "CallReturnValue",
      "type": "event"
    },
    {
      "inputs": [
        {
          "internalType": "address",
          "name": "target",
          "type": "address"
        },
        {
          "internalType": "bytes",
          "name": "data",
          "type": "bytes"
        }
      ],
      "name": "functionCall",
      "outputs": [],
      "stateMutability": "nonpayable",
      "type": "function"
    },
    {
      "inputs": [
        {
          "internalType": "address",
          "name": "target",
          "type": "address"
        },
        {
          "internalType": "bytes",
          "name": "data",
          "type": "bytes"
        },
        {
          "internalType": "uint256",
          "name": "value",
          "type": "uint256"
        }
      ],
      "name": "functionCallWithValue",
      "outputs": [],
      "stateMutability": "payable",
      "type": "function"
    },
    {
      "inputs": [
        {
          "internalType": "address",
          "name": "target",
          "type": "address"
        },
        {
          "internalType": "bytes",
          "name": "data",
          "type": "bytes"
        }
      ],
      "name": "functionDelegateCall",
      "outputs": [],
      "stateMutability": "nonpayable",
      "type": "function"
    },
    {
      "inputs": [
        {
          "internalType": "address",
          "name": "target",
          "type": "address"
        },
        {
          "internalType": "bytes",
          "name": "data",
          "type": "bytes"
        }
      ],
      "name": "functionStaticCall",
      "outputs": [],
      "stateMutability": "nonpayable",
      "type": "function"
    },
    {
      "inputs": [
        {
          "internalType": "address",
          "name": "account",
          "type": "address"
        }
      ],
      "name": "isContract",
      "outputs": [
        {
          "internalType": "bool",
          "name": "",
          "type": "bool"
        }
      ],
      "stateMutability": "view",
      "type": "function"
    },
    {
      "inputs": [
        {
          "internalType": "address payable",
          "name": "receiver",
          "type": "address"
        },
        {
          "internalType": "uint256",
          "name": "amount",
          "type": "uint256"
        }
      ],
      "name": "sendValue",
      "outputs": [],
      "stateMutability": "nonpayable",
      "type": "function"
    },
    {
      "inputs": [],
      "name": "sharedAnswer",
      "outputs": [
        {
          "internalType": "string",
          "name": "",
          "type": "string"
        }
      ],
      "stateMutability": "view",
      "type": "function"
    },
    {
      "stateMutability": "payable",
      "type": "receive"
    }
  ],
  "bytecode": "0x608060405234801561001057600080fd5b50610bf9806100206000396000f3fe6080604052600436106100745760003560e01c8063a0b5ffb01161004e578063a0b5ffb0146100eb578063c21d36f31461010b578063ee33b7e21461012b578063fc40cf731461014b5761007b565b8063162790551461008057806324a084df146100b65780632a011594146100d85761007b565b3661007b57005b600080fd5b34801561008c57600080fd5b506100a161009b3660046108d4565b3b151590565b60405190151581526020015b60405180910390f35b3480156100c257600080fd5b506100d66100d13660046108f0565b61016d565b005b6100d66100e636600461096e565b61017b565b3480156100f757600080fd5b506100d661010636600461091b565b610212565b34801561011757600080fd5b506100d661012636600461091b565b6102a6565b34801561013757600080fd5b506100d661014636600461091b565b6102e8565b34801561015757600080fd5b5061016061032a565b6040516100ad9190610a82565b61017782826103b8565b5050565b60006101bf8585858080601f0160208091040260200160405190810160405280939291908181526020018383808284376000920191909152508792506104db915050565b90507fe518073da644d0626295bee74d5d5c51447a33857c62913bb30f35e2fba3db7c818060200190518101906101f691906109c8565b6040516102039190610a82565b60405180910390a15050505050565b60006102548484848080601f01602080910402602001604051908101604052809392919081815260200183838082843760009201919091525061050b92505050565b90507fe518073da644d0626295bee74d5d5c51447a33857c62913bb30f35e2fba3db7c8180602001905181019061028b91906109c8565b6040516102989190610a82565b60405180910390a150505050565b60006102548484848080601f01602080910402602001604051908101604052809392919081815260200183838082843760009201919091525061054d92505050565b60006102548484848080601f01602080910402602001604051908101604052809392919081815260200183838082843760009201919091525061057292505050565b6000805461033790610ae5565b80601f016020809104026020016040519081016040528092919081815260200182805461036390610ae5565b80156103b05780601f10610385576101008083540402835291602001916103b0565b820191906000526020600020905b81548152906001019060200180831161039357829003601f168201915b505050505081565b8047101561040d5760405162461bcd60e51b815260206004820152601d60248201527f416464726573733a20696e73756666696369656e742062616c616e636500000060448201526064015b60405180910390fd5b6000826001600160a01b03168260405160006040518083038185875af1925050503d806000811461045a576040519150601f19603f3d011682016040523d82523d6000602084013e61045f565b606091505b50509050806104d65760405162461bcd60e51b815260206004820152603a60248201527f416464726573733a20756e61626c6520746f2073656e642076616c75652c207260448201527f6563697069656e74206d617920686176652072657665727465640000000000006064820152608401610404565b505050565b6060610501848484604051806060016040528060298152602001610b4f60299139610597565b90505b9392505050565b606061050483836040518060400160405280601e81526020017f416464726573733a206c6f772d6c6576656c2063616c6c206661696c656400008152506106bf565b60606105048383604051806060016040528060258152602001610b78602591396106ce565b60606105048383604051806060016040528060278152602001610b9d6027913961079f565b6060824710156105f85760405162461bcd60e51b815260206004820152602660248201527f416464726573733a20696e73756666696369656e742062616c616e636520666f6044820152651c8818d85b1b60d21b6064820152608401610404565b843b6106465760405162461bcd60e51b815260206004820152601d60248201527f416464726573733a2063616c6c20746f206e6f6e2d636f6e74726163740000006044820152606401610404565b600080866001600160a01b031685876040516106629190610a66565b60006040518083038185875af1925050503d806000811461069f576040519150601f19603f3d011682016040523d82523d6000602084013e6106a4565b606091505b50915091506106b4828286610854565b979650505050505050565b60606105018484600085610597565b6060833b61072a5760405162461bcd60e51b8152602060048201526024808201527f416464726573733a207374617469632063616c6c20746f206e6f6e2d636f6e746044820152631c9858dd60e21b6064820152608401610404565b600080856001600160a01b0316856040516107459190610a66565b600060405180830381855afa9150503d8060008114610780576040519150601f19603f3d011682016040523d82523d6000602084013e610785565b606091505b5091509150610795828286610854565b9695505050505050565b6060833b6107fe5760405162461bcd60e51b815260206004820152602660248201527f416464726573733a2064656c65676174652063616c6c20746f206e6f6e2d636f6044820152651b9d1c9858dd60d21b6064820152608401610404565b600080856001600160a01b0316856040516108199190610a66565b600060405180830381855af49150503d8060008114610780576040519150601f19603f3d011682016040523d82523d6000602084013e610785565b60608315610863575081610504565b8251156108735782518084602001fd5b8160405162461bcd60e51b81526004016104049190610a82565b60008083601f84011261089e578081fd5b50813567ffffffffffffffff8111156108b5578182fd5b6020830191508360208285010111156108cd57600080fd5b9250929050565b6000602082840312156108e5578081fd5b813561050481610b36565b60008060408385031215610902578081fd5b823561090d81610b36565b946020939093013593505050565b60008060006040848603121561092f578081fd5b833561093a81610b36565b9250602084013567ffffffffffffffff811115610955578182fd5b6109618682870161088d565b9497909650939450505050565b60008060008060608587031215610983578081fd5b843561098e81610b36565b9350602085013567ffffffffffffffff8111156109a9578182fd5b6109b58782880161088d565b9598909750949560400135949350505050565b6000602082840312156109d9578081fd5b815167ffffffffffffffff808211156109f0578283fd5b818401915084601f830112610a03578283fd5b815181811115610a1557610a15610b20565b604051601f8201601f19908116603f01168101908382118183101715610a3d57610a3d610b20565b81604052828152876020848701011115610a55578586fd5b6106b4836020830160208801610ab5565b60008251610a78818460208701610ab5565b9190910192915050565b6000602082528251806020840152610aa1816040850160208701610ab5565b601f01601f19169190910160400192915050565b60005b83811015610ad0578181015183820152602001610ab8565b83811115610adf576000848401525b50505050565b600181811c90821680610af957607f821691505b60208210811415610b1a57634e487b7160e01b600052602260045260246000fd5b50919050565b634e487b7160e01b600052604160045260246000fd5b6001600160a01b0381168114610b4b57600080fd5b5056fe416464726573733a206c6f772d6c6576656c2063616c6c20776974682076616c7565206661696c6564416464726573733a206c6f772d6c6576656c207374617469632063616c6c206661696c6564416464726573733a206c6f772d6c6576656c2064656c65676174652063616c6c206661696c6564a2646970667358221220461f93dc639ac8396e5c62eb92e073cefeaa5aae42575077eb22dac1ccb21c3764736f6c63430008030033",
  "linkReferences": {},
  "deployedLinkReferences": {}
}