{
  "_format": "hh-sol-artifact-1",
  "contractName": "ContextMock",
  "sourceName": "contracts/mocks/ContextMock.sol",
  "abi": [
    {
      "anonymous": false,
      "inputs": [
        {
          "indexed": false,
          "internalType": "bytes",
          "name": "data",
          "type": "bytes"
        },
        {
          "indexed": false,
          "internalType": "uint256",
          "name": "integerValue",
          "type": "uint256"
        },
        {
          "indexed": false,
          "internalType": "string",
          "name": "stringValue",
          "type": "string"
        }
      ],
      "name": "Data",
      "type": "event"
    },
    {
      "anonymous": false,
      "inputs": [
        {
          "indexed": false,
          "internalType": "address",
          "name": "sender",
          "type": "address"
        }
      ],
      "name": "Sender",
      "type": "event"
    },
    {
      "inputs": [
        {
          "internalType": "uint256",
          "name": "integerValue",
          "type": "uint256"
        },
        {
          "internalType": "string",
          "name": "stringValue",
          "type": "string"
        }
      ],
      "name": "msgData",
      "outputs": [],
      "stateMutability": "nonpayable",
      "type": "function"
    },
    {
      "inputs": [],
      "name": "msgSender",
      "outputs": [],
      "stateMutability": "nonpayable",
      "type": "function"
    }
  ],
  "bytecode": "0x608060405234801561001057600080fd5b50610256806100206000396000f3fe608060405234801561001057600080fd5b50600436106100365760003560e01c8063376bf2621461003b578063d737d0c714610050575b600080fd5b61004e6100493660046100cf565b610058565b005b61004e61009a565b7faf235354a0a47c91ee171961326335cb2d1a8e55b8a89859b0e61eb049e50ea0600036848460405161008e9493929190610185565b60405180910390a15050565b6040805133815290517fd6558c3ed910d959271054471fd1c326679d9fece99c5091b00ed89627cf2bfc9181900360200190a1565b600080604083850312156100e1578182fd5b82359150602083013567ffffffffffffffff808211156100ff578283fd5b818501915085601f830112610112578283fd5b8135818111156101245761012461020a565b604051601f8201601f19908116603f0116810190838211818310171561014c5761014c61020a565b81604052828152886020848701011115610164578586fd5b82602086016020830137856020848301015280955050505050509250929050565b600060608252846060830152848660808401378060808684010152601f1980601f87011683016020868186015260808583030160408601528551806080840152845b818110156101e35787810183015184820160a0015282016101c7565b818111156101f4578560a083860101525b50601f019092160160a001979650505050505050565b634e487b7160e01b600052604160045260246000fdfea2646970667358221220f932fca7efdec3af55a2a90f652b8519ae06337bc365bf27c334089854b0d06c64736f6c63430008030033",
  "linkReferences": {},
  "deployedLinkReferences": {}
}