{
  "_format": "hh-sol-artifact-1",
  "contractName": "ERC20ReturnFalseMock",
  "sourceName": "contracts/mocks/SafeERC20Helper.sol",
  "abi": [
    {
      "inputs": [
        {
          "internalType": "address",
          "name": "",
          "type": "address"
        },
        {
          "internalType": "address",
          "name": "",
          "type": "address"
        }
      ],
      "name": "allowance",
      "outputs": [
        {
          "internalType": "uint256",
          "name": "",
          "type": "uint256"
        }
      ],
      "stateMutability": "view",
      "type": "function"
    },
    {
      "inputs": [
        {
          "internalType": "address",
          "name": "",
          "type": "address"
        },
        {
          "internalType": "uint256",
          "name": "",
          "type": "uint256"
        }
      ],
      "name": "approve",
      "outputs": [
        {
          "internalType": "bool",
          "name": "",
          "type": "bool"
        }
      ],
      "stateMutability": "nonpayable",
      "type": "function"
    },
    {
      "inputs": [
        {
          "internalType": "address",
          "name": "",
          "type": "address"
        },
        {
          "internalType": "uint256",
          "name": "",
          "type": "uint256"
        }
      ],
      "name": "transfer",
      "outputs": [
        {
          "internalType": "bool",
          "name": "",
          "type": "bool"
        }
      ],
      "stateMutability": "nonpayable",
      "type": "function"
    },
    {
      "inputs": [
        {
          "internalType": "address",
          "name": "",
          "type": "address"
        },
        {
          "internalType": "address",
          "name": "",
          "type": "address"
        },
        {
          "internalType": "uint256",
          "name": "",
          "type": "uint256"
        }
      ],
      "name": "transferFrom",
      "outputs": [
        {
          "internalType": "bool",
          "name": "",
          "type": "bool"
        }
      ],
      "stateMutability": "nonpayable",
      "type": "function"
    }
  ],
  "bytecode": "0x608060405234801561001057600080fd5b506101bf806100206000396000f3fe608060405234801561001057600080fd5b506004361061004c5760003560e01c8063095ea7b31461005157806323b872dd14610080578063a9059cbb14610051578063dd62ed3e1461009c575b600080fd5b61006b61005f366004610160565b50506000600181905590565b60405190151581526020015b60405180910390f35b61006b61008e366004610125565b600060018190559392505050565b6100af6100aa3660046100f3565b6100bd565b604051908152602001610077565b60006001546000146100ce57600080fd5b50600092915050565b80356001600160a01b03811681146100ee57600080fd5b919050565b60008060408385031215610105578182fd5b61010e836100d7565b915061011c602084016100d7565b90509250929050565b600080600060608486031215610139578081fd5b610142846100d7565b9250610150602085016100d7565b9150604084013590509250925092565b60008060408385031215610172578182fd5b61017b836100d7565b94602093909301359350505056fea2646970667358221220264f4f0e9acf5dbf0c924d99b02420ded429d0f56231c5f806dfae1c1c4f012264736f6c63430008030033",
  "linkReferences": {},
  "deployedLinkReferences": {}
}