{
  "_format": "hh-sol-artifact-1",
  "contractName": "ERC20ReturnTrueMock",
  "sourceName": "contracts/mocks/SafeERC20Helper.sol",
  "abi": [
    {
      "inputs": [
        {
          "internalType": "address",
          "name": "owner",
          "type": "address"
        },
        {
          "internalType": "address",
          "name": "",
          "type": "address"
        }
      ],
      "name": "allowance",
      "outputs": [
        {
          "internalType": "uint256",
          "name": "",
          "type": "uint256"
        }
      ],
      "stateMutability": "view",
      "type": "function"
    },
    {
      "inputs": [
        {
          "internalType": "address",
          "name": "",
          "type": "address"
        },
        {
          "internalType": "uint256",
          "name": "",
          "type": "uint256"
        }
      ],
      "name": "approve",
      "outputs": [
        {
          "internalType": "bool",
          "name": "",
          "type": "bool"
        }
      ],
      "stateMutability": "nonpayable",
      "type": "function"
    },
    {
      "inputs": [
        {
          "internalType": "uint256",
          "name": "allowance_",
          "type": "uint256"
        }
      ],
      "name": "setAllowance",
      "outputs": [],
      "stateMutability": "nonpayable",
      "type": "function"
    },
    {
      "inputs": [
        {
          "internalType": "address",
          "name": "",
          "type": "address"
        },
        {
          "internalType": "uint256",
          "name": "",
          "type": "uint256"
        }
      ],
      "name": "transfer",
      "outputs": [
        {
          "internalType": "bool",
          "name": "",
          "type": "bool"
        }
      ],
      "stateMutability": "nonpayable",
      "type": "function"
    },
    {
      "inputs": [
        {
          "internalType": "address",
          "name": "",
          "type": "address"
        },
        {
          "internalType": "address",
          "name": "",
          "type": "address"
        },
        {
          "internalType": "uint256",
          "name": "",
          "type": "uint256"
        }
      ],
      "name": "transferFrom",
      "outputs": [
        {
          "internalType": "bool",
          "name": "",
          "type": "bool"
        }
      ],
      "stateMutability": "nonpayable",
      "type": "function"
    }
  ],
  "bytecode": "0x608060405234801561001057600080fd5b50610201806100206000396000f3fe608060405234801561001057600080fd5b50600436106100575760003560e01c8063095ea7b31461005c57806323b872dd1461008b5780633ba93f26146100a7578063a9059cbb1461005c578063dd62ed3e146100c9575b600080fd5b61007661006a36600461018a565b50506000600190815590565b60405190151581526020015b60405180910390f35b61007661009936600461014f565b600060019081559392505050565b6100c76100b53660046101b3565b33600090815260208190526040902055565b005b6100f36100d736600461011d565b506001600160a01b031660009081526020819052604090205490565b604051908152602001610082565b80356001600160a01b038116811461011857600080fd5b919050565b6000806040838503121561012f578182fd5b61013883610101565b915061014660208401610101565b90509250929050565b600080600060608486031215610163578081fd5b61016c84610101565b925061017a60208501610101565b9150604084013590509250925092565b6000806040838503121561019c578182fd5b6101a583610101565b946020939093013593505050565b6000602082840312156101c4578081fd5b503591905056fea26469706673582212200951866744b7241fa6a2b0ced047cce0fd40ae1c286e88100684468aecc276ce64736f6c63430008030033",
  "linkReferences": {},
  "deployedLinkReferences": {}
}