{
  "_format": "hh-sol-artifact-1",
  "contractName": "ERC1155BurnableMock",
  "sourceName": "contracts/mocks/ERC1155BurnableMock.sol",
  "abi": [
    {
      "inputs": [
        {
          "internalType": "string",
          "name": "uri",
          "type": "string"
        }
      ],
      "stateMutability": "nonpayable",
      "type": "constructor"
    },
    {
      "anonymous": false,
      "inputs": [
        {
          "indexed": true,
          "internalType": "address",
          "name": "account",
          "type": "address"
        },
        {
          "indexed": true,
          "internalType": "address",
          "name": "operator",
          "type": "address"
        },
        {
          "indexed": false,
          "internalType": "bool",
          "name": "approved",
          "type": "bool"
        }
      ],
      "name": "ApprovalForAll",
      "type": "event"
    },
    {
      "anonymous": false,
      "inputs": [
        {
          "indexed": true,
          "internalType": "address",
          "name": "operator",
          "type": "address"
        },
        {
          "indexed": true,
          "internalType": "address",
          "name": "from",
          "type": "address"
        },
        {
          "indexed": true,
          "internalType": "address",
          "name": "to",
          "type": "address"
        },
        {
          "indexed": false,
          "internalType": "uint256[]",
          "name": "ids",
          "type": "uint256[]"
        },
        {
          "indexed": false,
          "internalType": "uint256[]",
          "name": "values",
          "type": "uint256[]"
        }
      ],
      "name": "TransferBatch",
      "type": "event"
    },
    {
      "anonymous": false,
      "inputs": [
        {
          "indexed": true,
          "internalType": "address",
          "name": "operator",
          "type": "address"
        },
        {
          "indexed": true,
          "internalType": "address",
          "name": "from",
          "type": "address"
        },
        {
          "indexed": true,
          "internalType": "address",
          "name": "to",
          "type": "address"
        },
        {
          "indexed": false,
          "internalType": "uint256",
          "name": "id",
          "type": "uint256"
        },
        {
          "indexed": false,
          "internalType": "uint256",
          "name": "value",
          "type": "uint256"
        }
      ],
      "name": "TransferSingle",
      "type": "event"
    },
    {
      "anonymous": false,
      "inputs": [
        {
          "indexed": false,
          "internalType": "string",
          "name": "value",
          "type": "string"
        },
        {
          "indexed": true,
          "internalType": "uint256",
          "name": "id",
          "type": "uint256"
        }
      ],
      "name": "URI",
      "type": "event"
    },
    {
      "inputs": [
        {
          "internalType": "address",
          "name": "account",
          "type": "address"
        },
        {
          "internalType": "uint256",
          "name": "id",
          "type": "uint256"
        }
      ],
      "name": "balanceOf",
      "outputs": [
        {
          "internalType": "uint256",
          "name": "",
          "type": "uint256"
        }
      ],
      "stateMutability": "view",
      "type": "function"
    },
    {
      "inputs": [
        {
          "internalType": "address[]",
          "name": "accounts",
          "type": "address[]"
        },
        {
          "internalType": "uint256[]",
          "name": "ids",
          "type": "uint256[]"
        }
      ],
      "name": "balanceOfBatch",
      "outputs": [
        {
          "internalType": "uint256[]",
          "name": "",
          "type": "uint256[]"
        }
      ],
      "stateMutability": "view",
      "type": "function"
    },
    {
      "inputs": [
        {
          "internalType": "address",
          "name": "account",
          "type": "address"
        },
        {
          "internalType": "uint256",
          "name": "id",
          "type": "uint256"
        },
        {
          "internalType": "uint256",
          "name": "value",
          "type": "uint256"
        }
      ],
      "name": "burn",
      "outputs": [],
      "stateMutability": "nonpayable",
      "type": "function"
    },
    {
      "inputs": [
        {
          "internalType": "address",
          "name": "account",
          "type": "address"
        },
        {
          "internalType": "uint256[]",
          "name": "ids",
          "type": "uint256[]"
        },
        {
          "internalType": "uint256[]",
          "name": "values",
          "type": "uint256[]"
        }
      ],
      "name": "burnBatch",
      "outputs": [],
      "stateMutability": "nonpayable",
      "type": "function"
    },
    {
      "inputs": [
        {
          "internalType": "address",
          "name": "account",
          "type": "address"
        },
        {
          "internalType": "address",
          "name": "operator",
          "type": "address"
        }
      ],
      "name": "isApprovedForAll",
      "outputs": [
        {
          "internalType": "bool",
          "name": "",
          "type": "bool"
        }
      ],
      "stateMutability": "view",
      "type": "function"
    },
    {
      "inputs": [
        {
          "internalType": "address",
          "name": "to",
          "type": "address"
        },
        {
          "internalType": "uint256",
          "name": "id",
          "type": "uint256"
        },
        {
          "internalType": "uint256",
          "name": "value",
          "type": "uint256"
        },
        {
          "internalType": "bytes",
          "name": "data",
          "type": "bytes"
        }
      ],
      "name": "mint",
      "outputs": [],
      "stateMutability": "nonpayable",
      "type": "function"
    },
    {
      "inputs": [
        {
          "internalType": "address",
          "name": "from",
          "type": "address"
        },
        {
          "internalType": "address",
          "name": "to",
          "type": "address"
        },
        {
          "internalType": "uint256[]",
          "name": "ids",
          "type": "uint256[]"
        },
        {
          "internalType": "uint256[]",
          "name": "amounts",
          "type": "uint256[]"
        },
        {
          "internalType": "bytes",
          "name": "data",
          "type": "bytes"
        }
      ],
      "name": "safeBatchTransferFrom",
      "outputs": [],
      "stateMutability": "nonpayable",
      "type": "function"
    },
    {
      "inputs": [
        {
          "internalType": "address",
          "name": "from",
          "type": "address"
        },
        {
          "internalType": "address",
          "name": "to",
          "type": "address"
        },
        {
          "internalType": "uint256",
          "name": "id",
          "type": "uint256"
        },
        {
          "internalType": "uint256",
          "name": "amount",
          "type": "uint256"
        },
        {
          "internalType": "bytes",
          "name": "data",
          "type": "bytes"
        }
      ],
      "name": "safeTransferFrom",
      "outputs": [],
      "stateMutability": "nonpayable",
      "type": "function"
    },
    {
      "inputs": [
        {
          "internalType": "address",
          "name": "operator",
          "type": "address"
        },
        {
          "internalType": "bool",
          "name": "approved",
          "type": "bool"
        }
      ],
      "name": "setApprovalForAll",
      "outputs": [],
      "stateMutability": "nonpayable",
      "type": "function"
    },
    {
      "inputs": [
        {
          "internalType": "bytes4",
          "name": "interfaceId",
          "type": "bytes4"
        }
      ],
      "name": "supportsInterface",
      "outputs": [
        {
          "internalType": "bool",
          "name": "",
          "type": "bool"
        }
      ],
      "stateMutability": "view",
      "type": "function"
    },
    {
      "inputs": [
        {
          "internalType": "uint256",
          "name": "",
          "type": "uint256"
        }
      ],
      "name": "uri",
      "outputs": [
        {
          "internalType": "string",
          "name": "",
          "type": "string"
        }
      ],
      "stateMutability": "view",
      "type": "function"
    }
  ],
  "bytecode": "0x60806040523480156200001157600080fd5b5060405162001d8e38038062001d8e833981016040819052620000349162000107565b80620000408162000048565b505062000230565b80516200005d90600290602084019062000061565b5050565b8280546200006f90620001dd565b90600052602060002090601f016020900481019282620000935760008555620000de565b82601f10620000ae57805160ff1916838001178555620000de565b82800160010185558215620000de579182015b82811115620000de578251825591602001919060010190620000c1565b50620000ec929150620000f0565b5090565b5b80821115620000ec5760008155600101620000f1565b600060208083850312156200011a578182fd5b82516001600160401b038082111562000131578384fd5b818501915085601f83011262000145578384fd5b8151818111156200015a576200015a6200021a565b604051601f8201601f19908116603f011681019083821181831017156200018557620001856200021a565b8160405282815288868487010111156200019d578687fd5b8693505b82841015620001c05784840186015181850187015292850192620001a1565b82841115620001d157868684830101525b98975050505050505050565b600181811c90821680620001f257607f821691505b602082108114156200021457634e487b7160e01b600052602260045260246000fd5b50919050565b634e487b7160e01b600052604160045260246000fd5b611b4e80620002406000396000f3fe608060405234801561001057600080fd5b50600436106100a85760003560e01c80636b20c454116100715780636b20c4541461014b578063731133e91461015e578063a22cb46514610171578063e985e9c514610184578063f242432a146101c0578063f5298aca146101d3576100a8565b8062fdd58e146100ad57806301ffc9a7146100d35780630e89341c146100f65780632eb2c2d6146101165780634e1273f41461012b575b600080fd5b6100c06100bb36600461140d565b6101e6565b6040519081526020015b60405180910390f35b6100e66100e1366004611592565b61027d565b60405190151581526020016100ca565b6101096101043660046115d1565b6102d1565b6040516100ca9190611752565b610129610124366004611259565b610365565b005b61013e6101393660046114c7565b610608565b6040516100ca9190611711565b610129610159366004611362565b61076a565b61012961016c366004611468565b6107c4565b61012961017f3660046113d3565b6107d6565b6100e6610192366004611227565b6001600160a01b03918216600090815260016020908152604080832093909416825291909152205460ff1690565b6101296101ce3660046112ff565b6108ea565b6101296101e1366004611436565b610a75565b60006001600160a01b0383166102575760405162461bcd60e51b815260206004820152602b60248201527f455243313135353a2062616c616e636520717565727920666f7220746865207a60448201526a65726f206164647265737360a81b60648201526084015b60405180910390fd5b506000908152602081815260408083206001600160a01b03949094168352929052205490565b60006001600160e01b03198216636cdb3d1360e11b14806102ae57506001600160e01b031982166303a24d0760e21b145b806102c957506301ffc9a760e01b6001600160e01b03198316145b90505b919050565b6060600280546102e0906119a7565b80601f016020809104026020016040519081016040528092919081815260200182805461030c906119a7565b80156103595780601f1061032e57610100808354040283529160200191610359565b820191906000526020600020905b81548152906001019060200180831161033c57829003601f168201915b50505050509050919050565b81518351146103865760405162461bcd60e51b815260040161024e9061190c565b6001600160a01b0384166103ac5760405162461bcd60e51b815260040161024e9061183a565b6103b4610aca565b6001600160a01b0316856001600160a01b031614806103da57506103da85610192610aca565b6104415760405162461bcd60e51b815260206004820152603260248201527f455243313135353a207472616e736665722063616c6c6572206973206e6f74206044820152711bdddb995c881b9bdc88185c1c1c9bdd995960721b606482015260840161024e565b600061044b610aca565b905060005b845181101561059a57600085828151811061047b57634e487b7160e01b600052603260045260246000fd5b6020026020010151905060008583815181106104a757634e487b7160e01b600052603260045260246000fd5b602090810291909101810151600084815280835260408082206001600160a01b038e1683529093529190912054909150818110156104f75760405162461bcd60e51b815260040161024e906118c2565b6105018282611990565b60008085815260200190815260200160002060008c6001600160a01b03166001600160a01b03168152602001908152602001600020819055508160008085815260200190815260200160002060008b6001600160a01b03166001600160a01b03168152602001908152602001600020600082825461057f9190611978565b925050819055505050508061059390611a0f565b9050610450565b50846001600160a01b0316866001600160a01b0316826001600160a01b03167f4a39dc06d4c0dbc64b70af90fd698a233a518aa5d07e595d983b8c0526c8f7fb87876040516105ea929190611724565b60405180910390a4610600818787878787610acf565b505050505050565b6060815183511461066d5760405162461bcd60e51b815260206004820152602960248201527f455243313135353a206163636f756e747320616e6420696473206c656e677468604482015268040dad2e6dac2e8c6d60bb1b606482015260840161024e565b6000835167ffffffffffffffff81111561069757634e487b7160e01b600052604160045260246000fd5b6040519080825280602002602001820160405280156106c0578160200160208202803683370190505b50905060005b8451811015610762576107278582815181106106f257634e487b7160e01b600052603260045260246000fd5b602002602001015185838151811061071a57634e487b7160e01b600052603260045260246000fd5b60200260200101516101e6565b82828151811061074757634e487b7160e01b600052603260045260246000fd5b602090810291909101015261075b81611a0f565b90506106c6565b509392505050565b610772610aca565b6001600160a01b0316836001600160a01b03161480610798575061079883610192610aca565b6107b45760405162461bcd60e51b815260040161024e906117f1565b6107bf838383610c3a565b505050565b6107d084848484610de9565b50505050565b816001600160a01b03166107e8610aca565b6001600160a01b031614156108515760405162461bcd60e51b815260206004820152602960248201527f455243313135353a2073657474696e6720617070726f76616c20737461747573604482015268103337b91039b2b63360b91b606482015260840161024e565b806001600061085e610aca565b6001600160a01b03908116825260208083019390935260409182016000908120918716808252919093529120805460ff1916921515929092179091556108a2610aca565b6001600160a01b03167f17307eab39ab6107e8899845ad3d59bd9653f200f220920489ca2b5937696c31836040516108de911515815260200190565b60405180910390a35050565b6001600160a01b0384166109105760405162461bcd60e51b815260040161024e9061183a565b610918610aca565b6001600160a01b0316856001600160a01b0316148061093e575061093e85610192610aca565b61095a5760405162461bcd60e51b815260040161024e906117f1565b6000610964610aca565b905061098581878761097588610ef5565b61097e88610ef5565b5050505050565b6000848152602081815260408083206001600160a01b038a168452909152902054838110156109c65760405162461bcd60e51b815260040161024e906118c2565b6109d08482611990565b6000868152602081815260408083206001600160a01b038c81168552925280832093909355881681529081208054869290610a0c908490611978565b909155505060408051868152602081018690526001600160a01b03808916928a821692918616917fc3d58168c5ae7397731d063d5bbf3d657854427343f4c083240f7aacaa2d0f62910160405180910390a4610a6c828888888888610f4e565b50505050505050565b610a7d610aca565b6001600160a01b0316836001600160a01b03161480610aa35750610aa383610192610aca565b610abf5760405162461bcd60e51b815260040161024e906117f1565b6107bf838383611018565b335b90565b6001600160a01b0384163b156106005760405163bc197c8160e01b81526001600160a01b0385169063bc197c8190610b13908990899088908890889060040161166e565b602060405180830381600087803b158015610b2d57600080fd5b505af1925050508015610b5d575060408051601f3d908101601f19168201909252610b5a918101906115b5565b60015b610c0a57610b69611a56565b806308c379a01415610ba35750610b7e611a6d565b80610b895750610ba5565b8060405162461bcd60e51b815260040161024e9190611752565b505b60405162461bcd60e51b815260206004820152603460248201527f455243313135353a207472616e7366657220746f206e6f6e20455243313135356044820152732932b1b2b4bb32b91034b6b83632b6b2b73a32b960611b606482015260840161024e565b6001600160e01b0319811663bc197c8160e01b14610a6c5760405162461bcd60e51b815260040161024e90611765565b6001600160a01b038316610c605760405162461bcd60e51b815260040161024e9061187f565b8051825114610c815760405162461bcd60e51b815260040161024e9061190c565b6000610c8b610aca565b604080516020810190915260009052905060005b8351811015610d8a576000848281518110610cca57634e487b7160e01b600052603260045260246000fd5b602002602001015190506000848381518110610cf657634e487b7160e01b600052603260045260246000fd5b602090810291909101810151600084815280835260408082206001600160a01b038c168352909352919091205490915081811015610d465760405162461bcd60e51b815260040161024e906117ad565b610d508282611990565b6000938452602084815260408086206001600160a01b038c1687529091529093209290925550819050610d8281611a0f565b915050610c9f565b5060006001600160a01b0316846001600160a01b0316826001600160a01b03167f4a39dc06d4c0dbc64b70af90fd698a233a518aa5d07e595d983b8c0526c8f7fb8686604051610ddb929190611724565b60405180910390a450505050565b6001600160a01b038416610e495760405162461bcd60e51b815260206004820152602160248201527f455243313135353a206d696e7420746f20746865207a65726f206164647265736044820152607360f81b606482015260840161024e565b6000610e53610aca565b9050610e658160008761097588610ef5565b6000848152602081815260408083206001600160a01b038916845290915281208054859290610e95908490611978565b909155505060408051858152602081018590526001600160a01b0380881692600092918516917fc3d58168c5ae7397731d063d5bbf3d657854427343f4c083240f7aacaa2d0f62910160405180910390a461097e81600087878787610f4e565b60408051600180825281830190925260609160009190602080830190803683370190505090508281600081518110610f3d57634e487b7160e01b600052603260045260246000fd5b602090810291909101015292915050565b6001600160a01b0384163b156106005760405163f23a6e6160e01b81526001600160a01b0385169063f23a6e6190610f9290899089908890889088906004016116cc565b602060405180830381600087803b158015610fac57600080fd5b505af1925050508015610fdc575060408051601f3d908101601f19168201909252610fd9918101906115b5565b60015b610fe857610b69611a56565b6001600160e01b0319811663f23a6e6160e01b14610a6c5760405162461bcd60e51b815260040161024e90611765565b6001600160a01b03831661103e5760405162461bcd60e51b815260040161024e9061187f565b6000611048610aca565b90506110798185600061105a87610ef5565b61106387610ef5565b5050604080516020810190915260009052505050565b6000838152602081815260408083206001600160a01b0388168452909152902054828110156110ba5760405162461bcd60e51b815260040161024e906117ad565b6110c48382611990565b6000858152602081815260408083206001600160a01b038a811680865291845282852095909555815189815292830188905292938616917fc3d58168c5ae7397731d063d5bbf3d657854427343f4c083240f7aacaa2d0f62910160405180910390a45050505050565b80356001600160a01b03811681146102cc57600080fd5b600082601f830112611154578081fd5b8135602061116182611954565b60405161116e82826119e2565b8381528281019150858301600585901b8701840188101561118d578586fd5b855b858110156111ab5781358452928401929084019060010161118f565b5090979650505050505050565b600082601f8301126111c8578081fd5b813567ffffffffffffffff8111156111e2576111e2611a40565b6040516111f9601f8301601f1916602001826119e2565b81815284602083860101111561120d578283fd5b816020850160208301379081016020019190915292915050565b60008060408385031215611239578182fd5b6112428361112d565b91506112506020840161112d565b90509250929050565b600080600080600060a08688031215611270578081fd5b6112798661112d565b94506112876020870161112d565b9350604086013567ffffffffffffffff808211156112a3578283fd5b6112af89838a01611144565b945060608801359150808211156112c4578283fd5b6112d089838a01611144565b935060808801359150808211156112e5578283fd5b506112f2888289016111b8565b9150509295509295909350565b600080600080600060a08688031215611316578081fd5b61131f8661112d565b945061132d6020870161112d565b93506040860135925060608601359150608086013567ffffffffffffffff811115611356578182fd5b6112f2888289016111b8565b600080600060608486031215611376578283fd5b61137f8461112d565b9250602084013567ffffffffffffffff8082111561139b578384fd5b6113a787838801611144565b935060408601359150808211156113bc578283fd5b506113c986828701611144565b9150509250925092565b600080604083850312156113e5578182fd5b6113ee8361112d565b915060208301358015158114611402578182fd5b809150509250929050565b6000806040838503121561141f578182fd5b6114288361112d565b946020939093013593505050565b60008060006060848603121561144a578283fd5b6114538461112d565b95602085013595506040909401359392505050565b6000806000806080858703121561147d578384fd5b6114868561112d565b93506020850135925060408501359150606085013567ffffffffffffffff8111156114af578182fd5b6114bb878288016111b8565b91505092959194509250565b600080604083850312156114d9578182fd5b823567ffffffffffffffff808211156114f0578384fd5b818501915085601f830112611503578384fd5b8135602061151082611954565b60405161151d82826119e2565b8381528281019150858301600585901b870184018b101561153c578889fd5b8896505b84871015611565576115518161112d565b835260019690960195918301918301611540565b509650508601359250508082111561157b578283fd5b5061158885828601611144565b9150509250929050565b6000602082840312156115a3578081fd5b81356115ae81611aff565b9392505050565b6000602082840312156115c6578081fd5b81516115ae81611aff565b6000602082840312156115e2578081fd5b5035919050565b6000815180845260208085019450808401835b83811015611618578151875295820195908201906001016115fc565b509495945050505050565b60008151808452815b818110156116485760208185018101518683018201520161162c565b818111156116595782602083870101525b50601f01601f19169290920160200192915050565b6001600160a01b0386811682528516602082015260a06040820181905260009061169a908301866115e9565b82810360608401526116ac81866115e9565b905082810360808401526116c08185611623565b98975050505050505050565b6001600160a01b03868116825285166020820152604081018490526060810183905260a06080820181905260009061170690830184611623565b979650505050505050565b6000602082526115ae60208301846115e9565b60006040825261173760408301856115e9565b828103602084015261174981856115e9565b95945050505050565b6000602082526115ae6020830184611623565b60208082526028908201527f455243313135353a204552433131353552656365697665722072656a656374656040820152676420746f6b656e7360c01b606082015260800190565b60208082526024908201527f455243313135353a206275726e20616d6f756e7420657863656564732062616c604082015263616e636560e01b606082015260800190565b60208082526029908201527f455243313135353a2063616c6c6572206973206e6f74206f776e6572206e6f7260408201526808185c1c1c9bdd995960ba1b606082015260800190565b60208082526025908201527f455243313135353a207472616e7366657220746f20746865207a65726f206164604082015264647265737360d81b606082015260800190565b60208082526023908201527f455243313135353a206275726e2066726f6d20746865207a65726f206164647260408201526265737360e81b606082015260800190565b6020808252602a908201527f455243313135353a20696e73756666696369656e742062616c616e636520666f60408201526939103a3930b739b332b960b11b606082015260800190565b60208082526028908201527f455243313135353a2069647320616e6420616d6f756e7473206c656e677468206040820152670dad2e6dac2e8c6d60c31b606082015260800190565b600067ffffffffffffffff82111561196e5761196e611a40565b5060051b60200190565b6000821982111561198b5761198b611a2a565b500190565b6000828210156119a2576119a2611a2a565b500390565b600181811c908216806119bb57607f821691505b602082108114156119dc57634e487b7160e01b600052602260045260246000fd5b50919050565b601f8201601f1916810167ffffffffffffffff81118282101715611a0857611a08611a40565b6040525050565b6000600019821415611a2357611a23611a2a565b5060010190565b634e487b7160e01b600052601160045260246000fd5b634e487b7160e01b600052604160045260246000fd5b600060033d1115610acc57600481823e5160e01c90565b600060443d1015611a7d57610acc565b6040516003193d81016004833e81513d67ffffffffffffffff8160248401118184111715611aaf575050505050610acc565b8285019150815181811115611ac957505050505050610acc565b843d8701016020828501011115611ae557505050505050610acc565b611af4602082860101876119e2565b509094505050505090565b6001600160e01b031981168114611b1557600080fd5b5056fea26469706673582212209633d1b23368c5bfc40778d8200b9ec9f09583622bec868e3c55cc5c376033f764736f6c63430008030033",
  "linkReferences": {},
  "deployedLinkReferences": {}
}