{
  "_format": "hh-sol-artifact-1",
  "contractName": "MathMock",
  "sourceName": "contracts/mocks/MathMock.sol",
  "abi": [
    {
      "inputs": [
        {
          "internalType": "uint256",
          "name": "a",
          "type": "uint256"
        },
        {
          "internalType": "uint256",
          "name": "b",
          "type": "uint256"
        }
      ],
      "name": "average",
      "outputs": [
        {
          "internalType": "uint256",
          "name": "",
          "type": "uint256"
        }
      ],
      "stateMutability": "pure",
      "type": "function"
    },
    {
      "inputs": [
        {
          "internalType": "uint256",
          "name": "a",
          "type": "uint256"
        },
        {
          "internalType": "uint256",
          "name": "b",
          "type": "uint256"
        }
      ],
      "name": "max",
      "outputs": [
        {
          "internalType": "uint256",
          "name": "",
          "type": "uint256"
        }
      ],
      "stateMutability": "pure",
      "type": "function"
    },
    {
      "inputs": [
        {
          "internalType": "uint256",
          "name": "a",
          "type": "uint256"
        },
        {
          "internalType": "uint256",
          "name": "b",
          "type": "uint256"
        }
      ],
      "name": "min",
      "outputs": [
        {
          "internalType": "uint256",
          "name": "",
          "type": "uint256"
        }
      ],
      "stateMutability": "pure",
      "type": "function"
    }
  ],
  "bytecode": "0x608060405234801561001057600080fd5b506101f2806100206000396000f3fe608060405234801561001057600080fd5b50600436106100415760003560e01c80632b7423ab146100465780636d5433e61461006b5780637ae2b5c71461007e575b600080fd5b610059610054366004610139565b610091565b60405190815260200160405180910390f35b610059610079366004610139565b6100a4565b61005961008c366004610139565b6100b0565b600061009d83836100bc565b9392505050565b600061009d8383610113565b600061009d838361012a565b600060026100ca8184610192565b6100d5600286610192565b6100df919061015a565b6100e9919061017e565b6100f460028461017e565b6100ff60028661017e565b610109919061015a565b61009d919061015a565b600081831015610123578161009d565b5090919050565b6000818310610123578161009d565b6000806040838503121561014b578182fd5b50508035926020909101359150565b6000821982111561017957634e487b7160e01b81526011600452602481fd5b500190565b60008261018d5761018d6101a6565b500490565b6000826101a1576101a16101a6565b500690565b634e487b7160e01b600052601260045260246000fdfea2646970667358221220a66489077fbb56b37ab54e853e7ff3d9c26c931f5f087b1a00070e02a790d0fc64736f6c63430008030033",
  "linkReferences": {},
  "deployedLinkReferences": {}
}