{
  "_format": "hh-sol-artifact-1",
  "contractName": "MulticallTest",
  "sourceName": "contracts/mocks/MulticallTest.sol",
  "abi": [
    {
      "inputs": [
        {
          "internalType": "contract MulticallTokenMock",
          "name": "multicallToken",
          "type": "address"
        },
        {
          "internalType": "address[]",
          "name": "recipients",
          "type": "address[]"
        },
        {
          "internalType": "uint256[]",
          "name": "amounts",
          "type": "uint256[]"
        }
      ],
      "name": "testReturnValues",
      "outputs": [],
      "stateMutability": "nonpayable",
      "type": "function"
    }
  ],
  "bytecode": "0x608060405234801561001057600080fd5b506105e9806100206000396000f3fe608060405234801561001057600080fd5b506004361061002b5760003560e01c8063bc548f7614610030575b600080fd5b61004361003e366004610404565b610045565b005b60008367ffffffffffffffff81111561006e57634e487b7160e01b600052604160045260246000fd5b6040519080825280602002602001820160405280156100a157816020015b606081526020019060019003908161008c5790505b50905060005b84811015610192578585828181106100cf57634e487b7160e01b600052603260045260246000fd5b90506020020160208101906100e491906102d0565b84848381811061010457634e487b7160e01b600052603260045260246000fd5b6040516001600160a01b039094166024850152602002919091013560448301525060640160408051601f198184030181529190526020810180516001600160e01b031663a9059cbb60e01b179052825183908390811061017457634e487b7160e01b600052603260045260246000fd5b6020026020010181905250808061018a9061055e565b9150506100a7565b50604051631592ca1b60e31b81526000906001600160a01b0388169063ac9650d8906101c2908590600401610484565b600060405180830381600087803b1580156101dc57600080fd5b505af11580156101f0573d6000803e3d6000fd5b505050506040513d6000823e601f3d908101601f1916820160405261021891908101906102f3565b905060005b815181101561027c5781818151811061024657634e487b7160e01b600052603260045260246000fd5b602002602001015180602001905181019061026191906103e4565b61026a57600080fd5b806102748161055e565b91505061021d565b5050505050505050565b60008083601f840112610297578182fd5b50813567ffffffffffffffff8111156102ae578182fd5b6020830191508360208260051b85010111156102c957600080fd5b9250929050565b6000602082840312156102e1578081fd5b81356102ec8161059b565b9392505050565b60006020808385031215610305578182fd5b825167ffffffffffffffff8082111561031c578384fd5b8185019150601f8681840112610330578485fd5b82518281111561034257610342610585565b610350858260051b016104fd565b81815285810190858701885b848110156103d457815188018c603f820112610376578a8bfd5b8981015160408982111561038c5761038c610585565b61039d828a01601f19168d016104fd565b8281528f828486010111156103b0578d8efd5b6103bf838e830184870161052e565b8752505050928801929088019060010161035c565b50909a9950505050505050505050565b6000602082840312156103f5578081fd5b815180151581146102ec578182fd5b60008060008060006060868803121561041b578081fd5b85356104268161059b565b9450602086013567ffffffffffffffff80821115610442578283fd5b61044e89838a01610286565b90965094506040880135915080821115610466578283fd5b5061047388828901610286565b969995985093965092949392505050565b6000602080830181845280855180835260408601915060408160051b8701019250838701855b828110156104f057878503603f19018452815180518087526104d1818989018a850161052e565b601f01601f1916959095018601945092850192908501906001016104aa565b5092979650505050505050565b604051601f8201601f1916810167ffffffffffffffff8111828210171561052657610526610585565b604052919050565b60005b83811015610549578181015183820152602001610531565b83811115610558576000848401525b50505050565b600060001982141561057e57634e487b7160e01b81526011600452602481fd5b5060010190565b634e487b7160e01b600052604160045260246000fd5b6001600160a01b03811681146105b057600080fd5b5056fea26469706673582212208e08b33354d9567b95a89420cac14f0a82e160c23cf868bf20a5d9364f6e86b564736f6c63430008030033",
  "linkReferences": {},
  "deployedLinkReferences": {}
}