{
  "_format": "hh-sol-artifact-1",
  "contractName": "EnumerableMapMock",
  "sourceName": "contracts/mocks/EnumerableMapMock.sol",
  "abi": [
    {
      "anonymous": false,
      "inputs": [
        {
          "indexed": false,
          "internalType": "bool",
          "name": "result",
          "type": "bool"
        }
      ],
      "name": "OperationResult",
      "type": "event"
    },
    {
      "inputs": [
        {
          "internalType": "uint256",
          "name": "index",
          "type": "uint256"
        }
      ],
      "name": "at",
      "outputs": [
        {
          "internalType": "uint256",
          "name": "key",
          "type": "uint256"
        },
        {
          "internalType": "address",
          "name": "value",
          "type": "address"
        }
      ],
      "stateMutability": "view",
      "type": "function"
    },
    {
      "inputs": [
        {
          "internalType": "uint256",
          "name": "key",
          "type": "uint256"
        }
      ],
      "name": "contains",
      "outputs": [
        {
          "internalType": "bool",
          "name": "",
          "type": "bool"
        }
      ],
      "stateMutability": "view",
      "type": "function"
    },
    {
      "inputs": [
        {
          "internalType": "uint256",
          "name": "key",
          "type": "uint256"
        }
      ],
      "name": "get",
      "outputs": [
        {
          "internalType": "address",
          "name": "",
          "type": "address"
        }
      ],
      "stateMutability": "view",
      "type": "function"
    },
    {
      "inputs": [
        {
          "internalType": "uint256",
          "name": "key",
          "type": "uint256"
        },
        {
          "internalType": "string",
          "name": "errorMessage",
          "type": "string"
        }
      ],
      "name": "getWithMessage",
      "outputs": [
        {
          "internalType": "address",
          "name": "",
          "type": "address"
        }
      ],
      "stateMutability": "view",
      "type": "function"
    },
    {
      "inputs": [],
      "name": "length",
      "outputs": [
        {
          "internalType": "uint256",
          "name": "",
          "type": "uint256"
        }
      ],
      "stateMutability": "view",
      "type": "function"
    },
    {
      "inputs": [
        {
          "internalType": "uint256",
          "name": "key",
          "type": "uint256"
        }
      ],
      "name": "remove",
      "outputs": [],
      "stateMutability": "nonpayable",
      "type": "function"
    },
    {
      "inputs": [
        {
          "internalType": "uint256",
          "name": "key",
          "type": "uint256"
        },
        {
          "internalType": "address",
          "name": "value",
          "type": "address"
        }
      ],
      "name": "set",
      "outputs": [],
      "stateMutability": "nonpayable",
      "type": "function"
    },
    {
      "inputs": [
        {
          "internalType": "uint256",
          "name": "key",
          "type": "uint256"
        }
      ],
      "name": "tryGet",
      "outputs": [
        {
          "internalType": "bool",
          "name": "",
          "type": "bool"
        },
        {
          "internalType": "address",
          "name": "",
          "type": "address"
        }
      ],
      "stateMutability": "view",
      "type": "function"
    }
  ],
  "bytecode": "0x608060405234801561001057600080fd5b5061087f806100206000396000f3fe608060405234801561001057600080fd5b50600436106100885760003560e01c80639507d39a1161005b5780639507d39a14610102578063c051a3a61461012d578063c34052e014610140578063e0886f901461016357610088565b80631f7b6d321461008d5780632f30c6f6146100a85780634cc82215146100bd578063871394d9146100d0575b600080fd5b610095610193565b6040519081526020015b60405180910390f35b6100bb6100b6366004610722565b6101a4565b005b6100bb6100cb36600461070a565b6101f3565b6100e36100de36600461070a565b610240565b6040805192151583526001600160a01b0390911660208301520161009f565b61011561011036600461070a565b610256565b6040516001600160a01b03909116815260200161009f565b61011561013b36600461075c565b610268565b61015361014e36600461070a565b6102b4565b604051901515815260200161009f565b61017661017136600461070a565b6102c0565b604080519283526001600160a01b0390911660208301520161009f565b600061019f60006102cd565b905090565b60006101b18184846102d8565b90507fed9840e0775590557ad736875d96c95cf1458b766335f74339951a32c82a9e33816040516101e6911515815260200190565b60405180910390a1505050565b60006101ff81836102ee565b90507fed9840e0775590557ad736875d96c95cf1458b766335f74339951a32c82a9e3381604051610234911515815260200190565b60405180910390a15050565b60008061024d8184610301565b91509150915091565b6000610262818361031f565b92915050565b60006102ac8484848080601f0160208091040260200160405190810160405280939291908181526020018383808284376000920182905250949392505061032b9050565b949350505050565b60006102628183610338565b60008061024d8184610344565b600061026282610353565b60006102ac84846001600160a01b03851661035e565b60006102fa838361037b565b9392505050565b60008080806103108686610398565b909450925050505b9250929050565b60006102fa83836103d2565b60006102ac848484610447565b60006102fa8383610493565b6000808080610310868661049f565b6000610262826104ca565b600082815260028401602052604081208290556102ac84846104d4565b600081815260028301602052604081208190556102fa83836104e0565b60008181526002830160205260408120548190806103c7576103ba8585610493565b9250600091506103189050565b600192509050610318565b6000818152600283016020526040812054801515806103f657506103f68484610493565b6102fa5760405162461bcd60e51b815260206004820152601e60248201527f456e756d657261626c654d61703a206e6f6e6578697374656e74206b6579000060448201526064015b60405180910390fd5b60008281526002840160205260408120548015158061046b575061046b8585610493565b839061048a5760405162461bcd60e51b815260040161043e91906107d3565b50949350505050565b60006102fa83836104ec565b600080806104ad8585610504565b600081815260029690960160205260409095205494959350505050565b6000610262825490565b60006102fa8383610510565b60006102fa838361055f565b600081815260018301602052604081205415156102fa565b60006102fa8383610676565b600081815260018301602052604081205461055757508154600181810184556000848152602080822090930184905584548482528286019093526040902091909155610262565b506000610262565b6000818152600183016020526040812054801561066c576000610583600183610826565b855490915060009061059790600190610826565b905060008660000182815481106105be57634e487b7160e01b600052603260045260246000fd5b90600052602060002001549050808760000184815481106105ef57634e487b7160e01b600052603260045260246000fd5b60009182526020808320909101929092558281526001890190915260409020849055865487908061063057634e487b7160e01b600052603160045260246000fd5b60019003818190600052602060002001600090559055866001016000878152602001908152602001600020600090556001945050505050610262565b6000915050610262565b815460009082106106d45760405162461bcd60e51b815260206004820152602260248201527f456e756d657261626c655365743a20696e646578206f7574206f6620626f756e604482015261647360f01b606482015260840161043e565b8260000182815481106106f757634e487b7160e01b600052603260045260246000fd5b9060005260206000200154905092915050565b60006020828403121561071b578081fd5b5035919050565b60008060408385031215610734578081fd5b8235915060208301356001600160a01b0381168114610751578182fd5b809150509250929050565b600080600060408486031215610770578081fd5b83359250602084013567ffffffffffffffff8082111561078e578283fd5b818601915086601f8301126107a1578283fd5b8135818111156107af578384fd5b8760208285010111156107c0578384fd5b6020830194508093505050509250925092565b6000602080835283518082850152825b818110156107ff578581018301518582016040015282016107e3565b818111156108105783604083870101525b50601f01601f1916929092016040019392505050565b60008282101561084457634e487b7160e01b81526011600452602481fd5b50039056fea264697066735822122082c1aee28ff20601d1ec739b3ad57bb246e3b23e37e6bf1096624540da4438a964736f6c63430008030033",
  "linkReferences": {},
  "deployedLinkReferences": {}
}