{
  "_format": "hh-sol-artifact-1",
  "contractName": "ERC721EnumerableMock",
  "sourceName": "contracts/mocks/ERC721EnumerableMock.sol",
  "abi": [
    {
      "inputs": [
        {
          "internalType": "string",
          "name": "name",
          "type": "string"
        },
        {
          "internalType": "string",
          "name": "symbol",
          "type": "string"
        }
      ],
      "stateMutability": "nonpayable",
      "type": "constructor"
    },
    {
      "anonymous": false,
      "inputs": [
        {
          "indexed": true,
          "internalType": "address",
          "name": "owner",
          "type": "address"
        },
        {
          "indexed": true,
          "internalType": "address",
          "name": "approved",
          "type": "address"
        },
        {
          "indexed": true,
          "internalType": "uint256",
          "name": "tokenId",
          "type": "uint256"
        }
      ],
      "name": "Approval",
      "type": "event"
    },
    {
      "anonymous": false,
      "inputs": [
        {
          "indexed": true,
          "internalType": "address",
          "name": "owner",
          "type": "address"
        },
        {
          "indexed": true,
          "internalType": "address",
          "name": "operator",
          "type": "address"
        },
        {
          "indexed": false,
          "internalType": "bool",
          "name": "approved",
          "type": "bool"
        }
      ],
      "name": "ApprovalForAll",
      "type": "event"
    },
    {
      "anonymous": false,
      "inputs": [
        {
          "indexed": true,
          "internalType": "address",
          "name": "from",
          "type": "address"
        },
        {
          "indexed": true,
          "internalType": "address",
          "name": "to",
          "type": "address"
        },
        {
          "indexed": true,
          "internalType": "uint256",
          "name": "tokenId",
          "type": "uint256"
        }
      ],
      "name": "Transfer",
      "type": "event"
    },
    {
      "inputs": [
        {
          "internalType": "address",
          "name": "to",
          "type": "address"
        },
        {
          "internalType": "uint256",
          "name": "tokenId",
          "type": "uint256"
        }
      ],
      "name": "approve",
      "outputs": [],
      "stateMutability": "nonpayable",
      "type": "function"
    },
    {
      "inputs": [
        {
          "internalType": "address",
          "name": "owner",
          "type": "address"
        }
      ],
      "name": "balanceOf",
      "outputs": [
        {
          "internalType": "uint256",
          "name": "",
          "type": "uint256"
        }
      ],
      "stateMutability": "view",
      "type": "function"
    },
    {
      "inputs": [],
      "name": "baseURI",
      "outputs": [
        {
          "internalType": "string",
          "name": "",
          "type": "string"
        }
      ],
      "stateMutability": "view",
      "type": "function"
    },
    {
      "inputs": [
        {
          "internalType": "uint256",
          "name": "tokenId",
          "type": "uint256"
        }
      ],
      "name": "burn",
      "outputs": [],
      "stateMutability": "nonpayable",
      "type": "function"
    },
    {
      "inputs": [
        {
          "internalType": "uint256",
          "name": "tokenId",
          "type": "uint256"
        }
      ],
      "name": "exists",
      "outputs": [
        {
          "internalType": "bool",
          "name": "",
          "type": "bool"
        }
      ],
      "stateMutability": "view",
      "type": "function"
    },
    {
      "inputs": [
        {
          "internalType": "uint256",
          "name": "tokenId",
          "type": "uint256"
        }
      ],
      "name": "getApproved",
      "outputs": [
        {
          "internalType": "address",
          "name": "",
          "type": "address"
        }
      ],
      "stateMutability": "view",
      "type": "function"
    },
    {
      "inputs": [
        {
          "internalType": "address",
          "name": "owner",
          "type": "address"
        },
        {
          "internalType": "address",
          "name": "operator",
          "type": "address"
        }
      ],
      "name": "isApprovedForAll",
      "outputs": [
        {
          "internalType": "bool",
          "name": "",
          "type": "bool"
        }
      ],
      "stateMutability": "view",
      "type": "function"
    },
    {
      "inputs": [
        {
          "internalType": "address",
          "name": "to",
          "type": "address"
        },
        {
          "internalType": "uint256",
          "name": "tokenId",
          "type": "uint256"
        }
      ],
      "name": "mint",
      "outputs": [],
      "stateMutability": "nonpayable",
      "type": "function"
    },
    {
      "inputs": [],
      "name": "name",
      "outputs": [
        {
          "internalType": "string",
          "name": "",
          "type": "string"
        }
      ],
      "stateMutability": "view",
      "type": "function"
    },
    {
      "inputs": [
        {
          "internalType": "uint256",
          "name": "tokenId",
          "type": "uint256"
        }
      ],
      "name": "ownerOf",
      "outputs": [
        {
          "internalType": "address",
          "name": "",
          "type": "address"
        }
      ],
      "stateMutability": "view",
      "type": "function"
    },
    {
      "inputs": [
        {
          "internalType": "address",
          "name": "to",
          "type": "address"
        },
        {
          "internalType": "uint256",
          "name": "tokenId",
          "type": "uint256"
        },
        {
          "internalType": "bytes",
          "name": "_data",
          "type": "bytes"
        }
      ],
      "name": "safeMint",
      "outputs": [],
      "stateMutability": "nonpayable",
      "type": "function"
    },
    {
      "inputs": [
        {
          "internalType": "address",
          "name": "to",
          "type": "address"
        },
        {
          "internalType": "uint256",
          "name": "tokenId",
          "type": "uint256"
        }
      ],
      "name": "safeMint",
      "outputs": [],
      "stateMutability": "nonpayable",
      "type": "function"
    },
    {
      "inputs": [
        {
          "internalType": "address",
          "name": "from",
          "type": "address"
        },
        {
          "internalType": "address",
          "name": "to",
          "type": "address"
        },
        {
          "internalType": "uint256",
          "name": "tokenId",
          "type": "uint256"
        }
      ],
      "name": "safeTransferFrom",
      "outputs": [],
      "stateMutability": "nonpayable",
      "type": "function"
    },
    {
      "inputs": [
        {
          "internalType": "address",
          "name": "from",
          "type": "address"
        },
        {
          "internalType": "address",
          "name": "to",
          "type": "address"
        },
        {
          "internalType": "uint256",
          "name": "tokenId",
          "type": "uint256"
        },
        {
          "internalType": "bytes",
          "name": "_data",
          "type": "bytes"
        }
      ],
      "name": "safeTransferFrom",
      "outputs": [],
      "stateMutability": "nonpayable",
      "type": "function"
    },
    {
      "inputs": [
        {
          "internalType": "address",
          "name": "operator",
          "type": "address"
        },
        {
          "internalType": "bool",
          "name": "approved",
          "type": "bool"
        }
      ],
      "name": "setApprovalForAll",
      "outputs": [],
      "stateMutability": "nonpayable",
      "type": "function"
    },
    {
      "inputs": [
        {
          "internalType": "string",
          "name": "newBaseTokenURI",
          "type": "string"
        }
      ],
      "name": "setBaseURI",
      "outputs": [],
      "stateMutability": "nonpayable",
      "type": "function"
    },
    {
      "inputs": [
        {
          "internalType": "bytes4",
          "name": "interfaceId",
          "type": "bytes4"
        }
      ],
      "name": "supportsInterface",
      "outputs": [
        {
          "internalType": "bool",
          "name": "",
          "type": "bool"
        }
      ],
      "stateMutability": "view",
      "type": "function"
    },
    {
      "inputs": [],
      "name": "symbol",
      "outputs": [
        {
          "internalType": "string",
          "name": "",
          "type": "string"
        }
      ],
      "stateMutability": "view",
      "type": "function"
    },
    {
      "inputs": [
        {
          "internalType": "uint256",
          "name": "index",
          "type": "uint256"
        }
      ],
      "name": "tokenByIndex",
      "outputs": [
        {
          "internalType": "uint256",
          "name": "",
          "type": "uint256"
        }
      ],
      "stateMutability": "view",
      "type": "function"
    },
    {
      "inputs": [
        {
          "internalType": "address",
          "name": "owner",
          "type": "address"
        },
        {
          "internalType": "uint256",
          "name": "index",
          "type": "uint256"
        }
      ],
      "name": "tokenOfOwnerByIndex",
      "outputs": [
        {
          "internalType": "uint256",
          "name": "",
          "type": "uint256"
        }
      ],
      "stateMutability": "view",
      "type": "function"
    },
    {
      "inputs": [
        {
          "internalType": "uint256",
          "name": "tokenId",
          "type": "uint256"
        }
      ],
      "name": "tokenURI",
      "outputs": [
        {
          "internalType": "string",
          "name": "",
          "type": "string"
        }
      ],
      "stateMutability": "view",
      "type": "function"
    },
    {
      "inputs": [],
      "name": "totalSupply",
      "outputs": [
        {
          "internalType": "uint256",
          "name": "",
          "type": "uint256"
        }
      ],
      "stateMutability": "view",
      "type": "function"
    },
    {
      "inputs": [
        {
          "internalType": "address",
          "name": "from",
          "type": "address"
        },
        {
          "internalType": "address",
          "name": "to",
          "type": "address"
        },
        {
          "internalType": "uint256",
          "name": "tokenId",
          "type": "uint256"
        }
      ],
      "name": "transferFrom",
      "outputs": [],
      "stateMutability": "nonpayable",
      "type": "function"
    }
  ],
  "bytecode": "0x60806040523480156200001157600080fd5b5060405162001df938038062001df98339810160408190526200003491620001c7565b8151829082906200004d9060009060208501906200006e565b508051620000639060019060208401906200006e565b505050505062000281565b8280546200007c906200022e565b90600052602060002090601f016020900481019282620000a05760008555620000eb565b82601f10620000bb57805160ff1916838001178555620000eb565b82800160010185558215620000eb579182015b82811115620000eb578251825591602001919060010190620000ce565b50620000f9929150620000fd565b5090565b5b80821115620000f95760008155600101620000fe565b600082601f83011262000125578081fd5b81516001600160401b03808211156200014257620001426200026b565b604051601f8301601f19908116603f011681019082821181831017156200016d576200016d6200026b565b8160405283815260209250868385880101111562000189578485fd5b8491505b83821015620001ac57858201830151818301840152908201906200018d565b83821115620001bd57848385830101525b9695505050505050565b60008060408385031215620001da578182fd5b82516001600160401b0380821115620001f1578384fd5b620001ff8683870162000114565b9350602085015191508082111562000215578283fd5b50620002248582860162000114565b9150509250929050565b600181811c908216806200024357607f821691505b602082108114156200026557634e487b7160e01b600052602260045260246000fd5b50919050565b634e487b7160e01b600052604160045260246000fd5b611b6880620002916000396000f3fe608060405234801561001057600080fd5b506004361061014d5760003560e01c80634f6ccce7116100c357806395d89b411161007c57806395d89b41146102ba578063a1448194146102c2578063a22cb465146102d5578063b88d4fde146102e8578063c87b56dd146102fb578063e985e9c51461030e5761014d565b80634f6ccce71461025357806355f804b3146102665780636352211e146102795780636c0360eb1461028c57806370a08231146102945780638832e6e3146102a75761014d565b806323b872dd1161011557806323b872dd146101e15780632f745c59146101f457806340c10f191461020757806342842e0e1461021a57806342966c681461022d5780634f558e79146102405761014d565b806301ffc9a71461015257806306fdde031461017a578063081812fc1461018f578063095ea7b3146101ba57806318160ddd146101cf575b600080fd5b6101656101603660046117f6565b61034a565b60405190151581526020015b60405180910390f35b610182610377565b604051610171919061194b565b6101a261019d36600461189b565b610409565b6040516001600160a01b039091168152602001610171565b6101cd6101c8366004611778565b6104a3565b005b6008545b604051908152602001610171565b6101cd6101ef36600461169d565b6105b9565b6101d3610202366004611778565b6105ea565b6101cd610215366004611778565b610680565b6101cd61022836600461169d565b61068e565b6101cd61023b36600461189b565b6106a9565b61016561024e36600461189b565b6106b5565b6101d361026136600461189b565b6106d4565b6101cd61027436600461182e565b610775565b6101a261028736600461189b565b610781565b6101826107f8565b6101d36102a2366004611651565b610807565b6101cd6102b53660046117a1565b61088e565b610182610899565b6101cd6102d0366004611778565b6108a8565b6101cd6102e336600461173e565b6108b2565b6101cd6102f63660046116d8565b610984565b61018261030936600461189b565b6109bc565b61016561031c36600461166b565b6001600160a01b03918216600090815260056020908152604080832093909416825291909152205460ff1690565b60006001600160e01b0319821663780e9d6360e01b148061036f575061036f82610a97565b90505b919050565b60606000805461038690611a70565b80601f01602080910402602001604051908101604052809291908181526020018280546103b290611a70565b80156103ff5780601f106103d4576101008083540402835291602001916103ff565b820191906000526020600020905b8154815290600101906020018083116103e257829003601f168201915b5050505050905090565b6000818152600260205260408120546001600160a01b03166104875760405162461bcd60e51b815260206004820152602c60248201527f4552433732313a20617070726f76656420717565727920666f72206e6f6e657860448201526b34b9ba32b73a103a37b5b2b760a11b60648201526084015b60405180910390fd5b506000908152600460205260409020546001600160a01b031690565b60006104ae82610781565b9050806001600160a01b0316836001600160a01b0316141561051c5760405162461bcd60e51b815260206004820152602160248201527f4552433732313a20617070726f76616c20746f2063757272656e74206f776e656044820152603960f91b606482015260840161047e565b336001600160a01b03821614806105385750610538813361031c565b6105aa5760405162461bcd60e51b815260206004820152603860248201527f4552433732313a20617070726f76652063616c6c6572206973206e6f74206f7760448201527f6e6572206e6f7220617070726f76656420666f7220616c6c0000000000000000606482015260840161047e565b6105b48383610ae7565b505050565b6105c33382610b55565b6105df5760405162461bcd60e51b815260040161047e906119b0565b6105b4838383610c4c565b60006105f583610807565b82106106575760405162461bcd60e51b815260206004820152602b60248201527f455243373231456e756d657261626c653a206f776e657220696e646578206f7560448201526a74206f6620626f756e647360a81b606482015260840161047e565b506001600160a01b03919091166000908152600660209081526040808320938352929052205490565b61068a8282610df7565b5050565b6105b483838360405180602001604052806000815250610984565b6106b281610f45565b50565b6000818152600260205260408120546001600160a01b0316151561036f565b60006106df60085490565b82106107425760405162461bcd60e51b815260206004820152602c60248201527f455243373231456e756d657261626c653a20676c6f62616c20696e646578206f60448201526b7574206f6620626f756e647360a01b606482015260840161047e565b6008828154811061076357634e487b7160e01b600052603260045260246000fd5b90600052602060002001549050919050565b6105b4600a838361151a565b6000818152600260205260408120546001600160a01b03168061036f5760405162461bcd60e51b815260206004820152602960248201527f4552433732313a206f776e657220717565727920666f72206e6f6e657869737460448201526832b73a103a37b5b2b760b91b606482015260840161047e565b6060610802610fec565b905090565b60006001600160a01b0382166108725760405162461bcd60e51b815260206004820152602a60248201527f4552433732313a2062616c616e636520717565727920666f7220746865207a65604482015269726f206164647265737360b01b606482015260840161047e565b506001600160a01b031660009081526003602052604090205490565b6105b4838383610ffb565b60606001805461038690611a70565b61068a828261102e565b6001600160a01b03821633141561090b5760405162461bcd60e51b815260206004820152601960248201527f4552433732313a20617070726f766520746f2063616c6c657200000000000000604482015260640161047e565b3360008181526005602090815260408083206001600160a01b0387168085529252909120805460ff1916841515179055906001600160a01b03167f17307eab39ab6107e8899845ad3d59bd9653f200f220920489ca2b5937696c3183604051610978911515815260200190565b60405180910390a35050565b61098e3383610b55565b6109aa5760405162461bcd60e51b815260040161047e906119b0565b6109b684848484611048565b50505050565b6000818152600260205260409020546060906001600160a01b0316610a3b5760405162461bcd60e51b815260206004820152602f60248201527f4552433732314d657461646174613a2055524920717565727920666f72206e6f60448201526e3732bc34b9ba32b73a103a37b5b2b760891b606482015260840161047e565b6000610a45610fec565b90506000815111610a655760405180602001604052806000815250610a90565b80610a6f8461107b565b604051602001610a809291906118df565b6040516020818303038152906040525b9392505050565b60006001600160e01b031982166380ac58cd60e01b1480610ac857506001600160e01b03198216635b5e139f60e01b145b8061036f57506301ffc9a760e01b6001600160e01b031983161461036f565b600081815260046020526040902080546001600160a01b0319166001600160a01b0384169081179091558190610b1c82610781565b6001600160a01b03167f8c5be1e5ebec7d5bd14f71427d1e84f3dd0314c0f7b2291e5b200ac8c7c3b92560405160405180910390a45050565b6000818152600260205260408120546001600160a01b0316610bce5760405162461bcd60e51b815260206004820152602c60248201527f4552433732313a206f70657261746f7220717565727920666f72206e6f6e657860448201526b34b9ba32b73a103a37b5b2b760a11b606482015260840161047e565b6000610bd983610781565b9050806001600160a01b0316846001600160a01b03161480610c145750836001600160a01b0316610c0984610409565b6001600160a01b0316145b80610c4457506001600160a01b0380821660009081526005602090815260408083209388168352929052205460ff165b949350505050565b826001600160a01b0316610c5f82610781565b6001600160a01b031614610cc75760405162461bcd60e51b815260206004820152602960248201527f4552433732313a207472616e73666572206f6620746f6b656e2074686174206960448201526839903737ba1037bbb760b91b606482015260840161047e565b6001600160a01b038216610d295760405162461bcd60e51b8152602060048201526024808201527f4552433732313a207472616e7366657220746f20746865207a65726f206164646044820152637265737360e01b606482015260840161047e565b610d34838383611196565b610d3f600082610ae7565b6001600160a01b0383166000908152600360205260408120805460019290610d68908490611a2d565b90915550506001600160a01b0382166000908152600360205260408120805460019290610d96908490611a01565b909155505060008181526002602052604080822080546001600160a01b0319166001600160a01b0386811691821790925591518493918716917fddf252ad1be2c89b69c2b068fc378daa952ba7f163c4a11628f55a4df523b3ef91a4505050565b6001600160a01b038216610e4d5760405162461bcd60e51b815260206004820181905260248201527f4552433732313a206d696e7420746f20746865207a65726f2061646472657373604482015260640161047e565b6000818152600260205260409020546001600160a01b031615610eb25760405162461bcd60e51b815260206004820152601c60248201527f4552433732313a20746f6b656e20616c7265616479206d696e74656400000000604482015260640161047e565b610ebe60008383611196565b6001600160a01b0382166000908152600360205260408120805460019290610ee7908490611a01565b909155505060008181526002602052604080822080546001600160a01b0319166001600160a01b03861690811790915590518392907fddf252ad1be2c89b69c2b068fc378daa952ba7f163c4a11628f55a4df523b3ef908290a45050565b6000610f5082610781565b9050610f5e81600084611196565b610f69600083610ae7565b6001600160a01b0381166000908152600360205260408120805460019290610f92908490611a2d565b909155505060008281526002602052604080822080546001600160a01b0319169055518391906001600160a01b038416907fddf252ad1be2c89b69c2b068fc378daa952ba7f163c4a11628f55a4df523b3ef908390a45050565b6060600a805461038690611a70565b6110058383610df7565b6110126000848484611253565b6105b45760405162461bcd60e51b815260040161047e9061195e565b61068a828260405180602001604052806000815250610ffb565b611053848484610c4c565b61105f84848484611253565b6109b65760405162461bcd60e51b815260040161047e9061195e565b6060816110a057506040805180820190915260018152600360fc1b6020820152610372565b8160005b81156110ca57806110b481611aab565b91506110c39050600a83611a19565b91506110a4565b60008167ffffffffffffffff8111156110f357634e487b7160e01b600052604160045260246000fd5b6040519080825280601f01601f19166020018201604052801561111d576020820181803683370190505b5090505b8415610c4457611132600183611a2d565b915061113f600a86611ac6565b61114a906030611a01565b60f81b81838151811061116d57634e487b7160e01b600052603260045260246000fd5b60200101906001600160f81b031916908160001a90535061118f600a86611a19565b9450611121565b6001600160a01b0383166111f1576111ec81600880546000838152600960205260408120829055600182018355919091527ff3f7a9fe364faab93b216da50a3214154f22a0a2b415b23a84c8169e8b636ee30155565b611214565b816001600160a01b0316836001600160a01b031614611214576112148382611360565b6001600160a01b0382166112305761122b816113fd565b6105b4565b826001600160a01b0316826001600160a01b0316146105b4576105b482826114d6565b60006001600160a01b0384163b1561135557604051630a85bd0160e11b81526001600160a01b0385169063150b7a029061129790339089908890889060040161190e565b602060405180830381600087803b1580156112b157600080fd5b505af19250505080156112e1575060408051601f3d908101601f191682019092526112de91810190611812565b60015b61133b573d80801561130f576040519150601f19603f3d011682016040523d82523d6000602084013e611314565b606091505b5080516113335760405162461bcd60e51b815260040161047e9061195e565b805181602001fd5b6001600160e01b031916630a85bd0160e11b149050610c44565b506001949350505050565b6000600161136d84610807565b6113779190611a2d565b6000838152600760205260409020549091508082146113ca576001600160a01b03841660009081526006602090815260408083208584528252808320548484528184208190558352600790915290208190555b5060009182526007602090815260408084208490556001600160a01b039094168352600681528383209183525290812055565b60085460009061140f90600190611a2d565b6000838152600960205260408120546008805493945090928490811061144557634e487b7160e01b600052603260045260246000fd5b90600052602060002001549050806008838154811061147457634e487b7160e01b600052603260045260246000fd5b60009182526020808320909101929092558281526009909152604080822084905585825281205560088054806114ba57634e487b7160e01b600052603160045260246000fd5b6001900381819060005260206000200160009055905550505050565b60006114e183610807565b6001600160a01b039093166000908152600660209081526040808320868452825280832085905593825260079052919091209190915550565b82805461152690611a70565b90600052602060002090601f016020900481019282611548576000855561158e565b82601f106115615782800160ff1982351617855561158e565b8280016001018555821561158e579182015b8281111561158e578235825591602001919060010190611573565b5061159a92915061159e565b5090565b5b8082111561159a576000815560010161159f565b80356001600160a01b038116811461037257600080fd5b600082601f8301126115da578081fd5b813567ffffffffffffffff808211156115f5576115f5611b06565b604051601f8301601f19908116603f0116810190828211818310171561161d5761161d611b06565b81604052838152866020858801011115611635578485fd5b8360208701602083013792830160200193909352509392505050565b600060208284031215611662578081fd5b610a90826115b3565b6000806040838503121561167d578081fd5b611686836115b3565b9150611694602084016115b3565b90509250929050565b6000806000606084860312156116b1578081fd5b6116ba846115b3565b92506116c8602085016115b3565b9150604084013590509250925092565b600080600080608085870312156116ed578081fd5b6116f6856115b3565b9350611704602086016115b3565b925060408501359150606085013567ffffffffffffffff811115611726578182fd5b611732878288016115ca565b91505092959194509250565b60008060408385031215611750578182fd5b611759836115b3565b91506020830135801515811461176d578182fd5b809150509250929050565b6000806040838503121561178a578182fd5b611793836115b3565b946020939093013593505050565b6000806000606084860312156117b5578283fd5b6117be846115b3565b925060208401359150604084013567ffffffffffffffff8111156117e0578182fd5b6117ec868287016115ca565b9150509250925092565b600060208284031215611807578081fd5b8135610a9081611b1c565b600060208284031215611823578081fd5b8151610a9081611b1c565b60008060208385031215611840578182fd5b823567ffffffffffffffff80821115611857578384fd5b818501915085601f83011261186a578384fd5b813581811115611878578485fd5b866020828501011115611889578485fd5b60209290920196919550909350505050565b6000602082840312156118ac578081fd5b5035919050565b600081518084526118cb816020860160208601611a44565b601f01601f19169290920160200192915050565b600083516118f1818460208801611a44565b835190830190611905818360208801611a44565b01949350505050565b6001600160a01b0385811682528416602082015260408101839052608060608201819052600090611941908301846118b3565b9695505050505050565b600060208252610a9060208301846118b3565b60208082526032908201527f4552433732313a207472616e7366657220746f206e6f6e20455243373231526560408201527131b2b4bb32b91034b6b83632b6b2b73a32b960711b606082015260800190565b60208082526031908201527f4552433732313a207472616e736665722063616c6c6572206973206e6f74206f6040820152701ddb995c881b9bdc88185c1c1c9bdd9959607a1b606082015260800190565b60008219821115611a1457611a14611ada565b500190565b600082611a2857611a28611af0565b500490565b600082821015611a3f57611a3f611ada565b500390565b60005b83811015611a5f578181015183820152602001611a47565b838111156109b65750506000910152565b600181811c90821680611a8457607f821691505b60208210811415611aa557634e487b7160e01b600052602260045260246000fd5b50919050565b6000600019821415611abf57611abf611ada565b5060010190565b600082611ad557611ad5611af0565b500690565b634e487b7160e01b600052601160045260246000fd5b634e487b7160e01b600052601260045260246000fd5b634e487b7160e01b600052604160045260246000fd5b6001600160e01b0319811681146106b257600080fdfea2646970667358221220fa070e344fa6e55455b0c6f76048fa749f41dc46d5588cca463d2b4126d0e35764736f6c63430008030033",
  "linkReferences": {},
  "deployedLinkReferences": {}
}