{
  "_format": "hh-sol-artifact-1",
  "contractName": "MerkleProofWrapper",
  "sourceName": "contracts/mocks/MerkleProofWrapper.sol",
  "abi": [
    {
      "inputs": [
        {
          "internalType": "bytes32[]",
          "name": "proof",
          "type": "bytes32[]"
        },
        {
          "internalType": "bytes32",
          "name": "root",
          "type": "bytes32"
        },
        {
          "internalType": "bytes32",
          "name": "leaf",
          "type": "bytes32"
        }
      ],
      "name": "verify",
      "outputs": [
        {
          "internalType": "bool",
          "name": "",
          "type": "bool"
        }
      ],
      "stateMutability": "pure",
      "type": "function"
    }
  ],
  "bytecode": "0x608060405234801561001057600080fd5b5061026c806100206000396000f3fe608060405234801561001057600080fd5b506004361061002b5760003560e01c80635a9a49c714610030575b600080fd5b61004361003e366004610129565b610057565b604051901515815260200160405180910390f35b600061006484848461006c565b949350505050565b600081815b855181101561011e57600086828151811061009c57634e487b7160e01b600052603260045260246000fd5b602002602001015190508083116100de57604080516020810185905290810182905260600160405160208183030381529060405280519060200120925061010b565b60408051602081018390529081018490526060016040516020818303038152906040528051906020012092505b5080610116816101f9565b915050610071565b509092149392505050565b60008060006060848603121561013d578283fd5b833567ffffffffffffffff80821115610154578485fd5b818601915086601f830112610167578485fd5b813560208282111561017b5761017b610220565b8160051b604051601f19603f830116810181811086821117156101a0576101a0610220565b604052838152828101945085830182870184018c10156101be57898afd5b8996505b848710156101e05780358652600196909601959483019483016101c2565b509a918901359950506040909701359695505050505050565b600060001982141561021957634e487b7160e01b81526011600452602481fd5b5060010190565b634e487b7160e01b600052604160045260246000fdfea26469706673582212200de1f543d7677a9b4184aa640d89149a57320823cc03fed0d9cf45e4420070d264736f6c63430008030033",
  "linkReferences": {},
  "deployedLinkReferences": {}
}