{
  "_format": "hh-sol-artifact-1",
  "contractName": "ERC2771ContextMock",
  "sourceName": "contracts/mocks/ERC2771ContextMock.sol",
  "abi": [
    {
      "inputs": [
        {
          "internalType": "address",
          "name": "trustedForwarder",
          "type": "address"
        }
      ],
      "stateMutability": "nonpayable",
      "type": "constructor"
    },
    {
      "anonymous": false,
      "inputs": [
        {
          "indexed": false,
          "internalType": "bytes",
          "name": "data",
          "type": "bytes"
        },
        {
          "indexed": false,
          "internalType": "uint256",
          "name": "integerValue",
          "type": "uint256"
        },
        {
          "indexed": false,
          "internalType": "string",
          "name": "stringValue",
          "type": "string"
        }
      ],
      "name": "Data",
      "type": "event"
    },
    {
      "anonymous": false,
      "inputs": [
        {
          "indexed": false,
          "internalType": "address",
          "name": "sender",
          "type": "address"
        }
      ],
      "name": "Sender",
      "type": "event"
    },
    {
      "inputs": [
        {
          "internalType": "address",
          "name": "forwarder",
          "type": "address"
        }
      ],
      "name": "isTrustedForwarder",
      "outputs": [
        {
          "internalType": "bool",
          "name": "",
          "type": "bool"
        }
      ],
      "stateMutability": "view",
      "type": "function"
    },
    {
      "inputs": [
        {
          "internalType": "uint256",
          "name": "integerValue",
          "type": "uint256"
        },
        {
          "internalType": "string",
          "name": "stringValue",
          "type": "string"
        }
      ],
      "name": "msgData",
      "outputs": [],
      "stateMutability": "nonpayable",
      "type": "function"
    },
    {
      "inputs": [],
      "name": "msgSender",
      "outputs": [],
      "stateMutability": "nonpayable",
      "type": "function"
    }
  ],
  "bytecode": "0x60a060405234801561001057600080fd5b5060405161046038038061046083398101604081905261002f91610044565b60601b6001600160601b031916608052610072565b600060208284031215610055578081fd5b81516001600160a01b038116811461006b578182fd5b9392505050565b60805160601c6103d161008f600039600060d301526103d16000f3fe608060405234801561001057600080fd5b50600436106100415760003560e01c8063376bf26214610046578063572b6c051461005b578063d737d0c714610082575b600080fd5b6100596100543660046101ff565b61008a565b005b61006e6100693660046101d1565b6100d1565b604051901515815260200160405180910390f35b610059610103565b7faf235354a0a47c91ee171961326335cb2d1a8e55b8a89859b0e61eb049e50ea06100b3610149565b84846040516100c594939291906102b5565b60405180910390a15050565b7f00000000000000000000000000000000000000000000000000000000000000006001600160a01b0390811691161490565b7fd6558c3ed910d959271054471fd1c326679d9fece99c5091b00ed89627cf2bfc61012c61015d565b6040516001600160a01b03909116815260200160405180910390a1565b36600061015461016d565b915091505b9091565b60006101676101ab565b90505b90565b366000610179336100d1565b156101a3576000803661018d601482610362565b9261019a9392919061033a565b91509150610159565b60003661019a565b60006101b6336100d1565b156101ca575060131936013560601c61016a565b503361016a565b6000602082840312156101e2578081fd5b81356001600160a01b03811681146101f8578182fd5b9392505050565b60008060408385031215610211578081fd5b82359150602083013567ffffffffffffffff8082111561022f578283fd5b818501915085601f830112610242578283fd5b81358181111561025457610254610385565b604051601f8201601f19908116603f0116810190838211818310171561027c5761027c610385565b81604052828152886020848701011115610294578586fd5b82602086016020830137856020848301015280955050505050509250929050565b600060608252846060830152848660808401378060808684010152601f1980601f87011683016020868186015260808583030160408601528551806080840152845b818110156103135787810183015184820160a0015282016102f7565b81811115610324578560a083860101525b50601f019092160160a001979650505050505050565b60008085851115610349578182fd5b83861115610355578182fd5b5050820193919092039150565b60008282101561038057634e487b7160e01b81526011600452602481fd5b500390565b634e487b7160e01b600052604160045260246000fdfea26469706673582212206408c7cca4a6a8d04951905fc4485c18caf7306b457b3004cb210904fcc9194664736f6c63430008030033",
  "linkReferences": {},
  "deployedLinkReferences": {}
}