{
  "_format": "hh-sol-artifact-1",
  "contractName": "StringsMock",
  "sourceName": "contracts/mocks/StringsMock.sol",
  "abi": [
    {
      "inputs": [
        {
          "internalType": "uint256",
          "name": "value",
          "type": "uint256"
        }
      ],
      "name": "fromUint256",
      "outputs": [
        {
          "internalType": "string",
          "name": "",
          "type": "string"
        }
      ],
      "stateMutability": "pure",
      "type": "function"
    },
    {
      "inputs": [
        {
          "internalType": "uint256",
          "name": "value",
          "type": "uint256"
        }
      ],
      "name": "fromUint256Hex",
      "outputs": [
        {
          "internalType": "string",
          "name": "",
          "type": "string"
        }
      ],
      "stateMutability": "pure",
      "type": "function"
    },
    {
      "inputs": [
        {
          "internalType": "uint256",
          "name": "value",
          "type": "uint256"
        },
        {
          "internalType": "uint256",
          "name": "length",
          "type": "uint256"
        }
      ],
      "name": "fromUint256HexFixed",
      "outputs": [
        {
          "internalType": "string",
          "name": "",
          "type": "string"
        }
      ],
      "stateMutability": "pure",
      "type": "function"
    }
  ],
  "bytecode": "0x608060405234801561001057600080fd5b506105ba806100206000396000f3fe608060405234801561001057600080fd5b50600436106100415760003560e01c806302c5b75f1461004657806392b0ed1a1461006f578063a2bd364414610082575b600080fd5b610059610054366004610424565b610095565b604051610066919061045d565b60405180910390f35b61005961007d36600461043c565b6100a8565b610059610090366004610424565b6100bb565b60606100a0826100c6565b90505b919050565b60606100b48383610123565b9392505050565b60606100a082610309565b6060816100ee57506040805180820190915260048152630307830360e41b60208201526100a3565b8160005b8115610111578061010281610529565b915050600882901c91506100f2565b61011b8482610123565b949350505050565b606060006101328360026104dc565b61013d9060026104b0565b67ffffffffffffffff81111561016357634e487b7160e01b600052604160045260246000fd5b6040519080825280601f01601f19166020018201604052801561018d576020820181803683370190505b509050600360fc1b816000815181106101b657634e487b7160e01b600052603260045260246000fd5b60200101906001600160f81b031916908160001a905350600f60fb1b816001815181106101f357634e487b7160e01b600052603260045260246000fd5b60200101906001600160f81b031916908160001a90535060006102178460026104dc565b6102229060016104b0565b90505b60018111156102b6576f181899199a1a9b1b9c1cb0b131b232b360811b85600f166010811061026457634e487b7160e01b600052603260045260246000fd5b1a60f81b82828151811061028857634e487b7160e01b600052603260045260246000fd5b60200101906001600160f81b031916908160001a90535060049490941c936102af81610512565b9050610225565b5083156100b45760405162461bcd60e51b815260206004820181905260248201527f537472696e67733a20686578206c656e67746820696e73756666696369656e74604482015260640160405180910390fd5b60608161032e57506040805180820190915260018152600360fc1b60208201526100a3565b8160005b8115610358578061034281610529565b91506103519050600a836104c8565b9150610332565b60008167ffffffffffffffff81111561038157634e487b7160e01b600052604160045260246000fd5b6040519080825280601f01601f1916602001820160405280156103ab576020820181803683370190505b5090505b841561011b576103c06001836104fb565b91506103cd600a86610544565b6103d89060306104b0565b60f81b8183815181106103fb57634e487b7160e01b600052603260045260246000fd5b60200101906001600160f81b031916908160001a90535061041d600a866104c8565b94506103af565b600060208284031215610435578081fd5b5035919050565b6000806040838503121561044e578081fd5b50508035926020909101359150565b6000602080835283518082850152825b818110156104895785810183015185820160400152820161046d565b8181111561049a5783604083870101525b50601f01601f1916929092016040019392505050565b600082198211156104c3576104c3610558565b500190565b6000826104d7576104d761056e565b500490565b60008160001904831182151516156104f6576104f6610558565b500290565b60008282101561050d5761050d610558565b500390565b60008161052157610521610558565b506000190190565b600060001982141561053d5761053d610558565b5060010190565b6000826105535761055361056e565b500690565b634e487b7160e01b600052601160045260246000fd5b634e487b7160e01b600052601260045260246000fdfea264697066735822122054444c1a31c2ff019adcea519c0c7aa318265f4b7d5da189622e5e74fa8413a664736f6c63430008030033",
  "linkReferences": {},
  "deployedLinkReferences": {}
}