{
  "_format": "hh-sol-artifact-1",
  "contractName": "ERC721URIStorageMock",
  "sourceName": "contracts/mocks/ERC721URIStorageMock.sol",
  "abi": [
    {
      "inputs": [
        {
          "internalType": "string",
          "name": "name",
          "type": "string"
        },
        {
          "internalType": "string",
          "name": "symbol",
          "type": "string"
        }
      ],
      "stateMutability": "nonpayable",
      "type": "constructor"
    },
    {
      "anonymous": false,
      "inputs": [
        {
          "indexed": true,
          "internalType": "address",
          "name": "owner",
          "type": "address"
        },
        {
          "indexed": true,
          "internalType": "address",
          "name": "approved",
          "type": "address"
        },
        {
          "indexed": true,
          "internalType": "uint256",
          "name": "tokenId",
          "type": "uint256"
        }
      ],
      "name": "Approval",
      "type": "event"
    },
    {
      "anonymous": false,
      "inputs": [
        {
          "indexed": true,
          "internalType": "address",
          "name": "owner",
          "type": "address"
        },
        {
          "indexed": true,
          "internalType": "address",
          "name": "operator",
          "type": "address"
        },
        {
          "indexed": false,
          "internalType": "bool",
          "name": "approved",
          "type": "bool"
        }
      ],
      "name": "ApprovalForAll",
      "type": "event"
    },
    {
      "anonymous": false,
      "inputs": [
        {
          "indexed": true,
          "internalType": "address",
          "name": "from",
          "type": "address"
        },
        {
          "indexed": true,
          "internalType": "address",
          "name": "to",
          "type": "address"
        },
        {
          "indexed": true,
          "internalType": "uint256",
          "name": "tokenId",
          "type": "uint256"
        }
      ],
      "name": "Transfer",
      "type": "event"
    },
    {
      "inputs": [
        {
          "internalType": "address",
          "name": "to",
          "type": "address"
        },
        {
          "internalType": "uint256",
          "name": "tokenId",
          "type": "uint256"
        }
      ],
      "name": "approve",
      "outputs": [],
      "stateMutability": "nonpayable",
      "type": "function"
    },
    {
      "inputs": [
        {
          "internalType": "address",
          "name": "owner",
          "type": "address"
        }
      ],
      "name": "balanceOf",
      "outputs": [
        {
          "internalType": "uint256",
          "name": "",
          "type": "uint256"
        }
      ],
      "stateMutability": "view",
      "type": "function"
    },
    {
      "inputs": [],
      "name": "baseURI",
      "outputs": [
        {
          "internalType": "string",
          "name": "",
          "type": "string"
        }
      ],
      "stateMutability": "view",
      "type": "function"
    },
    {
      "inputs": [
        {
          "internalType": "uint256",
          "name": "tokenId",
          "type": "uint256"
        }
      ],
      "name": "burn",
      "outputs": [],
      "stateMutability": "nonpayable",
      "type": "function"
    },
    {
      "inputs": [
        {
          "internalType": "uint256",
          "name": "tokenId",
          "type": "uint256"
        }
      ],
      "name": "exists",
      "outputs": [
        {
          "internalType": "bool",
          "name": "",
          "type": "bool"
        }
      ],
      "stateMutability": "view",
      "type": "function"
    },
    {
      "inputs": [
        {
          "internalType": "uint256",
          "name": "tokenId",
          "type": "uint256"
        }
      ],
      "name": "getApproved",
      "outputs": [
        {
          "internalType": "address",
          "name": "",
          "type": "address"
        }
      ],
      "stateMutability": "view",
      "type": "function"
    },
    {
      "inputs": [
        {
          "internalType": "address",
          "name": "owner",
          "type": "address"
        },
        {
          "internalType": "address",
          "name": "operator",
          "type": "address"
        }
      ],
      "name": "isApprovedForAll",
      "outputs": [
        {
          "internalType": "bool",
          "name": "",
          "type": "bool"
        }
      ],
      "stateMutability": "view",
      "type": "function"
    },
    {
      "inputs": [
        {
          "internalType": "address",
          "name": "to",
          "type": "address"
        },
        {
          "internalType": "uint256",
          "name": "tokenId",
          "type": "uint256"
        }
      ],
      "name": "mint",
      "outputs": [],
      "stateMutability": "nonpayable",
      "type": "function"
    },
    {
      "inputs": [],
      "name": "name",
      "outputs": [
        {
          "internalType": "string",
          "name": "",
          "type": "string"
        }
      ],
      "stateMutability": "view",
      "type": "function"
    },
    {
      "inputs": [
        {
          "internalType": "uint256",
          "name": "tokenId",
          "type": "uint256"
        }
      ],
      "name": "ownerOf",
      "outputs": [
        {
          "internalType": "address",
          "name": "",
          "type": "address"
        }
      ],
      "stateMutability": "view",
      "type": "function"
    },
    {
      "inputs": [
        {
          "internalType": "address",
          "name": "to",
          "type": "address"
        },
        {
          "internalType": "uint256",
          "name": "tokenId",
          "type": "uint256"
        },
        {
          "internalType": "bytes",
          "name": "_data",
          "type": "bytes"
        }
      ],
      "name": "safeMint",
      "outputs": [],
      "stateMutability": "nonpayable",
      "type": "function"
    },
    {
      "inputs": [
        {
          "internalType": "address",
          "name": "to",
          "type": "address"
        },
        {
          "internalType": "uint256",
          "name": "tokenId",
          "type": "uint256"
        }
      ],
      "name": "safeMint",
      "outputs": [],
      "stateMutability": "nonpayable",
      "type": "function"
    },
    {
      "inputs": [
        {
          "internalType": "address",
          "name": "from",
          "type": "address"
        },
        {
          "internalType": "address",
          "name": "to",
          "type": "address"
        },
        {
          "internalType": "uint256",
          "name": "tokenId",
          "type": "uint256"
        }
      ],
      "name": "safeTransferFrom",
      "outputs": [],
      "stateMutability": "nonpayable",
      "type": "function"
    },
    {
      "inputs": [
        {
          "internalType": "address",
          "name": "from",
          "type": "address"
        },
        {
          "internalType": "address",
          "name": "to",
          "type": "address"
        },
        {
          "internalType": "uint256",
          "name": "tokenId",
          "type": "uint256"
        },
        {
          "internalType": "bytes",
          "name": "_data",
          "type": "bytes"
        }
      ],
      "name": "safeTransferFrom",
      "outputs": [],
      "stateMutability": "nonpayable",
      "type": "function"
    },
    {
      "inputs": [
        {
          "internalType": "address",
          "name": "operator",
          "type": "address"
        },
        {
          "internalType": "bool",
          "name": "approved",
          "type": "bool"
        }
      ],
      "name": "setApprovalForAll",
      "outputs": [],
      "stateMutability": "nonpayable",
      "type": "function"
    },
    {
      "inputs": [
        {
          "internalType": "string",
          "name": "newBaseTokenURI",
          "type": "string"
        }
      ],
      "name": "setBaseURI",
      "outputs": [],
      "stateMutability": "nonpayable",
      "type": "function"
    },
    {
      "inputs": [
        {
          "internalType": "uint256",
          "name": "tokenId",
          "type": "uint256"
        },
        {
          "internalType": "string",
          "name": "_tokenURI",
          "type": "string"
        }
      ],
      "name": "setTokenURI",
      "outputs": [],
      "stateMutability": "nonpayable",
      "type": "function"
    },
    {
      "inputs": [
        {
          "internalType": "bytes4",
          "name": "interfaceId",
          "type": "bytes4"
        }
      ],
      "name": "supportsInterface",
      "outputs": [
        {
          "internalType": "bool",
          "name": "",
          "type": "bool"
        }
      ],
      "stateMutability": "view",
      "type": "function"
    },
    {
      "inputs": [],
      "name": "symbol",
      "outputs": [
        {
          "internalType": "string",
          "name": "",
          "type": "string"
        }
      ],
      "stateMutability": "view",
      "type": "function"
    },
    {
      "inputs": [
        {
          "internalType": "uint256",
          "name": "tokenId",
          "type": "uint256"
        }
      ],
      "name": "tokenURI",
      "outputs": [
        {
          "internalType": "string",
          "name": "",
          "type": "string"
        }
      ],
      "stateMutability": "view",
      "type": "function"
    },
    {
      "inputs": [
        {
          "internalType": "address",
          "name": "from",
          "type": "address"
        },
        {
          "internalType": "address",
          "name": "to",
          "type": "address"
        },
        {
          "internalType": "uint256",
          "name": "tokenId",
          "type": "uint256"
        }
      ],
      "name": "transferFrom",
      "outputs": [],
      "stateMutability": "nonpayable",
      "type": "function"
    }
  ],
  "bytecode": "0x60806040523480156200001157600080fd5b5060405162001cf038038062001cf08339810160408190526200003491620001c7565b8151829082906200004d9060009060208501906200006e565b508051620000639060019060208401906200006e565b505050505062000281565b8280546200007c906200022e565b90600052602060002090601f016020900481019282620000a05760008555620000eb565b82601f10620000bb57805160ff1916838001178555620000eb565b82800160010185558215620000eb579182015b82811115620000eb578251825591602001919060010190620000ce565b50620000f9929150620000fd565b5090565b5b80821115620000f95760008155600101620000fe565b600082601f83011262000125578081fd5b81516001600160401b03808211156200014257620001426200026b565b604051601f8301601f19908116603f011681019082821181831017156200016d576200016d6200026b565b8160405283815260209250868385880101111562000189578485fd5b8491505b83821015620001ac57858201830151818301840152908201906200018d565b83821115620001bd57848385830101525b9695505050505050565b60008060408385031215620001da578182fd5b82516001600160401b0380821115620001f1578384fd5b620001ff8683870162000114565b9350602085015191508082111562000215578283fd5b50620002248582860162000114565b9150509250929050565b600181811c908216806200024357607f821691505b602082108114156200026557634e487b7160e01b600052602260045260246000fd5b50919050565b634e487b7160e01b600052604160045260246000fd5b611a5f80620002916000396000f3fe608060405234801561001057600080fd5b50600436106101375760003560e01c806355f804b3116100b857806395d89b411161007c57806395d89b411461028d578063a144819414610295578063a22cb465146102a8578063b88d4fde146102bb578063c87b56dd146102ce578063e985e9c5146102e157610137565b806355f804b31461022b5780636352211e1461023e5780636c0360eb1461025157806370a08231146102595780638832e6e31461027a57610137565b806323b872dd116100ff57806323b872dd146101cc57806340c10f19146101df57806342842e0e146101f257806342966c68146102055780634f558e791461021857610137565b806301ffc9a71461013c57806306fdde0314610164578063081812fc14610179578063095ea7b3146101a4578063162094c4146101b9575b600080fd5b61014f61014a366004611695565b61031d565b60405190151581526020015b60405180910390f35b61016c610371565b60405161015b9190611842565b61018c61018736600461173a565b610403565b6040516001600160a01b03909116815260200161015b565b6101b76101b2366004611617565b610490565b005b6101b76101c7366004611752565b6105a6565b6101b76101da36600461153c565b6105b4565b6101b76101ed366004611617565b6105e5565b6101b761020036600461153c565b6105ef565b6101b761021336600461173a565b61060a565b61014f61022636600461173a565b610616565b6101b76102393660046116cd565b610621565b61018c61024c36600461173a565b61062d565b61016c6106a4565b61026c6102673660046114f0565b6106b3565b60405190815260200161015b565b6101b7610288366004611640565b61073a565b61016c610745565b6101b76102a3366004611617565b610754565b6101b76102b63660046115dd565b61075e565b6101b76102c9366004611577565b610830565b61016c6102dc36600461173a565b610868565b61014f6102ef36600461150a565b6001600160a01b03918216600090815260056020908152604080832093909416825291909152205460ff1690565b60006001600160e01b031982166380ac58cd60e01b148061034e57506001600160e01b03198216635b5e139f60e01b145b8061036957506301ffc9a760e01b6001600160e01b03198316145b90505b919050565b60606000805461038090611967565b80601f01602080910402602001604051908101604052809291908181526020018280546103ac90611967565b80156103f95780601f106103ce576101008083540402835291602001916103f9565b820191906000526020600020905b8154815290600101906020018083116103dc57829003601f168201915b5050505050905090565b600061040e826109d3565b6104745760405162461bcd60e51b815260206004820152602c60248201527f4552433732313a20617070726f76656420717565727920666f72206e6f6e657860448201526b34b9ba32b73a103a37b5b2b760a11b60648201526084015b60405180910390fd5b506000908152600460205260409020546001600160a01b031690565b600061049b8261062d565b9050806001600160a01b0316836001600160a01b031614156105095760405162461bcd60e51b815260206004820152602160248201527f4552433732313a20617070726f76616c20746f2063757272656e74206f776e656044820152603960f91b606482015260840161046b565b336001600160a01b0382161480610525575061052581336102ef565b6105975760405162461bcd60e51b815260206004820152603860248201527f4552433732313a20617070726f76652063616c6c6572206973206e6f74206f7760448201527f6e6572206e6f7220617070726f76656420666f7220616c6c0000000000000000606482015260840161046b565b6105a183836109f0565b505050565b6105b08282610a5e565b5050565b6105be3382610ae9565b6105da5760405162461bcd60e51b815260040161046b906118a7565b6105a1838383610bcf565b6105b08282610d6f565b6105a183838360405180602001604052806000815250610830565b61061381610ea2565b50565b6000610369826109d3565b6105a1600783836112ff565b6000818152600260205260408120546001600160a01b0316806103695760405162461bcd60e51b815260206004820152602960248201527f4552433732313a206f776e657220717565727920666f72206e6f6e657869737460448201526832b73a103a37b5b2b760b91b606482015260840161046b565b60606106ae610ee2565b905090565b60006001600160a01b03821661071e5760405162461bcd60e51b815260206004820152602a60248201527f4552433732313a2062616c616e636520717565727920666f7220746865207a65604482015269726f206164647265737360b01b606482015260840161046b565b506001600160a01b031660009081526003602052604090205490565b6105a1838383610ef1565b60606001805461038090611967565b6105b08282610f24565b6001600160a01b0382163314156107b75760405162461bcd60e51b815260206004820152601960248201527f4552433732313a20617070726f766520746f2063616c6c657200000000000000604482015260640161046b565b3360008181526005602090815260408083206001600160a01b0387168085529252909120805460ff1916841515179055906001600160a01b03167f17307eab39ab6107e8899845ad3d59bd9653f200f220920489ca2b5937696c3183604051610824911515815260200190565b60405180910390a35050565b61083a3383610ae9565b6108565760405162461bcd60e51b815260040161046b906118a7565b61086284848484610f3e565b50505050565b6060610873826109d3565b6108d95760405162461bcd60e51b815260206004820152603160248201527f45524337323155524953746f726167653a2055524920717565727920666f72206044820152703737b732bc34b9ba32b73a103a37b5b2b760791b606482015260840161046b565b600082815260066020526040812080546108f290611967565b80601f016020809104026020016040519081016040528092919081815260200182805461091e90611967565b801561096b5780601f106109405761010080835404028352916020019161096b565b820191906000526020600020905b81548152906001019060200180831161094e57829003601f168201915b50505050509050600061097c610ee2565b90508051600014156109905750905061036c565b8151156109c25780826040516020016109aa9291906117d6565b6040516020818303038152906040529250505061036c565b6109cb84610f71565b949350505050565b6000908152600260205260409020546001600160a01b0316151590565b600081815260046020526040902080546001600160a01b0319166001600160a01b0384169081179091558190610a258261062d565b6001600160a01b03167f8c5be1e5ebec7d5bd14f71427d1e84f3dd0314c0f7b2291e5b200ac8c7c3b92560405160405180910390a45050565b610a67826109d3565b610aca5760405162461bcd60e51b815260206004820152602e60248201527f45524337323155524953746f726167653a2055524920736574206f66206e6f6e60448201526d32bc34b9ba32b73a103a37b5b2b760911b606482015260840161046b565b600082815260066020908152604090912082516105a192840190611383565b6000610af4826109d3565b610b555760405162461bcd60e51b815260206004820152602c60248201527f4552433732313a206f70657261746f7220717565727920666f72206e6f6e657860448201526b34b9ba32b73a103a37b5b2b760a11b606482015260840161046b565b6000610b608361062d565b9050806001600160a01b0316846001600160a01b03161480610b9b5750836001600160a01b0316610b9084610403565b6001600160a01b0316145b806109cb57506001600160a01b0380821660009081526005602090815260408083209388168352929052205460ff166109cb565b826001600160a01b0316610be28261062d565b6001600160a01b031614610c4a5760405162461bcd60e51b815260206004820152602960248201527f4552433732313a207472616e73666572206f6620746f6b656e2074686174206960448201526839903737ba1037bbb760b91b606482015260840161046b565b6001600160a01b038216610cac5760405162461bcd60e51b8152602060048201526024808201527f4552433732313a207472616e7366657220746f20746865207a65726f206164646044820152637265737360e01b606482015260840161046b565b610cb76000826109f0565b6001600160a01b0383166000908152600360205260408120805460019290610ce0908490611924565b90915550506001600160a01b0382166000908152600360205260408120805460019290610d0e9084906118f8565b909155505060008181526002602052604080822080546001600160a01b0319166001600160a01b0386811691821790925591518493918716917fddf252ad1be2c89b69c2b068fc378daa952ba7f163c4a11628f55a4df523b3ef91a4505050565b6001600160a01b038216610dc55760405162461bcd60e51b815260206004820181905260248201527f4552433732313a206d696e7420746f20746865207a65726f2061646472657373604482015260640161046b565b610dce816109d3565b15610e1b5760405162461bcd60e51b815260206004820152601c60248201527f4552433732313a20746f6b656e20616c7265616479206d696e74656400000000604482015260640161046b565b6001600160a01b0382166000908152600360205260408120805460019290610e449084906118f8565b909155505060008181526002602052604080822080546001600160a01b0319166001600160a01b03861690811790915590518392907fddf252ad1be2c89b69c2b068fc378daa952ba7f163c4a11628f55a4df523b3ef908290a45050565b610eab8161103c565b60008181526006602052604090208054610ec490611967565b159050610613576000818152600660205260408120610613916113f7565b60606007805461038090611967565b610efb8383610d6f565b610f0860008484846110d7565b6105a15760405162461bcd60e51b815260040161046b90611855565b6105b0828260405180602001604052806000815250610ef1565b610f49848484610bcf565b610f55848484846110d7565b6108625760405162461bcd60e51b815260040161046b90611855565b6060610f7c826109d3565b610fe05760405162461bcd60e51b815260206004820152602f60248201527f4552433732314d657461646174613a2055524920717565727920666f72206e6f60448201526e3732bc34b9ba32b73a103a37b5b2b760891b606482015260840161046b565b6000610fea610ee2565b9050600081511161100a5760405180602001604052806000815250611035565b80611014846111e4565b6040516020016110259291906117d6565b6040516020818303038152906040525b9392505050565b60006110478261062d565b90506110546000836109f0565b6001600160a01b038116600090815260036020526040812080546001929061107d908490611924565b909155505060008281526002602052604080822080546001600160a01b0319169055518391906001600160a01b038416907fddf252ad1be2c89b69c2b068fc378daa952ba7f163c4a11628f55a4df523b3ef908390a45050565b60006001600160a01b0384163b156111d957604051630a85bd0160e11b81526001600160a01b0385169063150b7a029061111b903390899088908890600401611805565b602060405180830381600087803b15801561113557600080fd5b505af1925050508015611165575060408051601f3d908101601f19168201909252611162918101906116b1565b60015b6111bf573d808015611193576040519150601f19603f3d011682016040523d82523d6000602084013e611198565b606091505b5080516111b75760405162461bcd60e51b815260040161046b90611855565b805181602001fd5b6001600160e01b031916630a85bd0160e11b1490506109cb565b506001949350505050565b60608161120957506040805180820190915260018152600360fc1b602082015261036c565b8160005b8115611233578061121d816119a2565b915061122c9050600a83611910565b915061120d565b60008167ffffffffffffffff81111561125c57634e487b7160e01b600052604160045260246000fd5b6040519080825280601f01601f191660200182016040528015611286576020820181803683370190505b5090505b84156109cb5761129b600183611924565b91506112a8600a866119bd565b6112b39060306118f8565b60f81b8183815181106112d657634e487b7160e01b600052603260045260246000fd5b60200101906001600160f81b031916908160001a9053506112f8600a86611910565b945061128a565b82805461130b90611967565b90600052602060002090601f01602090048101928261132d5760008555611373565b82601f106113465782800160ff19823516178555611373565b82800160010185558215611373579182015b82811115611373578235825591602001919060010190611358565b5061137f92915061142f565b5090565b82805461138f90611967565b90600052602060002090601f0160209004810192826113b15760008555611373565b82601f106113ca57805160ff1916838001178555611373565b82800160010185558215611373579182015b828111156113735782518255916020019190600101906113dc565b50805461140390611967565b6000825580601f106114155750610613565b601f01602090049060005260206000209081019061061391905b5b8082111561137f5760008155600101611430565b600067ffffffffffffffff8084111561145f5761145f6119fd565b604051601f8501601f19908116603f01168101908282118183101715611487576114876119fd565b816040528093508581528686860111156114a057600080fd5b858560208301376000602087830101525050509392505050565b80356001600160a01b038116811461036c57600080fd5b600082601f8301126114e1578081fd5b61103583833560208501611444565b600060208284031215611501578081fd5b611035826114ba565b6000806040838503121561151c578081fd5b611525836114ba565b9150611533602084016114ba565b90509250929050565b600080600060608486031215611550578081fd5b611559846114ba565b9250611567602085016114ba565b9150604084013590509250925092565b6000806000806080858703121561158c578081fd5b611595856114ba565b93506115a3602086016114ba565b925060408501359150606085013567ffffffffffffffff8111156115c5578182fd5b6115d1878288016114d1565b91505092959194509250565b600080604083850312156115ef578182fd5b6115f8836114ba565b91506020830135801515811461160c578182fd5b809150509250929050565b60008060408385031215611629578182fd5b611632836114ba565b946020939093013593505050565b600080600060608486031215611654578283fd5b61165d846114ba565b925060208401359150604084013567ffffffffffffffff81111561167f578182fd5b61168b868287016114d1565b9150509250925092565b6000602082840312156116a6578081fd5b813561103581611a13565b6000602082840312156116c2578081fd5b815161103581611a13565b600080602083850312156116df578182fd5b823567ffffffffffffffff808211156116f6578384fd5b818501915085601f830112611709578384fd5b813581811115611717578485fd5b866020828501011115611728578485fd5b60209290920196919550909350505050565b60006020828403121561174b578081fd5b5035919050565b60008060408385031215611764578182fd5b82359150602083013567ffffffffffffffff811115611781578182fd5b8301601f81018513611791578182fd5b6117a085823560208401611444565b9150509250929050565b600081518084526117c281602086016020860161193b565b601f01601f19169290920160200192915050565b600083516117e881846020880161193b565b8351908301906117fc81836020880161193b565b01949350505050565b6001600160a01b0385811682528416602082015260408101839052608060608201819052600090611838908301846117aa565b9695505050505050565b60006020825261103560208301846117aa565b60208082526032908201527f4552433732313a207472616e7366657220746f206e6f6e20455243373231526560408201527131b2b4bb32b91034b6b83632b6b2b73a32b960711b606082015260800190565b60208082526031908201527f4552433732313a207472616e736665722063616c6c6572206973206e6f74206f6040820152701ddb995c881b9bdc88185c1c1c9bdd9959607a1b606082015260800190565b6000821982111561190b5761190b6119d1565b500190565b60008261191f5761191f6119e7565b500490565b600082821015611936576119366119d1565b500390565b60005b8381101561195657818101518382015260200161193e565b838111156108625750506000910152565b600181811c9082168061197b57607f821691505b6020821081141561199c57634e487b7160e01b600052602260045260246000fd5b50919050565b60006000198214156119b6576119b66119d1565b5060010190565b6000826119cc576119cc6119e7565b500690565b634e487b7160e01b600052601160045260246000fd5b634e487b7160e01b600052601260045260246000fd5b634e487b7160e01b600052604160045260246000fd5b6001600160e01b03198116811461061357600080fdfea264697066735822122013a748aea8d7237571b75ff138f9470185437ce39eb2a2fc4cf2460e434eefce64736f6c63430008030033",
  "linkReferences": {},
  "deployedLinkReferences": {}
}