{
  "_format": "hh-sol-artifact-1",
  "contractName": "AccessControlEnumerableMock",
  "sourceName": "contracts/mocks/AccessControlEnumerableMock.sol",
  "abi": [
    {
      "inputs": [],
      "stateMutability": "nonpayable",
      "type": "constructor"
    },
    {
      "anonymous": false,
      "inputs": [
        {
          "indexed": true,
          "internalType": "bytes32",
          "name": "role",
          "type": "bytes32"
        },
        {
          "indexed": true,
          "internalType": "bytes32",
          "name": "previousAdminRole",
          "type": "bytes32"
        },
        {
          "indexed": true,
          "internalType": "bytes32",
          "name": "newAdminRole",
          "type": "bytes32"
        }
      ],
      "name": "RoleAdminChanged",
      "type": "event"
    },
    {
      "anonymous": false,
      "inputs": [
        {
          "indexed": true,
          "internalType": "bytes32",
          "name": "role",
          "type": "bytes32"
        },
        {
          "indexed": true,
          "internalType": "address",
          "name": "account",
          "type": "address"
        },
        {
          "indexed": true,
          "internalType": "address",
          "name": "sender",
          "type": "address"
        }
      ],
      "name": "RoleGranted",
      "type": "event"
    },
    {
      "anonymous": false,
      "inputs": [
        {
          "indexed": true,
          "internalType": "bytes32",
          "name": "role",
          "type": "bytes32"
        },
        {
          "indexed": true,
          "internalType": "address",
          "name": "account",
          "type": "address"
        },
        {
          "indexed": true,
          "internalType": "address",
          "name": "sender",
          "type": "address"
        }
      ],
      "name": "RoleRevoked",
      "type": "event"
    },
    {
      "inputs": [],
      "name": "DEFAULT_ADMIN_ROLE",
      "outputs": [
        {
          "internalType": "bytes32",
          "name": "",
          "type": "bytes32"
        }
      ],
      "stateMutability": "view",
      "type": "function"
    },
    {
      "inputs": [
        {
          "internalType": "bytes32",
          "name": "role",
          "type": "bytes32"
        }
      ],
      "name": "getRoleAdmin",
      "outputs": [
        {
          "internalType": "bytes32",
          "name": "",
          "type": "bytes32"
        }
      ],
      "stateMutability": "view",
      "type": "function"
    },
    {
      "inputs": [
        {
          "internalType": "bytes32",
          "name": "role",
          "type": "bytes32"
        },
        {
          "internalType": "uint256",
          "name": "index",
          "type": "uint256"
        }
      ],
      "name": "getRoleMember",
      "outputs": [
        {
          "internalType": "address",
          "name": "",
          "type": "address"
        }
      ],
      "stateMutability": "view",
      "type": "function"
    },
    {
      "inputs": [
        {
          "internalType": "bytes32",
          "name": "role",
          "type": "bytes32"
        }
      ],
      "name": "getRoleMemberCount",
      "outputs": [
        {
          "internalType": "uint256",
          "name": "",
          "type": "uint256"
        }
      ],
      "stateMutability": "view",
      "type": "function"
    },
    {
      "inputs": [
        {
          "internalType": "bytes32",
          "name": "role",
          "type": "bytes32"
        },
        {
          "internalType": "address",
          "name": "account",
          "type": "address"
        }
      ],
      "name": "grantRole",
      "outputs": [],
      "stateMutability": "nonpayable",
      "type": "function"
    },
    {
      "inputs": [
        {
          "internalType": "bytes32",
          "name": "role",
          "type": "bytes32"
        },
        {
          "internalType": "address",
          "name": "account",
          "type": "address"
        }
      ],
      "name": "hasRole",
      "outputs": [
        {
          "internalType": "bool",
          "name": "",
          "type": "bool"
        }
      ],
      "stateMutability": "view",
      "type": "function"
    },
    {
      "inputs": [
        {
          "internalType": "bytes32",
          "name": "role",
          "type": "bytes32"
        },
        {
          "internalType": "address",
          "name": "account",
          "type": "address"
        }
      ],
      "name": "renounceRole",
      "outputs": [],
      "stateMutability": "nonpayable",
      "type": "function"
    },
    {
      "inputs": [
        {
          "internalType": "bytes32",
          "name": "role",
          "type": "bytes32"
        },
        {
          "internalType": "address",
          "name": "account",
          "type": "address"
        }
      ],
      "name": "revokeRole",
      "outputs": [],
      "stateMutability": "nonpayable",
      "type": "function"
    },
    {
      "inputs": [
        {
          "internalType": "bytes32",
          "name": "roleId",
          "type": "bytes32"
        }
      ],
      "name": "senderProtected",
      "outputs": [],
      "stateMutability": "nonpayable",
      "type": "function"
    },
    {
      "inputs": [
        {
          "internalType": "bytes32",
          "name": "roleId",
          "type": "bytes32"
        },
        {
          "internalType": "bytes32",
          "name": "adminRoleId",
          "type": "bytes32"
        }
      ],
      "name": "setRoleAdmin",
      "outputs": [],
      "stateMutability": "nonpayable",
      "type": "function"
    },
    {
      "inputs": [
        {
          "internalType": "bytes4",
          "name": "interfaceId",
          "type": "bytes4"
        }
      ],
      "name": "supportsInterface",
      "outputs": [
        {
          "internalType": "bool",
          "name": "",
          "type": "bool"
        }
      ],
      "stateMutability": "view",
      "type": "function"
    }
  ],
  "bytecode": "0x608060405234801561001057600080fd5b5061001c600033610021565b610177565b610035828261005e60201b6102b81760201c565b60008281526001602090815260409091206100599183906102c261006c821b17901c565b505050565b610068828261008a565b5050565b6000610081836001600160a01b038416610128565b90505b92915050565b6000828152602081815260408083206001600160a01b038516845290915290205460ff16610068576000828152602081815260408083206001600160a01b03851684529091529020805460ff191660011790556100e43390565b6001600160a01b0316816001600160a01b0316837f2f8788117e7eff1d82e926ec794901d17c78024a50270940304540a733656f0d60405160405180910390a45050565b600081815260018301602052604081205461016f57508154600181810184556000848152602080822090930184905584548482528286019093526040902091909155610084565b506000610084565b610ba3806101866000396000f3fe608060405234801561001057600080fd5b50600436106100a95760003560e01c80634b9304a4116100715780634b9304a4146101425780639010d07c1461015557806391d1485414610180578063a217fddf14610193578063ca15c8731461019b578063d547741f146101ae576100a9565b806301ffc9a7146100ae5780631e4e0091146100d6578063248a9ca3146100eb5780632f2ff15d1461011c57806336568abe1461012f575b600080fd5b6100c16100bc3660046109f2565b6101c1565b60405190151581526020015b60405180910390f35b6100e96100e43660046109d1565b6101ec565b005b61010e6100f936600461097f565b60009081526020819052604090206001015490565b6040519081526020016100cd565b6100e961012a366004610997565b6101fa565b6100e961013d366004610997565b610221565b6100e961015036600461097f565b610243565b6101686101633660046109d1565b61024f565b6040516001600160a01b0390911681526020016100cd565b6100c161018e366004610997565b61026e565b61010e600081565b61010e6101a936600461097f565b610297565b6100e96101bc366004610997565b6102ae565b60006001600160e01b03198216635a05180f60e01b14806101e657506101e6826102d7565b92915050565b6101f6828261030c565b5050565b6102048282610360565b600082815260016020526040902061021c90826102c2565b505050565b61022b8282610386565b600082815260016020526040902061021c9082610405565b806101f681335b61041a565b6000828152600160205260408120610267908361047e565b9392505050565b6000918252602082815260408084206001600160a01b0393909316845291905290205460ff1690565b60008181526001602052604081206101e69061048a565b61022b8282610494565b6101f682826104ba565b6000610267836001600160a01b03841661053e565b60006001600160e01b03198216637965db0b60e01b14806101e657506301ffc9a760e01b6001600160e01b03198316146101e6565b600082815260208190526040902060010154819060405184907fbd79b86ffe0ab8e8776151514217cd7cacd52c909f66475c3af44e129f0b00ff90600090a460009182526020829052604090912060010155565b60008281526020819052604090206001015461037c813361024a565b61021c83836104ba565b6001600160a01b03811633146103fb5760405162461bcd60e51b815260206004820152602f60248201527f416363657373436f6e74726f6c3a2063616e206f6e6c792072656e6f756e636560448201526e103937b632b9903337b91039b2b63360891b60648201526084015b60405180910390fd5b6101f6828261058d565b6000610267836001600160a01b0384166105f2565b610424828261026e565b6101f65761043c816001600160a01b03166014610709565b610447836020610709565b604051602001610458929190610a1a565b60408051601f198184030181529082905262461bcd60e51b82526103f291600401610a8f565b600061026783836108eb565b60006101e6825490565b6000828152602081905260409020600101546104b0813361024a565b61021c838361058d565b6104c4828261026e565b6101f6576000828152602081815260408083206001600160a01b03851684529091529020805460ff191660011790556104fa3390565b6001600160a01b0316816001600160a01b0316837f2f8788117e7eff1d82e926ec794901d17c78024a50270940304540a733656f0d60405160405180910390a45050565b6000818152600183016020526040812054610585575081546001818101845560008481526020808220909301849055845484825282860190935260409020919091556101e6565b5060006101e6565b610597828261026e565b156101f6576000828152602081815260408083206001600160a01b0385168085529252808320805460ff1916905551339285917ff6391f5c32d9c69d2a47ea670b442974b53935d1edc7fd64eb21e047a839171b9190a45050565b600081815260018301602052604081205480156106ff576000610616600183610af9565b855490915060009061062a90600190610af9565b9050600086600001828154811061065157634e487b7160e01b600052603260045260246000fd5b906000526020600020015490508087600001848154811061068257634e487b7160e01b600052603260045260246000fd5b6000918252602080832090910192909255828152600189019091526040902084905586548790806106c357634e487b7160e01b600052603160045260246000fd5b600190038181906000526020600020016000905590558660010160008781526020019081526020016000206000905560019450505050506101e6565b60009150506101e6565b60606000610718836002610ada565b610723906002610ac2565b67ffffffffffffffff81111561074957634e487b7160e01b600052604160045260246000fd5b6040519080825280601f01601f191660200182016040528015610773576020820181803683370190505b509050600360fc1b8160008151811061079c57634e487b7160e01b600052603260045260246000fd5b60200101906001600160f81b031916908160001a905350600f60fb1b816001815181106107d957634e487b7160e01b600052603260045260246000fd5b60200101906001600160f81b031916908160001a90535060006107fd846002610ada565b610808906001610ac2565b90505b600181111561089c576f181899199a1a9b1b9c1cb0b131b232b360811b85600f166010811061084a57634e487b7160e01b600052603260045260246000fd5b1a60f81b82828151811061086e57634e487b7160e01b600052603260045260246000fd5b60200101906001600160f81b031916908160001a90535060049490941c9361089581610b40565b905061080b565b5083156102675760405162461bcd60e51b815260206004820181905260248201527f537472696e67733a20686578206c656e67746820696e73756666696369656e7460448201526064016103f2565b815460009082106109495760405162461bcd60e51b815260206004820152602260248201527f456e756d657261626c655365743a20696e646578206f7574206f6620626f756e604482015261647360f01b60648201526084016103f2565b82600001828154811061096c57634e487b7160e01b600052603260045260246000fd5b9060005260206000200154905092915050565b600060208284031215610990578081fd5b5035919050565b600080604083850312156109a9578081fd5b8235915060208301356001600160a01b03811681146109c6578182fd5b809150509250929050565b600080604083850312156109e3578182fd5b50508035926020909101359150565b600060208284031215610a03578081fd5b81356001600160e01b031981168114610267578182fd5b60007f416363657373436f6e74726f6c3a206163636f756e742000000000000000000082528351610a52816017850160208801610b10565b7001034b99036b4b9b9b4b733903937b6329607d1b6017918401918201528351610a83816028840160208801610b10565b01602801949350505050565b6000602082528251806020840152610aae816040850160208701610b10565b601f01601f19169190910160400192915050565b60008219821115610ad557610ad5610b57565b500190565b6000816000190483118215151615610af457610af4610b57565b500290565b600082821015610b0b57610b0b610b57565b500390565b60005b83811015610b2b578181015183820152602001610b13565b83811115610b3a576000848401525b50505050565b600081610b4f57610b4f610b57565b506000190190565b634e487b7160e01b600052601160045260246000fdfea2646970667358221220ca52b9259abd1eff664cb4673068bae295fe4b45e3da13b384deda0c56db4d6e64736f6c63430008030033",
  "linkReferences": {},
  "deployedLinkReferences": {}
}