{
  "_format": "hh-sol-artifact-1",
  "contractName": "MulticallTokenMock",
  "sourceName": "contracts/mocks/MulticallTokenMock.sol",
  "abi": [
    {
      "inputs": [
        {
          "internalType": "uint256",
          "name": "initialBalance",
          "type": "uint256"
        }
      ],
      "stateMutability": "nonpayable",
      "type": "constructor"
    },
    {
      "anonymous": false,
      "inputs": [
        {
          "indexed": true,
          "internalType": "address",
          "name": "owner",
          "type": "address"
        },
        {
          "indexed": true,
          "internalType": "address",
          "name": "spender",
          "type": "address"
        },
        {
          "indexed": false,
          "internalType": "uint256",
          "name": "value",
          "type": "uint256"
        }
      ],
      "name": "Approval",
      "type": "event"
    },
    {
      "anonymous": false,
      "inputs": [
        {
          "indexed": true,
          "internalType": "address",
          "name": "from",
          "type": "address"
        },
        {
          "indexed": true,
          "internalType": "address",
          "name": "to",
          "type": "address"
        },
        {
          "indexed": false,
          "internalType": "uint256",
          "name": "value",
          "type": "uint256"
        }
      ],
      "name": "Transfer",
      "type": "event"
    },
    {
      "inputs": [
        {
          "internalType": "address",
          "name": "owner",
          "type": "address"
        },
        {
          "internalType": "address",
          "name": "spender",
          "type": "address"
        }
      ],
      "name": "allowance",
      "outputs": [
        {
          "internalType": "uint256",
          "name": "",
          "type": "uint256"
        }
      ],
      "stateMutability": "view",
      "type": "function"
    },
    {
      "inputs": [
        {
          "internalType": "address",
          "name": "spender",
          "type": "address"
        },
        {
          "internalType": "uint256",
          "name": "amount",
          "type": "uint256"
        }
      ],
      "name": "approve",
      "outputs": [
        {
          "internalType": "bool",
          "name": "",
          "type": "bool"
        }
      ],
      "stateMutability": "nonpayable",
      "type": "function"
    },
    {
      "inputs": [
        {
          "internalType": "address",
          "name": "owner",
          "type": "address"
        },
        {
          "internalType": "address",
          "name": "spender",
          "type": "address"
        },
        {
          "internalType": "uint256",
          "name": "value",
          "type": "uint256"
        }
      ],
      "name": "approveInternal",
      "outputs": [],
      "stateMutability": "nonpayable",
      "type": "function"
    },
    {
      "inputs": [
        {
          "internalType": "address",
          "name": "account",
          "type": "address"
        }
      ],
      "name": "balanceOf",
      "outputs": [
        {
          "internalType": "uint256",
          "name": "",
          "type": "uint256"
        }
      ],
      "stateMutability": "view",
      "type": "function"
    },
    {
      "inputs": [
        {
          "internalType": "address",
          "name": "account",
          "type": "address"
        },
        {
          "internalType": "uint256",
          "name": "amount",
          "type": "uint256"
        }
      ],
      "name": "burn",
      "outputs": [],
      "stateMutability": "nonpayable",
      "type": "function"
    },
    {
      "inputs": [],
      "name": "decimals",
      "outputs": [
        {
          "internalType": "uint8",
          "name": "",
          "type": "uint8"
        }
      ],
      "stateMutability": "view",
      "type": "function"
    },
    {
      "inputs": [
        {
          "internalType": "address",
          "name": "spender",
          "type": "address"
        },
        {
          "internalType": "uint256",
          "name": "subtractedValue",
          "type": "uint256"
        }
      ],
      "name": "decreaseAllowance",
      "outputs": [
        {
          "internalType": "bool",
          "name": "",
          "type": "bool"
        }
      ],
      "stateMutability": "nonpayable",
      "type": "function"
    },
    {
      "inputs": [
        {
          "internalType": "address",
          "name": "spender",
          "type": "address"
        },
        {
          "internalType": "uint256",
          "name": "addedValue",
          "type": "uint256"
        }
      ],
      "name": "increaseAllowance",
      "outputs": [
        {
          "internalType": "bool",
          "name": "",
          "type": "bool"
        }
      ],
      "stateMutability": "nonpayable",
      "type": "function"
    },
    {
      "inputs": [
        {
          "internalType": "address",
          "name": "account",
          "type": "address"
        },
        {
          "internalType": "uint256",
          "name": "amount",
          "type": "uint256"
        }
      ],
      "name": "mint",
      "outputs": [],
      "stateMutability": "nonpayable",
      "type": "function"
    },
    {
      "inputs": [
        {
          "internalType": "bytes[]",
          "name": "data",
          "type": "bytes[]"
        }
      ],
      "name": "multicall",
      "outputs": [
        {
          "internalType": "bytes[]",
          "name": "results",
          "type": "bytes[]"
        }
      ],
      "stateMutability": "nonpayable",
      "type": "function"
    },
    {
      "inputs": [],
      "name": "name",
      "outputs": [
        {
          "internalType": "string",
          "name": "",
          "type": "string"
        }
      ],
      "stateMutability": "view",
      "type": "function"
    },
    {
      "inputs": [],
      "name": "symbol",
      "outputs": [
        {
          "internalType": "string",
          "name": "",
          "type": "string"
        }
      ],
      "stateMutability": "view",
      "type": "function"
    },
    {
      "inputs": [],
      "name": "totalSupply",
      "outputs": [
        {
          "internalType": "uint256",
          "name": "",
          "type": "uint256"
        }
      ],
      "stateMutability": "view",
      "type": "function"
    },
    {
      "inputs": [
        {
          "internalType": "address",
          "name": "recipient",
          "type": "address"
        },
        {
          "internalType": "uint256",
          "name": "amount",
          "type": "uint256"
        }
      ],
      "name": "transfer",
      "outputs": [
        {
          "internalType": "bool",
          "name": "",
          "type": "bool"
        }
      ],
      "stateMutability": "nonpayable",
      "type": "function"
    },
    {
      "inputs": [
        {
          "internalType": "address",
          "name": "sender",
          "type": "address"
        },
        {
          "internalType": "address",
          "name": "recipient",
          "type": "address"
        },
        {
          "internalType": "uint256",
          "name": "amount",
          "type": "uint256"
        }
      ],
      "name": "transferFrom",
      "outputs": [
        {
          "internalType": "bool",
          "name": "",
          "type": "bool"
        }
      ],
      "stateMutability": "nonpayable",
      "type": "function"
    },
    {
      "inputs": [
        {
          "internalType": "address",
          "name": "from",
          "type": "address"
        },
        {
          "internalType": "address",
          "name": "to",
          "type": "address"
        },
        {
          "internalType": "uint256",
          "name": "value",
          "type": "uint256"
        }
      ],
      "name": "transferInternal",
      "outputs": [],
      "stateMutability": "nonpayable",
      "type": "function"
    }
  ],
  "bytecode": "0x60806040523480156200001157600080fd5b50604051620012d5380380620012d5833981016040819052620000349162000257565b6040518060400160405280600e81526020016d26bab63a34b1b0b6362a37b5b2b760911b815250604051806040016040528060038152602001621090d560ea1b81525033838383816003908051906020019062000093929190620001b1565b508051620000a9906004906020840190620001b1565b505050620000be8282620000c960201b60201c565b5050505050620002d2565b6001600160a01b038216620001245760405162461bcd60e51b815260206004820152601f60248201527f45524332303a206d696e7420746f20746865207a65726f206164647265737300604482015260640160405180910390fd5b806002600082825462000138919062000270565b90915550506001600160a01b038216600090815260208190526040812080548392906200016790849062000270565b90915550506040518181526001600160a01b038316906000907fddf252ad1be2c89b69c2b068fc378daa952ba7f163c4a11628f55a4df523b3ef9060200160405180910390a35050565b828054620001bf9062000295565b90600052602060002090601f016020900481019282620001e357600085556200022e565b82601f10620001fe57805160ff19168380011785556200022e565b828001600101855582156200022e579182015b828111156200022e57825182559160200191906001019062000211565b506200023c92915062000240565b5090565b5b808211156200023c576000815560010162000241565b60006020828403121562000269578081fd5b5051919050565b600082198211156200029057634e487b7160e01b81526011600452602481fd5b500190565b600181811c90821680620002aa57607f821691505b60208210811415620002cc57634e487b7160e01b600052602260045260246000fd5b50919050565b610ff380620002e26000396000f3fe608060405234801561001057600080fd5b50600436106101005760003560e01c806356189cb411610097578063a457c2d711610066578063a457c2d7146101f6578063a9059cbb14610209578063ac9650d81461021c578063dd62ed3e1461023c57610100565b806356189cb4146101b557806370a08231146101c857806395d89b41146101db5780639dc29fac146101e357610100565b806323b872dd116100d357806323b872dd1461016d578063313ce56714610180578063395093511461018f57806340c10f19146101a257610100565b806306fdde0314610105578063095ea7b31461012357806318160ddd14610146578063222f5be014610158575b600080fd5b61010d610275565b60405161011a9190610e6c565b60405180910390f35b610136610131366004610d2a565b610307565b604051901515815260200161011a565b6002545b60405190815260200161011a565b61016b610166366004610cef565b61031d565b005b61013661017b366004610cef565b61032d565b6040516012815260200161011a565b61013661019d366004610d2a565b6103e5565b61016b6101b0366004610d2a565b61041c565b61016b6101c3366004610cef565b61042a565b61014a6101d6366004610ca3565b610435565b61010d610454565b61016b6101f1366004610d2a565b610463565b610136610204366004610d2a565b61046d565b610136610217366004610d2a565b610508565b61022f61022a366004610d53565b610515565b60405161011a9190610e0b565b61014a61024a366004610cbd565b6001600160a01b03918216600090815260016020908152604080832093909416825291909152205490565b60606003805461028490610f2a565b80601f01602080910402602001604051908101604052809291908181526020018280546102b090610f2a565b80156102fd5780601f106102d2576101008083540402835291602001916102fd565b820191906000526020600020905b8154815290600101906020018083116102e057829003601f168201915b5050505050905090565b6000610314338484610634565b50600192915050565b610328838383610759565b505050565b600061033a848484610759565b6001600160a01b0384166000908152600160209081526040808320338452909152902054828110156103c45760405162461bcd60e51b815260206004820152602860248201527f45524332303a207472616e7366657220616d6f756e74206578636565647320616044820152676c6c6f77616e636560c01b60648201526084015b60405180910390fd5b6103d885336103d38685610ee3565b610634565b60019150505b9392505050565b3360008181526001602090815260408083206001600160a01b038716845290915281205490916103149185906103d3908690610ecb565b6104268282610931565b5050565b610328838383610634565b6001600160a01b0381166000908152602081905260409020545b919050565b60606004805461028490610f2a565b6104268282610a10565b3360009081526001602090815260408083206001600160a01b0386168452909152812054828110156104ef5760405162461bcd60e51b815260206004820152602560248201527f45524332303a2064656372656173656420616c6c6f77616e63652062656c6f77604482015264207a65726f60d81b60648201526084016103bb565b6104fe33856103d38685610ee3565b5060019392505050565b6000610314338484610759565b60608167ffffffffffffffff81111561053e57634e487b7160e01b600052604160045260246000fd5b60405190808252806020026020018201604052801561057157816020015b606081526020019060019003908161055c5790505b50905060005b8281101561062d576105ef308585848181106105a357634e487b7160e01b600052603260045260246000fd5b90506020028101906105b59190610e7f565b8080601f016020809104026020016040519081016040528093929190818152602001838380828437600092019190915250610b5f92505050565b82828151811061060f57634e487b7160e01b600052603260045260246000fd5b6020026020010181905250808061062590610f65565b915050610577565b5092915050565b6001600160a01b0383166106965760405162461bcd60e51b8152602060048201526024808201527f45524332303a20617070726f76652066726f6d20746865207a65726f206164646044820152637265737360e01b60648201526084016103bb565b6001600160a01b0382166106f75760405162461bcd60e51b815260206004820152602260248201527f45524332303a20617070726f766520746f20746865207a65726f206164647265604482015261737360f01b60648201526084016103bb565b6001600160a01b0383811660008181526001602090815260408083209487168084529482529182902085905590518481527f8c5be1e5ebec7d5bd14f71427d1e84f3dd0314c0f7b2291e5b200ac8c7c3b92591015b60405180910390a3505050565b6001600160a01b0383166107bd5760405162461bcd60e51b815260206004820152602560248201527f45524332303a207472616e736665722066726f6d20746865207a65726f206164604482015264647265737360d81b60648201526084016103bb565b6001600160a01b03821661081f5760405162461bcd60e51b815260206004820152602360248201527f45524332303a207472616e7366657220746f20746865207a65726f206164647260448201526265737360e81b60648201526084016103bb565b6001600160a01b038316600090815260208190526040902054818110156108975760405162461bcd60e51b815260206004820152602660248201527f45524332303a207472616e7366657220616d6f756e7420657863656564732062604482015265616c616e636560d01b60648201526084016103bb565b6108a18282610ee3565b6001600160a01b0380861660009081526020819052604080822093909355908516815290812080548492906108d7908490610ecb565b92505081905550826001600160a01b0316846001600160a01b03167fddf252ad1be2c89b69c2b068fc378daa952ba7f163c4a11628f55a4df523b3ef8460405161092391815260200190565b60405180910390a350505050565b6001600160a01b0382166109875760405162461bcd60e51b815260206004820152601f60248201527f45524332303a206d696e7420746f20746865207a65726f20616464726573730060448201526064016103bb565b80600260008282546109999190610ecb565b90915550506001600160a01b038216600090815260208190526040812080548392906109c6908490610ecb565b90915550506040518181526001600160a01b038316906000907fddf252ad1be2c89b69c2b068fc378daa952ba7f163c4a11628f55a4df523b3ef9060200160405180910390a35050565b6001600160a01b038216610a705760405162461bcd60e51b815260206004820152602160248201527f45524332303a206275726e2066726f6d20746865207a65726f206164647265736044820152607360f81b60648201526084016103bb565b6001600160a01b03821660009081526020819052604090205481811015610ae45760405162461bcd60e51b815260206004820152602260248201527f45524332303a206275726e20616d6f756e7420657863656564732062616c616e604482015261636560f01b60648201526084016103bb565b610aee8282610ee3565b6001600160a01b03841660009081526020819052604081209190915560028054849290610b1c908490610ee3565b90915550506040518281526000906001600160a01b038516907fddf252ad1be2c89b69c2b068fc378daa952ba7f163c4a11628f55a4df523b3ef9060200161074c565b60606103de8383604051806060016040528060278152602001610f97602791396060833b610bde5760405162461bcd60e51b815260206004820152602660248201527f416464726573733a2064656c65676174652063616c6c20746f206e6f6e2d636f6044820152651b9d1c9858dd60d21b60648201526084016103bb565b600080856001600160a01b031685604051610bf99190610def565b600060405180830381855af49150503d8060008114610c34576040519150601f19603f3d011682016040523d82523d6000602084013e610c39565b606091505b5091509150610c49828286610c53565b9695505050505050565b60608315610c625750816103de565b825115610c725782518084602001fd5b8160405162461bcd60e51b81526004016103bb9190610e6c565b80356001600160a01b038116811461044f57600080fd5b600060208284031215610cb4578081fd5b6103de82610c8c565b60008060408385031215610ccf578081fd5b610cd883610c8c565b9150610ce660208401610c8c565b90509250929050565b600080600060608486031215610d03578081fd5b610d0c84610c8c565b9250610d1a60208501610c8c565b9150604084013590509250925092565b60008060408385031215610d3c578182fd5b610d4583610c8c565b946020939093013593505050565b60008060208385031215610d65578182fd5b823567ffffffffffffffff80821115610d7c578384fd5b818501915085601f830112610d8f578384fd5b813581811115610d9d578485fd5b8660208260051b8501011115610db1578485fd5b60209290920196919550909350505050565b60008151808452610ddb816020860160208601610efa565b601f01601f19169290920160200192915050565b60008251610e01818460208701610efa565b9190910192915050565b6000602080830181845280855180835260408601915060408160051b8701019250838701855b82811015610e5f57603f19888603018452610e4d858351610dc3565b94509285019290850190600101610e31565b5092979650505050505050565b6000602082526103de6020830184610dc3565b6000808335601e19843603018112610e95578283fd5b83018035915067ffffffffffffffff821115610eaf578283fd5b602001915036819003821315610ec457600080fd5b9250929050565b60008219821115610ede57610ede610f80565b500190565b600082821015610ef557610ef5610f80565b500390565b60005b83811015610f15578181015183820152602001610efd565b83811115610f24576000848401525b50505050565b600181811c90821680610f3e57607f821691505b60208210811415610f5f57634e487b7160e01b600052602260045260246000fd5b50919050565b6000600019821415610f7957610f79610f80565b5060010190565b634e487b7160e01b600052601160045260246000fdfe416464726573733a206c6f772d6c6576656c2064656c65676174652063616c6c206661696c6564a2646970667358221220e004aef9ae4bd83659f9fc441d6291e0c3b6391418bf0565a6c3ce884c4ffeac64736f6c63430008030033",
  "linkReferences": {},
  "deployedLinkReferences": {}
}