{
  "_format": "hh-sol-artifact-1",
  "contractName": "DummyImplementationV2",
  "sourceName": "contracts/mocks/DummyImplementation.sol",
  "abi": [
    {
      "inputs": [],
      "name": "get",
      "outputs": [
        {
          "internalType": "bool",
          "name": "",
          "type": "bool"
        }
      ],
      "stateMutability": "pure",
      "type": "function"
    },
    {
      "inputs": [
        {
          "internalType": "uint256",
          "name": "_value",
          "type": "uint256"
        },
        {
          "internalType": "string",
          "name": "_text",
          "type": "string"
        },
        {
          "internalType": "uint256[]",
          "name": "_values",
          "type": "uint256[]"
        }
      ],
      "name": "initialize",
      "outputs": [],
      "stateMutability": "nonpayable",
      "type": "function"
    },
    {
      "inputs": [],
      "name": "initializeNonPayable",
      "outputs": [],
      "stateMutability": "nonpayable",
      "type": "function"
    },
    {
      "inputs": [
        {
          "internalType": "uint256",
          "name": "_value",
          "type": "uint256"
        }
      ],
      "name": "initializeNonPayableWithValue",
      "outputs": [],
      "stateMutability": "nonpayable",
      "type": "function"
    },
    {
      "inputs": [],
      "name": "initializePayable",
      "outputs": [],
      "stateMutability": "payable",
      "type": "function"
    },
    {
      "inputs": [
        {
          "internalType": "uint256",
          "name": "_value",
          "type": "uint256"
        }
      ],
      "name": "initializePayableWithValue",
      "outputs": [],
      "stateMutability": "payable",
      "type": "function"
    },
    {
      "inputs": [
        {
          "internalType": "uint256",
          "name": "newVal",
          "type": "uint256"
        }
      ],
      "name": "migrate",
      "outputs": [],
      "stateMutability": "payable",
      "type": "function"
    },
    {
      "inputs": [],
      "name": "reverts",
      "outputs": [],
      "stateMutability": "pure",
      "type": "function"
    },
    {
      "inputs": [],
      "name": "text",
      "outputs": [
        {
          "internalType": "string",
          "name": "",
          "type": "string"
        }
      ],
      "stateMutability": "view",
      "type": "function"
    },
    {
      "inputs": [],
      "name": "value",
      "outputs": [
        {
          "internalType": "uint256",
          "name": "",
          "type": "uint256"
        }
      ],
      "stateMutability": "view",
      "type": "function"
    },
    {
      "inputs": [
        {
          "internalType": "uint256",
          "name": "",
          "type": "uint256"
        }
      ],
      "name": "values",
      "outputs": [
        {
          "internalType": "uint256",
          "name": "",
          "type": "uint256"
        }
      ],
      "stateMutability": "view",
      "type": "function"
    },
    {
      "inputs": [],
      "name": "version",
      "outputs": [
        {
          "internalType": "string",
          "name": "",
          "type": "string"
        }
      ],
      "stateMutability": "pure",
      "type": "function"
    }
  ],
  "bytecode": "0x608060405234801561001057600080fd5b5061064a806100206000396000f3fe6080604052600436106100a75760003560e01c80635e383d21116100645780635e383d21146101675780636d4ce63c14610187578063763e2831146101a35780639fba1f9a146101be578063d31f8b6b146101c8578063e79f5bee14610129576100a7565b80631f1bd692146100ac578063227367d5146100d75780633bccbbc9146100f05780633fa4f24514610105578063454b06081461012957806354fd4d501461013c575b600080fd5b3480156100b857600080fd5b506100c16101e8565b6040516100ce919061053f565b60405180910390f35b3480156100e357600080fd5b506100ee600a600055565b005b3480156100fc57600080fd5b506100ee610276565b34801561011157600080fd5b5061011b60005481565b6040519081526020016100ce565b6100ee61013736600461046b565b600055565b34801561014857600080fd5b506040805180820190915260028152612b1960f11b60208201526100c1565b34801561017357600080fd5b5061011b61018236600461046b565b6102c2565b34801561019357600080fd5b50604051600181526020016100ce565b3480156101af57600080fd5b506100ee61013736600461046b565b6100ee6064600055565b3480156101d457600080fd5b506100ee6101e3366004610483565b6102e3565b600180546101f5906105c3565b80601f0160208091040260200160405190810160405280929190818152602001828054610221906105c3565b801561026e5780601f106102435761010080835404028352916020019161026e565b820191906000526020600020905b81548152906001019060200180831161025157829003601f168201915b505050505081565b60405162461bcd60e51b815260206004820152601c60248201527f44756d6d79496d706c656d656e746174696f6e20726576657274656400000000604482015260640160405180910390fd5b600281815481106102d257600080fd5b600091825260209091200154905081565b600083905581516102fb906001906020850190610315565b50805161030f906002906020840190610399565b50505050565b828054610321906105c3565b90600052602060002090601f0160209004810192826103435760008555610389565b82601f1061035c57805160ff1916838001178555610389565b82800160010185558215610389579182015b8281111561038957825182559160200191906001019061036e565b506103959291506103d3565b5090565b828054828255906000526020600020908101928215610389579160200282018281111561038957825182559160200191906001019061036e565b5b8082111561039557600081556001016103d4565b600082601f8301126103f8578081fd5b8135602067ffffffffffffffff821115610414576104146105fe565b8160051b610423828201610592565b83815282810190868401838801850189101561043d578687fd5b8693505b8584101561045f578035835260019390930192918401918401610441565b50979650505050505050565b60006020828403121561047c578081fd5b5035919050565b600080600060608486031215610497578182fd5b8335925060208085013567ffffffffffffffff808211156104b6578485fd5b818701915087601f8301126104c9578485fd5b8135818111156104db576104db6105fe565b6104ed601f8201601f19168501610592565b8181528985838601011115610500578687fd5b81858501868301378685838301015280965050506040870135925080831115610527578384fd5b5050610535868287016103e8565b9150509250925092565b6000602080835283518082850152825b8181101561056b5785810183015185820160400152820161054f565b8181111561057c5783604083870101525b50601f01601f1916929092016040019392505050565b604051601f8201601f1916810167ffffffffffffffff811182821017156105bb576105bb6105fe565b604052919050565b600181811c908216806105d757607f821691505b602082108114156105f857634e487b7160e01b600052602260045260246000fd5b50919050565b634e487b7160e01b600052604160045260246000fdfea2646970667358221220bb61d7990b1a6a1ba1b2d2e6adb8ad9180de70ac1e8e1018ae634e67fbd1f57664736f6c63430008030033",
  "linkReferences": {},
  "deployedLinkReferences": {}
}