{
  "_format": "hh-sol-artifact-1",
  "contractName": "SafeCastMock",
  "sourceName": "contracts/mocks/SafeCastMock.sol",
  "abi": [
    {
      "inputs": [
        {
          "internalType": "int256",
          "name": "a",
          "type": "int256"
        }
      ],
      "name": "toInt128",
      "outputs": [
        {
          "internalType": "int128",
          "name": "",
          "type": "int128"
        }
      ],
      "stateMutability": "pure",
      "type": "function"
    },
    {
      "inputs": [
        {
          "internalType": "int256",
          "name": "a",
          "type": "int256"
        }
      ],
      "name": "toInt16",
      "outputs": [
        {
          "internalType": "int16",
          "name": "",
          "type": "int16"
        }
      ],
      "stateMutability": "pure",
      "type": "function"
    },
    {
      "inputs": [
        {
          "internalType": "uint256",
          "name": "a",
          "type": "uint256"
        }
      ],
      "name": "toInt256",
      "outputs": [
        {
          "internalType": "int256",
          "name": "",
          "type": "int256"
        }
      ],
      "stateMutability": "pure",
      "type": "function"
    },
    {
      "inputs": [
        {
          "internalType": "int256",
          "name": "a",
          "type": "int256"
        }
      ],
      "name": "toInt32",
      "outputs": [
        {
          "internalType": "int32",
          "name": "",
          "type": "int32"
        }
      ],
      "stateMutability": "pure",
      "type": "function"
    },
    {
      "inputs": [
        {
          "internalType": "int256",
          "name": "a",
          "type": "int256"
        }
      ],
      "name": "toInt64",
      "outputs": [
        {
          "internalType": "int64",
          "name": "",
          "type": "int64"
        }
      ],
      "stateMutability": "pure",
      "type": "function"
    },
    {
      "inputs": [
        {
          "internalType": "int256",
          "name": "a",
          "type": "int256"
        }
      ],
      "name": "toInt8",
      "outputs": [
        {
          "internalType": "int8",
          "name": "",
          "type": "int8"
        }
      ],
      "stateMutability": "pure",
      "type": "function"
    },
    {
      "inputs": [
        {
          "internalType": "uint256",
          "name": "a",
          "type": "uint256"
        }
      ],
      "name": "toUint128",
      "outputs": [
        {
          "internalType": "uint128",
          "name": "",
          "type": "uint128"
        }
      ],
      "stateMutability": "pure",
      "type": "function"
    },
    {
      "inputs": [
        {
          "internalType": "uint256",
          "name": "a",
          "type": "uint256"
        }
      ],
      "name": "toUint16",
      "outputs": [
        {
          "internalType": "uint16",
          "name": "",
          "type": "uint16"
        }
      ],
      "stateMutability": "pure",
      "type": "function"
    },
    {
      "inputs": [
        {
          "internalType": "int256",
          "name": "a",
          "type": "int256"
        }
      ],
      "name": "toUint256",
      "outputs": [
        {
          "internalType": "uint256",
          "name": "",
          "type": "uint256"
        }
      ],
      "stateMutability": "pure",
      "type": "function"
    },
    {
      "inputs": [
        {
          "internalType": "uint256",
          "name": "a",
          "type": "uint256"
        }
      ],
      "name": "toUint32",
      "outputs": [
        {
          "internalType": "uint32",
          "name": "",
          "type": "uint32"
        }
      ],
      "stateMutability": "pure",
      "type": "function"
    },
    {
      "inputs": [
        {
          "internalType": "uint256",
          "name": "a",
          "type": "uint256"
        }
      ],
      "name": "toUint64",
      "outputs": [
        {
          "internalType": "uint64",
          "name": "",
          "type": "uint64"
        }
      ],
      "stateMutability": "pure",
      "type": "function"
    },
    {
      "inputs": [
        {
          "internalType": "uint256",
          "name": "a",
          "type": "uint256"
        }
      ],
      "name": "toUint8",
      "outputs": [
        {
          "internalType": "uint8",
          "name": "",
          "type": "uint8"
        }
      ],
      "stateMutability": "pure",
      "type": "function"
    }
  ],
  "bytecode": "0x608060405234801561001057600080fd5b50610752806100206000396000f3fe608060405234801561001057600080fd5b50600436106100b45760003560e01c8063cf65b4d311610071578063cf65b4d3146101b7578063d6bd32aa146101dd578063dd2a031614610203578063dfbe873b14610229578063f136dc021461024a578063fdcf791b14610270576100b4565b80630cc4681e146100b95780632665fad0146100e3578063809fdd331461010f5780639374068f146101435780639c6f59be14610169578063c81932551461018f575b600080fd5b6100cc6100c73660046105a6565b610283565b60405160ff90911681526020015b60405180910390f35b6100f66100f13660046105a6565b610294565b60405167ffffffffffffffff90911681526020016100da565b61012261011d3660046105a6565b61029f565b6040516fffffffffffffffffffffffffffffffff90911681526020016100da565b6101566101513660046105a6565b6102aa565b60405161ffff90911681526020016100da565b61017c6101773660046105a6565b6102b5565b60405160039190910b81526020016100da565b6101a261019d3660046105a6565b6102c0565b60405163ffffffff90911681526020016100da565b6101ca6101c53660046105a6565b6102cb565b60405160019190910b81526020016100da565b6101f06101eb3660046105a6565b6102d6565b60405160079190910b81526020016100da565b6102166102113660046105a6565b6102e1565b604051600f9190910b81526020016100da565b61023c6102373660046105a6565b6102ec565b6040519081526020016100da565b61025d6102583660046105a6565b6102f7565b60405160009190910b81526020016100da565b61023c61027e3660046105a6565b610302565b600061028e8261030d565b92915050565b600061028e8261033d565b600061028e82610367565b600061028e8261038c565b600061028e826103b0565b600061028e826103e6565b600061028e8261040c565b600061028e8261043e565b600061028e8261047c565b600061028e826104be565b600061028e82610524565b600061028e82610554565b600061010082106103395760405162461bcd60e51b815260040161033090610604565b60405180910390fd5b5090565b60006801000000000000000082106103395760405162461bcd60e51b815260040161033090610690565b6000600160801b82106103395760405162461bcd60e51b815260040161033090610649565b60006201000082106103395760405162461bcd60e51b8152600401610330906105be565b6000637fffffff1982121580156103ca5750638000000082125b6103395760405162461bcd60e51b8152600401610330906106d6565b600064010000000082106103395760405162461bcd60e51b8152600401610330906106d6565b6000617fff198212158015610422575061800082125b6103395760405162461bcd60e51b8152600401610330906105be565b6000677fffffffffffffff198212158015610460575067800000000000000082125b6103395760405162461bcd60e51b815260040161033090610690565b60006f7fffffffffffffffffffffffffffffff1982121580156104a257506001607f1b82125b6103395760405162461bcd60e51b815260040161033090610649565b6000600160ff1b82106103395760405162461bcd60e51b815260206004820152602860248201527f53616665436173743a2076616c756520646f65736e27742066697420696e2061604482015267371034b73a191a9b60c11b6064820152608401610330565b6000607f1982121580156105385750608082125b6103395760405162461bcd60e51b815260040161033090610604565b6000808212156103395760405162461bcd60e51b815260206004820181905260248201527f53616665436173743a2076616c7565206d75737420626520706f7369746976656044820152606401610330565b6000602082840312156105b7578081fd5b5035919050565b60208082526026908201527f53616665436173743a2076616c756520646f65736e27742066697420696e203160408201526536206269747360d01b606082015260800190565b60208082526025908201527f53616665436173743a2076616c756520646f65736e27742066697420696e2038604082015264206269747360d81b606082015260800190565b60208082526027908201527f53616665436173743a2076616c756520646f65736e27742066697420696e20316040820152663238206269747360c81b606082015260800190565b60208082526026908201527f53616665436173743a2076616c756520646f65736e27742066697420696e203660408201526534206269747360d01b606082015260800190565b60208082526026908201527f53616665436173743a2076616c756520646f65736e27742066697420696e203360408201526532206269747360d01b60608201526080019056fea264697066735822122018457abc05c20813b750a58a648c65d4529551459d28ef6130231468ea16892b64736f6c63430008030033",
  "linkReferences": {},
  "deployedLinkReferences": {}
}