{
  "_format": "hh-sol-artifact-1",
  "contractName": "ERC3156FlashBorrowerMock",
  "sourceName": "contracts/mocks/ERC3156FlashBorrowerMock.sol",
  "abi": [
    {
      "inputs": [
        {
          "internalType": "bool",
          "name": "enableReturn",
          "type": "bool"
        },
        {
          "internalType": "bool",
          "name": "enableApprove",
          "type": "bool"
        }
      ],
      "stateMutability": "nonpayable",
      "type": "constructor"
    },
    {
      "anonymous": false,
      "inputs": [
        {
          "indexed": false,
          "internalType": "address",
          "name": "token",
          "type": "address"
        },
        {
          "indexed": false,
          "internalType": "address",
          "name": "account",
          "type": "address"
        },
        {
          "indexed": false,
          "internalType": "uint256",
          "name": "value",
          "type": "uint256"
        }
      ],
      "name": "BalanceOf",
      "type": "event"
    },
    {
      "anonymous": false,
      "inputs": [
        {
          "indexed": false,
          "internalType": "address",
          "name": "token",
          "type": "address"
        },
        {
          "indexed": false,
          "internalType": "uint256",
          "name": "value",
          "type": "uint256"
        }
      ],
      "name": "TotalSupply",
      "type": "event"
    },
    {
      "inputs": [
        {
          "internalType": "address",
          "name": "",
          "type": "address"
        },
        {
          "internalType": "address",
          "name": "token",
          "type": "address"
        },
        {
          "internalType": "uint256",
          "name": "amount",
          "type": "uint256"
        },
        {
          "internalType": "uint256",
          "name": "fee",
          "type": "uint256"
        },
        {
          "internalType": "bytes",
          "name": "data",
          "type": "bytes"
        }
      ],
      "name": "onFlashLoan",
      "outputs": [
        {
          "internalType": "bytes32",
          "name": "",
          "type": "bytes32"
        }
      ],
      "stateMutability": "nonpayable",
      "type": "function"
    }
  ],
  "bytecode": "0x60c060405234801561001057600080fd5b5060405161079638038061079683398101604081905261002f9161005b565b151560f890811b608052901515901b60a05261008d565b8051801515811461005657600080fd5b919050565b6000806040838503121561006d578182fd5b61007683610046565b915061008460208401610046565b90509250929050565b60805160f81c60a05160f81c6106de6100b860003960006102f20152600061023201526106de6000f3fe608060405234801561001057600080fd5b506004361061002b5760003560e01c806323e30c8b14610030575b600080fd5b61004361003e36600461052c565b610055565b60405190815260200160405180910390f35b6000336001600160a01b0387161461006c57600080fd5b6040516370a0823160e01b815230600482018190527f6ff2acfcb07917b1e80e53f0fe390b467b1151d15b38730a6e08397799c05a8b918891906001600160a01b038316906370a082319060240160206040518083038186803b1580156100d257600080fd5b505afa1580156100e6573d6000803e3d6000fd5b505050506040513d601f19601f8201168201806040525081019061010a91906105ed565b604080516001600160a01b0394851681529390921660208401529082015260600160405180910390a17f7249fd4c03cce09b30a13d77804b198e2647c0ccd59eadf4de4e7c16099badc586876001600160a01b03166318160ddd6040518163ffffffff1660e01b815260040160206040518083038186803b15801561018e57600080fd5b505afa1580156101a2573d6000803e3d6000fd5b505050506040513d601f19601f820116820180604052508101906101c691906105ed565b604080516001600160a01b03909316835260208301919091520160405180910390a181156102305761022e8684848080601f01602080910402602001604051908101604052809392919081815260200183838082843760009201919091525061034992505050565b505b7f0000000000000000000000000000000000000000000000000000000000000000156102f0576001600160a01b03861663095ea7b3876102708789610654565b6040516001600160e01b031960e085901b1681526001600160a01b0390921660048301526024820152604401602060405180830381600087803b1580156102b657600080fd5b505af11580156102ca573d6000803e3d6000fd5b505050506040513d601f19601f820116820180604052508101906102ee91906105cd565b505b7f000000000000000000000000000000000000000000000000000000000000000061031c57600061033e565b7f439148f0bbc682ca079e46d6e2c2f0c1e3b820f1a291b069d8882abf8cf18dd95b979650505050505050565b606061038b83836040518060400160405280601e81526020017f416464726573733a206c6f772d6c6576656c2063616c6c206661696c65640000815250610392565b9392505050565b60606103a184846000856103a9565b949350505050565b60608247101561040f5760405162461bcd60e51b815260206004820152602660248201527f416464726573733a20696e73756666696369656e742062616c616e636520666f6044820152651c8818d85b1b60d21b60648201526084015b60405180910390fd5b610418856104d2565b6104645760405162461bcd60e51b815260206004820152601d60248201527f416464726573733a2063616c6c20746f206e6f6e2d636f6e74726163740000006044820152606401610406565b600080866001600160a01b031685876040516104809190610605565b60006040518083038185875af1925050503d80600081146104bd576040519150601f19603f3d011682016040523d82523d6000602084013e6104c2565b606091505b509150915061033e8282866104dc565b803b15155b919050565b606083156104eb57508161038b565b8251156104fb5782518084602001fd5b8160405162461bcd60e51b81526004016104069190610621565b80356001600160a01b03811681146104d757600080fd5b60008060008060008060a08789031215610544578182fd5b61054d87610515565b955061055b60208801610515565b94506040870135935060608701359250608087013567ffffffffffffffff80821115610585578384fd5b818901915089601f830112610598578384fd5b8135818111156105a6578485fd5b8a60208285010111156105b7578485fd5b6020830194508093505050509295509295509295565b6000602082840312156105de578081fd5b8151801515811461038b578182fd5b6000602082840312156105fe578081fd5b5051919050565b60008251610617818460208701610678565b9190910192915050565b6000602082528251806020840152610640816040850160208701610678565b601f01601f19169190910160400192915050565b6000821982111561067357634e487b7160e01b81526011600452602481fd5b500190565b60005b8381101561069357818101518382015260200161067b565b838111156106a2576000848401525b5050505056fea2646970667358221220ef2b121366ee8ce90f4296ddc391edd3f34cd84ae5eadc73d5baca122f6179ce64736f6c63430008030033",
  "linkReferences": {},
  "deployedLinkReferences": {}
}