{
  "_format": "hh-sol-artifact-1",
  "contractName": "UUPSUpgradeableBrokenMock",
  "sourceName": "contracts/mocks/UUPS/TestInProd.sol",
  "abi": [
    {
      "anonymous": false,
      "inputs": [
        {
          "indexed": false,
          "internalType": "address",
          "name": "previousAdmin",
          "type": "address"
        },
        {
          "indexed": false,
          "internalType": "address",
          "name": "newAdmin",
          "type": "address"
        }
      ],
      "name": "AdminChanged",
      "type": "event"
    },
    {
      "anonymous": false,
      "inputs": [
        {
          "indexed": true,
          "internalType": "address",
          "name": "beacon",
          "type": "address"
        }
      ],
      "name": "BeaconUpgraded",
      "type": "event"
    },
    {
      "anonymous": false,
      "inputs": [
        {
          "indexed": true,
          "internalType": "address",
          "name": "implementation",
          "type": "address"
        }
      ],
      "name": "Upgraded",
      "type": "event"
    },
    {
      "inputs": [],
      "name": "current",
      "outputs": [
        {
          "internalType": "uint256",
          "name": "",
          "type": "uint256"
        }
      ],
      "stateMutability": "view",
      "type": "function"
    },
    {
      "inputs": [],
      "name": "decrement",
      "outputs": [],
      "stateMutability": "nonpayable",
      "type": "function"
    },
    {
      "inputs": [],
      "name": "increment",
      "outputs": [],
      "stateMutability": "nonpayable",
      "type": "function"
    },
    {
      "inputs": [
        {
          "internalType": "address",
          "name": "",
          "type": "address"
        }
      ],
      "name": "upgradeTo",
      "outputs": [],
      "stateMutability": "nonpayable",
      "type": "function"
    },
    {
      "inputs": [
        {
          "internalType": "address",
          "name": "",
          "type": "address"
        },
        {
          "internalType": "bytes",
          "name": "",
          "type": "bytes"
        }
      ],
      "name": "upgradeToAndCall",
      "outputs": [],
      "stateMutability": "payable",
      "type": "function"
    }
  ],
  "bytecode": "0x608060405234801561001057600080fd5b506102a1806100206000396000f3fe60806040526004361061004a5760003560e01c80632baeceb71461004f5780633659cfe6146100665780634f1ef286146100845780639fa6a6e314610096578063d09de08a146100bd575b600080fd5b34801561005b57600080fd5b506100646100d2565b005b34801561007257600080fd5b50610064610081366004610177565b50565b610064610092366004610198565b5050565b3480156100a257600080fd5b506100ab6100de565b60405190815260200160405180910390f35b3480156100c957600080fd5b506100646100ef565b6100dc60006100fd565b565b60006100ea6000610158565b905090565b6100dc600080546001019055565b8054806101505760405162461bcd60e51b815260206004820152601b60248201527f436f756e7465723a2064656372656d656e74206f766572666c6f770000000000604482015260640160405180910390fd5b600019019055565b80545b919050565b80356001600160a01b038116811461015b57600080fd5b600060208284031215610188578081fd5b61019182610160565b9392505050565b600080604083850312156101aa578081fd5b6101b383610160565b9150602083013567ffffffffffffffff808211156101cf578283fd5b818501915085601f8301126101e2578283fd5b8135818111156101f4576101f4610255565b604051601f8201601f19908116603f0116810190838211818310171561021c5761021c610255565b81604052828152886020848701011115610234578586fd5b82602086016020830137856020848301015280955050505050509250929050565b634e487b7160e01b600052604160045260246000fdfea2646970667358221220be18eaee6399745d94e166ce0304d69182e2c7f68ca3b5faefb2b2d8c46c649d64736f6c63430008030033",
  "linkReferences": {},
  "deployedLinkReferences": {}
}