{
  "_format": "hh-sol-artifact-1",
  "contractName": "UUPSUpgradeableMock",
  "sourceName": "contracts/mocks/UUPS/TestInProd.sol",
  "abi": [
    {
      "anonymous": false,
      "inputs": [
        {
          "indexed": false,
          "internalType": "address",
          "name": "previousAdmin",
          "type": "address"
        },
        {
          "indexed": false,
          "internalType": "address",
          "name": "newAdmin",
          "type": "address"
        }
      ],
      "name": "AdminChanged",
      "type": "event"
    },
    {
      "anonymous": false,
      "inputs": [
        {
          "indexed": true,
          "internalType": "address",
          "name": "beacon",
          "type": "address"
        }
      ],
      "name": "BeaconUpgraded",
      "type": "event"
    },
    {
      "anonymous": false,
      "inputs": [
        {
          "indexed": true,
          "internalType": "address",
          "name": "implementation",
          "type": "address"
        }
      ],
      "name": "Upgraded",
      "type": "event"
    },
    {
      "inputs": [],
      "name": "current",
      "outputs": [
        {
          "internalType": "uint256",
          "name": "",
          "type": "uint256"
        }
      ],
      "stateMutability": "view",
      "type": "function"
    },
    {
      "inputs": [],
      "name": "decrement",
      "outputs": [],
      "stateMutability": "nonpayable",
      "type": "function"
    },
    {
      "inputs": [],
      "name": "increment",
      "outputs": [],
      "stateMutability": "nonpayable",
      "type": "function"
    },
    {
      "inputs": [
        {
          "internalType": "address",
          "name": "newImplementation",
          "type": "address"
        }
      ],
      "name": "upgradeTo",
      "outputs": [],
      "stateMutability": "nonpayable",
      "type": "function"
    },
    {
      "inputs": [
        {
          "internalType": "address",
          "name": "newImplementation",
          "type": "address"
        },
        {
          "internalType": "bytes",
          "name": "data",
          "type": "bytes"
        }
      ],
      "name": "upgradeToAndCall",
      "outputs": [],
      "stateMutability": "payable",
      "type": "function"
    }
  ],
  "bytecode": "0x608060405234801561001057600080fd5b5061070d806100206000396000f3fe60806040526004361061004a5760003560e01c80632baeceb71461004f5780633659cfe6146100665780634f1ef286146100865780639fa6a6e314610099578063d09de08a146100c0575b600080fd5b34801561005b57600080fd5b506100646100d5565b005b34801561007257600080fd5b50610064610081366004610544565b6100e1565b61006461009436600461055e565b6100ff565b3480156100a557600080fd5b506100ae61010f565b60405190815260200160405180910390f35b3480156100cc57600080fd5b50610064610120565b6100df600061012e565b565b6100fc8160405180602001604052806000815250600061018a565b50565b61010b8282600161018a565b5050565b600061011b6000610347565b905090565b6100df600080546001019055565b8054806101825760405162461bcd60e51b815260206004820152601b60248201527f436f756e7465723a2064656372656d656e74206f766572666c6f77000000000060448201526064015b60405180910390fd5b600019019055565b60006101bd7f360894a13ba1a3210667c828492db98dca3e2076cc3735a920a3ca505d382bbc546001600160a01b031690565b90506101c88461034f565b6000835111806101d55750815b156101e6576101e484846103f4565b505b7f4910fdfa16fed3260ed0e7147f7cc6da11a60208b5b9406d12a635614ffd9143805460ff1661034057805460ff191660011781556040516001600160a01b038316602482015261026590869060440160408051601f198184030181529190526020810180516001600160e01b0316631b2ce7f360e11b1790526103f4565b50805460ff191681557f360894a13ba1a3210667c828492db98dca3e2076cc3735a920a3ca505d382bbc546001600160a01b038381169116146103025760405162461bcd60e51b815260206004820152602f60248201527f45524331393637557067726164653a207570677261646520627265616b73206660448201526e75727468657220757067726164657360881b6064820152608401610179565b61030b8561034f565b6040516001600160a01b038616907fbc7cd75a20ee27fd9adebab32041f755214dbc6bffa90cc0225b39da2e5c2d3b90600090a25b5050505050565b80545b919050565b803b6103b35760405162461bcd60e51b815260206004820152602d60248201527f455243313936373a206e657720696d706c656d656e746174696f6e206973206e60448201526c1bdd08184818dbdb9d1c9858dd609a1b6064820152608401610179565b7f360894a13ba1a3210667c828492db98dca3e2076cc3735a920a3ca505d382bbc80546001600160a01b0319166001600160a01b0392909216919091179055565b606061041983836040518060600160405280602781526020016106b160279139610420565b9392505050565b6060833b61047f5760405162461bcd60e51b815260206004820152602660248201527f416464726573733a2064656c65676174652063616c6c20746f206e6f6e2d636f6044820152651b9d1c9858dd60d21b6064820152608401610179565b600080856001600160a01b03168560405161049a919061061b565b600060405180830381855af49150503d80600081146104d5576040519150601f19603f3d011682016040523d82523d6000602084013e6104da565b606091505b50915091506104ea8282866104f4565b9695505050505050565b60608315610503575081610419565b8251156105135782518084602001fd5b8160405162461bcd60e51b81526004016101799190610637565b80356001600160a01b038116811461034a57600080fd5b600060208284031215610555578081fd5b6104198261052d565b60008060408385031215610570578081fd5b6105798361052d565b9150602083013567ffffffffffffffff80821115610595578283fd5b818501915085601f8301126105a8578283fd5b8135818111156105ba576105ba61069a565b604051601f8201601f19908116603f011681019083821181831017156105e2576105e261069a565b816040528281528860208487010111156105fa578586fd5b82602086016020830137856020848301015280955050505050509250929050565b6000825161062d81846020870161066a565b9190910192915050565b600060208252825180602084015261065681604085016020870161066a565b601f01601f19169190910160400192915050565b60005b8381101561068557818101518382015260200161066d565b83811115610694576000848401525b50505050565b634e487b7160e01b600052604160045260246000fdfe416464726573733a206c6f772d6c6576656c2064656c65676174652063616c6c206661696c6564a264697066735822122002123122a4c41ea4ddcd3af69173d1b2e62f1238cf6f32349abda9ad04c0499464736f6c63430008030033",
  "linkReferences": {},
  "deployedLinkReferences": {}
}