{
  "_format": "hh-sol-artifact-1",
  "contractName": "EnumerableUintSetMock",
  "sourceName": "contracts/mocks/EnumerableSetMock.sol",
  "abi": [
    {
      "anonymous": false,
      "inputs": [
        {
          "indexed": false,
          "internalType": "bool",
          "name": "result",
          "type": "bool"
        }
      ],
      "name": "OperationResult",
      "type": "event"
    },
    {
      "inputs": [
        {
          "internalType": "uint256",
          "name": "value",
          "type": "uint256"
        }
      ],
      "name": "add",
      "outputs": [],
      "stateMutability": "nonpayable",
      "type": "function"
    },
    {
      "inputs": [
        {
          "internalType": "uint256",
          "name": "index",
          "type": "uint256"
        }
      ],
      "name": "at",
      "outputs": [
        {
          "internalType": "uint256",
          "name": "",
          "type": "uint256"
        }
      ],
      "stateMutability": "view",
      "type": "function"
    },
    {
      "inputs": [
        {
          "internalType": "uint256",
          "name": "value",
          "type": "uint256"
        }
      ],
      "name": "contains",
      "outputs": [
        {
          "internalType": "bool",
          "name": "",
          "type": "bool"
        }
      ],
      "stateMutability": "view",
      "type": "function"
    },
    {
      "inputs": [],
      "name": "length",
      "outputs": [
        {
          "internalType": "uint256",
          "name": "",
          "type": "uint256"
        }
      ],
      "stateMutability": "view",
      "type": "function"
    },
    {
      "inputs": [
        {
          "internalType": "uint256",
          "name": "value",
          "type": "uint256"
        }
      ],
      "name": "remove",
      "outputs": [],
      "stateMutability": "nonpayable",
      "type": "function"
    }
  ],
  "bytecode": "0x608060405234801561001057600080fd5b50610419806100206000396000f3fe608060405234801561001057600080fd5b50600436106100575760003560e01c80631003e2d21461005c5780631f7b6d32146100715780634cc822151461008c578063c34052e01461009f578063e0886f90146100c2575b600080fd5b61006f61006a3660046103a8565b6100d5565b005b610079610122565b6040519081526020015b60405180910390f35b61006f61009a3660046103a8565b610133565b6100b26100ad3660046103a8565b61013f565b6040519015158152602001610083565b6100796100d03660046103a8565b610151565b60006100e1818361015d565b90507fed9840e0775590557ad736875d96c95cf1458b766335f74339951a32c82a9e3381604051610116911515815260200190565b60405180910390a15050565b600061012e6000610170565b905090565b60006100e1818361017a565b600061014b8183610186565b92915050565b600061014b818361019e565b600061016983836101aa565b9392505050565b600061014b825490565b600061016983836101f9565b60008181526001830160205260408120541515610169565b60006101698383610310565b60008181526001830160205260408120546101f15750815460018181018455600084815260208082209093018490558454848252828601909352604090209190915561014b565b50600061014b565b6000818152600183016020526040812054801561030657600061021d6001836103c0565b8554909150600090610231906001906103c0565b9050600086600001828154811061025857634e487b7160e01b600052603260045260246000fd5b906000526020600020015490508087600001848154811061028957634e487b7160e01b600052603260045260246000fd5b6000918252602080832090910192909255828152600189019091526040902084905586548790806102ca57634e487b7160e01b600052603160045260246000fd5b6001900381819060005260206000200160009055905586600101600087815260200190815260200160002060009055600194505050505061014b565b600091505061014b565b815460009082106103725760405162461bcd60e51b815260206004820152602260248201527f456e756d657261626c655365743a20696e646578206f7574206f6620626f756e604482015261647360f01b606482015260840160405180910390fd5b82600001828154811061039557634e487b7160e01b600052603260045260246000fd5b9060005260206000200154905092915050565b6000602082840312156103b9578081fd5b5035919050565b6000828210156103de57634e487b7160e01b81526011600452602481fd5b50039056fea2646970667358221220aca947b0821d621f13b4eebddf599966c7e7f8f50b176fb0e898c1bb14a05ed964736f6c63430008030033",
  "linkReferences": {},
  "deployedLinkReferences": {}
}