{
  "_format": "hh-sol-artifact-1",
  "contractName": "EnumerableAddressSetMock",
  "sourceName": "contracts/mocks/EnumerableSetMock.sol",
  "abi": [
    {
      "anonymous": false,
      "inputs": [
        {
          "indexed": false,
          "internalType": "bool",
          "name": "result",
          "type": "bool"
        }
      ],
      "name": "OperationResult",
      "type": "event"
    },
    {
      "inputs": [
        {
          "internalType": "address",
          "name": "value",
          "type": "address"
        }
      ],
      "name": "add",
      "outputs": [],
      "stateMutability": "nonpayable",
      "type": "function"
    },
    {
      "inputs": [
        {
          "internalType": "uint256",
          "name": "index",
          "type": "uint256"
        }
      ],
      "name": "at",
      "outputs": [
        {
          "internalType": "address",
          "name": "",
          "type": "address"
        }
      ],
      "stateMutability": "view",
      "type": "function"
    },
    {
      "inputs": [
        {
          "internalType": "address",
          "name": "value",
          "type": "address"
        }
      ],
      "name": "contains",
      "outputs": [
        {
          "internalType": "bool",
          "name": "",
          "type": "bool"
        }
      ],
      "stateMutability": "view",
      "type": "function"
    },
    {
      "inputs": [],
      "name": "length",
      "outputs": [
        {
          "internalType": "uint256",
          "name": "",
          "type": "uint256"
        }
      ],
      "stateMutability": "view",
      "type": "function"
    },
    {
      "inputs": [
        {
          "internalType": "address",
          "name": "value",
          "type": "address"
        }
      ],
      "name": "remove",
      "outputs": [],
      "stateMutability": "nonpayable",
      "type": "function"
    }
  ],
  "bytecode": "0x608060405234801561001057600080fd5b50610474806100206000396000f3fe608060405234801561001057600080fd5b50600436106100575760003560e01c80630a3b0a4f1461005c5780631f7b6d321461007157806329092d0e1461008c5780635dbe47e81461009f578063e0886f90146100c2575b600080fd5b61006f61006a3660046103dc565b6100ed565b005b61007961013a565b6040519081526020015b60405180910390f35b61006f61009a3660046103dc565b61014b565b6100b26100ad3660046103dc565b610157565b6040519015158152602001610083565b6100d56100d0366004610403565b610169565b6040516001600160a01b039091168152602001610083565b60006100f98183610175565b90507fed9840e0775590557ad736875d96c95cf1458b766335f74339951a32c82a9e338160405161012e911515815260200190565b60405180910390a15050565b60006101466000610191565b905090565b60006100f9818361019b565b600061016381836101b0565b92915050565b600061016381836101d2565b600061018a836001600160a01b0384166101de565b9392505050565b6000610163825490565b600061018a836001600160a01b03841661022d565b6001600160a01b0381166000908152600183016020526040812054151561018a565b600061018a8383610344565b600081815260018301602052604081205461022557508154600181810184556000848152602080822090930184905584548482528286019093526040902091909155610163565b506000610163565b6000818152600183016020526040812054801561033a57600061025160018361041b565b85549091506000906102659060019061041b565b9050600086600001828154811061028c57634e487b7160e01b600052603260045260246000fd5b90600052602060002001549050808760000184815481106102bd57634e487b7160e01b600052603260045260246000fd5b6000918252602080832090910192909255828152600189019091526040902084905586548790806102fe57634e487b7160e01b600052603160045260246000fd5b60019003818190600052602060002001600090559055866001016000878152602001908152602001600020600090556001945050505050610163565b6000915050610163565b815460009082106103a65760405162461bcd60e51b815260206004820152602260248201527f456e756d657261626c655365743a20696e646578206f7574206f6620626f756e604482015261647360f01b606482015260840160405180910390fd5b8260000182815481106103c957634e487b7160e01b600052603260045260246000fd5b9060005260206000200154905092915050565b6000602082840312156103ed578081fd5b81356001600160a01b038116811461018a578182fd5b600060208284031215610414578081fd5b5035919050565b60008282101561043957634e487b7160e01b81526011600452602481fd5b50039056fea2646970667358221220c3466a457cef2f39b4f578941d69a094b12262779b93f8e85021f5f5def3eabd64736f6c63430008030033",
  "linkReferences": {},
  "deployedLinkReferences": {}
}