{
  "_format": "hh-sol-artifact-1",
  "contractName": "CallReceiverMock",
  "sourceName": "contracts/mocks/CallReceiverMock.sol",
  "abi": [
    {
      "anonymous": false,
      "inputs": [],
      "name": "MockFunctionCalled",
      "type": "event"
    },
    {
      "inputs": [],
      "name": "mockFunction",
      "outputs": [
        {
          "internalType": "string",
          "name": "",
          "type": "string"
        }
      ],
      "stateMutability": "payable",
      "type": "function"
    },
    {
      "inputs": [],
      "name": "mockFunctionNonPayable",
      "outputs": [
        {
          "internalType": "string",
          "name": "",
          "type": "string"
        }
      ],
      "stateMutability": "nonpayable",
      "type": "function"
    },
    {
      "inputs": [],
      "name": "mockFunctionOutOfGas",
      "outputs": [],
      "stateMutability": "payable",
      "type": "function"
    },
    {
      "inputs": [],
      "name": "mockFunctionRevertsNoReason",
      "outputs": [],
      "stateMutability": "payable",
      "type": "function"
    },
    {
      "inputs": [],
      "name": "mockFunctionRevertsReason",
      "outputs": [],
      "stateMutability": "payable",
      "type": "function"
    },
    {
      "inputs": [],
      "name": "mockFunctionThrows",
      "outputs": [],
      "stateMutability": "payable",
      "type": "function"
    },
    {
      "inputs": [],
      "name": "mockFunctionWritesStorage",
      "outputs": [
        {
          "internalType": "string",
          "name": "",
          "type": "string"
        }
      ],
      "stateMutability": "nonpayable",
      "type": "function"
    },
    {
      "inputs": [],
      "name": "mockStaticFunction",
      "outputs": [
        {
          "internalType": "string",
          "name": "",
          "type": "string"
        }
      ],
      "stateMutability": "pure",
      "type": "function"
    },
    {
      "inputs": [],
      "name": "sharedAnswer",
      "outputs": [
        {
          "internalType": "string",
          "name": "",
          "type": "string"
        }
      ],
      "stateMutability": "view",
      "type": "function"
    }
  ],
  "bytecode": "0x608060405234801561001057600080fd5b50610490806100206000396000f3fe6080604052600436106100865760003560e01c80633e6fec04116100595780633e6fec04146100d0578063a793ab47146100d8578063aa04f77e146100e0578063c8fc7696146100f5578063fc40cf731461012457610086565b80630c0349681461008b5780630f63e42c146100955780632c81d638146100c05780633bcfaa14146100c8575b600080fd5b610093610139565b005b3480156100a157600080fd5b506100aa610185565b6040516100b791906103a5565b60405180910390f35b610093610086565b6100936101d2565b6100aa610185565b6100936101e8565b3480156100ec57600080fd5b506100aa61022f565b34801561010157600080fd5b506040805180820190915260068152650c1e0c4c8ccd60d21b60208201526100aa565b34801561013057600080fd5b506100aa61027e565b60405162461bcd60e51b815260206004820152601b60248201527f43616c6c52656365697665724d6f636b3a20726576657274696e670000000000604482015260640160405180910390fd5b6040516060907f52c66ed6ec9ca819cba26fe2b2650059270d8981b295af300187a964f54a8c2390600090a1506040805180820190915260068152650c1e0c4c8ccd60d21b602082015290565b634e487b7160e01b600052600160045260246000fd5b60005b6001805480820182556000919091527fb10e2d527612073b26eecdfd717e6a320cf44b4afac2b0732d9fcbe2b7fa0cf60181905561022881610433565b90506101eb565b604080518082019091526002808252611a1960f11b602090920191825260609161025c916000919061030c565b50506040805180820190915260068152650c1e0c4c8ccd60d21b602082015290565b6000805461028b906103f8565b80601f01602080910402602001604051908101604052809291908181526020018280546102b7906103f8565b80156103045780601f106102d957610100808354040283529160200191610304565b820191906000526020600020905b8154815290600101906020018083116102e757829003601f168201915b505050505081565b828054610318906103f8565b90600052602060002090601f01602090048101928261033a5760008555610380565b82601f1061035357805160ff1916838001178555610380565b82800160010185558215610380579182015b82811115610380578251825591602001919060010190610365565b5061038c929150610390565b5090565b5b8082111561038c5760008155600101610391565b6000602080835283518082850152825b818110156103d1578581018301518582016040015282016103b5565b818111156103e25783604083870101525b50601f01601f1916929092016040019392505050565b600181811c9082168061040c57607f821691505b6020821081141561042d57634e487b7160e01b600052602260045260246000fd5b50919050565b600060001982141561045357634e487b7160e01b81526011600452602481fd5b506001019056fea2646970667358221220d9515658ce13fb2202b018f5bbebef94c8cdaa7e749d53cb0f5d25805ffbd5b164736f6c63430008030033",
  "linkReferences": {},
  "deployedLinkReferences": {}
}