{
  "_format": "hh-sol-artifact-1",
  "contractName": "SampleGramps",
  "sourceName": "contracts/mocks/MultipleInheritanceInitializableMocks.sol",
  "abi": [
    {
      "inputs": [],
      "name": "gramps",
      "outputs": [
        {
          "internalType": "string",
          "name": "",
          "type": "string"
        }
      ],
      "stateMutability": "view",
      "type": "function"
    },
    {
      "inputs": [],
      "name": "initialize",
      "outputs": [],
      "stateMutability": "nonpayable",
      "type": "function"
    },
    {
      "inputs": [
        {
          "internalType": "string",
          "name": "value",
          "type": "string"
        }
      ],
      "name": "initialize",
      "outputs": [],
      "stateMutability": "nonpayable",
      "type": "function"
    },
    {
      "inputs": [],
      "name": "isHuman",
      "outputs": [
        {
          "internalType": "bool",
          "name": "",
          "type": "bool"
        }
      ],
      "stateMutability": "view",
      "type": "function"
    }
  ],
  "bytecode": "0x608060405234801561001057600080fd5b506104b3806100206000396000f3fe608060405234801561001057600080fd5b506004361061004c5760003560e01c80634a6c9db6146100515780638129fc1c14610079578063f62d188814610083578063fa39851f14610096575b600080fd5b6000546100649062010000900460ff1681565b60405190151581526020015b60405180910390f35b6100816100ab565b005b6100816100913660046102e1565b610131565b61009e6101ba565b604051610070919061038b565b600054610100900460ff16806100c4575060005460ff16155b6100e95760405162461bcd60e51b81526004016100e0906103de565b60405180910390fd5b600054610100900460ff1615801561010b576000805461ffff19166101011790555b6000805462ff0000191662010000179055801561012e576000805461ff00191690555b50565b600054610100900460ff168061014a575060005460ff16155b6101665760405162461bcd60e51b81526004016100e0906103de565b600054610100900460ff16158015610188576000805461ffff19166101011790555b6101906100ab565b81516101a3906001906020850190610248565b5080156101b6576000805461ff00191690555b5050565b600180546101c79061042c565b80601f01602080910402602001604051908101604052809291908181526020018280546101f39061042c565b80156102405780601f1061021557610100808354040283529160200191610240565b820191906000526020600020905b81548152906001019060200180831161022357829003601f168201915b505050505081565b8280546102549061042c565b90600052602060002090601f01602090048101928261027657600085556102bc565b82601f1061028f57805160ff19168380011785556102bc565b828001600101855582156102bc579182015b828111156102bc5782518255916020019190600101906102a1565b506102c89291506102cc565b5090565b5b808211156102c857600081556001016102cd565b6000602082840312156102f2578081fd5b813567ffffffffffffffff80821115610309578283fd5b818401915084601f83011261031c578283fd5b81358181111561032e5761032e610467565b604051601f8201601f19908116603f0116810190838211818310171561035657610356610467565b8160405282815287602084870101111561036e578586fd5b826020860160208301379182016020019490945295945050505050565b6000602080835283518082850152825b818110156103b75785810183015185820160400152820161039b565b818111156103c85783604083870101525b50601f01601f1916929092016040019392505050565b6020808252602e908201527f496e697469616c697a61626c653a20636f6e747261637420697320616c72656160408201526d191e481a5b9a5d1a585b1a5e995960921b606082015260800190565b600181811c9082168061044057607f821691505b6020821081141561046157634e487b7160e01b600052602260045260246000fd5b50919050565b634e487b7160e01b600052604160045260246000fdfea2646970667358221220e98267d46387bebfb8f73f100c916c5736a940ea2800e6c945ba711149aafa4564736f6c63430008030033",
  "linkReferences": {},
  "deployedLinkReferences": {}
}