{
  "_format": "hh-sol-artifact-1",
  "contractName": "SignatureCheckerMock",
  "sourceName": "contracts/mocks/SignatureCheckerMock.sol",
  "abi": [
    {
      "inputs": [
        {
          "internalType": "address",
          "name": "signer",
          "type": "address"
        },
        {
          "internalType": "bytes32",
          "name": "hash",
          "type": "bytes32"
        },
        {
          "internalType": "bytes",
          "name": "signature",
          "type": "bytes"
        }
      ],
      "name": "isValidSignatureNow",
      "outputs": [
        {
          "internalType": "bool",
          "name": "",
          "type": "bool"
        }
      ],
      "stateMutability": "view",
      "type": "function"
    }
  ],
  "bytecode": "0x608060405234801561001057600080fd5b50610547806100206000396000f3fe608060405234801561001057600080fd5b506004361061002b5760003560e01c80636ccea65214610030575b600080fd5b61004361003e3660046103a5565b610057565b604051901515815260200160405180910390f35b600061006d6001600160a01b0385168484610077565b90505b9392505050565b6000833b1561011c57604051630b135d3f60e11b81526001600160a01b03851690631626ba7e906100ae90869086906004016104a0565b60206040518083038186803b1580156100c657600080fd5b505afa9250505080156100f6575060408051601f3d908101601f191682019092526100f391810190610478565b60015b61010257506000610070565b6001600160e01b031916630b135d3f60e11b149050610070565b836001600160a01b03166101308484610141565b6001600160a01b0316149050610070565b60008060008084516041141561016b5750505060208201516040830151606084015160001a6101e6565b8451604014156101995750505060408201516020830151906001600160ff1b0381169060ff1c601b016101e6565b60405162461bcd60e51b815260206004820152601f60248201527f45434453413a20696e76616c6964207369676e6174757265206c656e6774680060448201526064015b60405180910390fd5b6101f2868285856101fc565b9695505050505050565b60007f7fffffffffffffffffffffffffffffff5d576e7357a4501ddfe92f46681b20a08211156102795760405162461bcd60e51b815260206004820152602260248201527f45434453413a20696e76616c6964207369676e6174757265202773272076616c604482015261756560f01b60648201526084016101dd565b8360ff16601b148061028e57508360ff16601c145b6102e55760405162461bcd60e51b815260206004820152602260248201527f45434453413a20696e76616c6964207369676e6174757265202776272076616c604482015261756560f01b60648201526084016101dd565b6040805160008082526020820180845288905260ff871692820192909252606081018590526080810184905260019060a0016020604051602081039080840390855afa158015610339573d6000803e3d6000fd5b5050604051601f1901519150506001600160a01b03811661039c5760405162461bcd60e51b815260206004820152601860248201527f45434453413a20696e76616c6964207369676e6174757265000000000000000060448201526064016101dd565b95945050505050565b6000806000606084860312156103b9578283fd5b83356001600160a01b03811681146103cf578384fd5b925060208401359150604084013567ffffffffffffffff808211156103f2578283fd5b818601915086601f830112610405578283fd5b813581811115610417576104176104fb565b604051601f8201601f19908116603f0116810190838211818310171561043f5761043f6104fb565b81604052828152896020848701011115610457578586fd5b82602086016020830137856020848301015280955050505050509250925092565b600060208284031215610489578081fd5b81516001600160e01b031981168114610070578182fd5b600083825260206040818401528351806040850152825b818110156104d3578581018301518582016060015282016104b7565b818111156104e45783606083870101525b50601f01601f191692909201606001949350505050565b634e487b7160e01b600052604160045260246000fdfea2646970667358221220e563af3cfe36d800218b63b101eaca2c5a64fbb91e507dad4494ff31a163554264736f6c63430008030033",
  "linkReferences": {},
  "deployedLinkReferences": {}
}