{
  "_format": "hh-sol-artifact-1",
  "contractName": "ERC721PausableMock",
  "sourceName": "contracts/mocks/ERC721PausableMock.sol",
  "abi": [
    {
      "inputs": [
        {
          "internalType": "string",
          "name": "name",
          "type": "string"
        },
        {
          "internalType": "string",
          "name": "symbol",
          "type": "string"
        }
      ],
      "stateMutability": "nonpayable",
      "type": "constructor"
    },
    {
      "anonymous": false,
      "inputs": [
        {
          "indexed": true,
          "internalType": "address",
          "name": "owner",
          "type": "address"
        },
        {
          "indexed": true,
          "internalType": "address",
          "name": "approved",
          "type": "address"
        },
        {
          "indexed": true,
          "internalType": "uint256",
          "name": "tokenId",
          "type": "uint256"
        }
      ],
      "name": "Approval",
      "type": "event"
    },
    {
      "anonymous": false,
      "inputs": [
        {
          "indexed": true,
          "internalType": "address",
          "name": "owner",
          "type": "address"
        },
        {
          "indexed": true,
          "internalType": "address",
          "name": "operator",
          "type": "address"
        },
        {
          "indexed": false,
          "internalType": "bool",
          "name": "approved",
          "type": "bool"
        }
      ],
      "name": "ApprovalForAll",
      "type": "event"
    },
    {
      "anonymous": false,
      "inputs": [
        {
          "indexed": false,
          "internalType": "address",
          "name": "account",
          "type": "address"
        }
      ],
      "name": "Paused",
      "type": "event"
    },
    {
      "anonymous": false,
      "inputs": [
        {
          "indexed": true,
          "internalType": "address",
          "name": "from",
          "type": "address"
        },
        {
          "indexed": true,
          "internalType": "address",
          "name": "to",
          "type": "address"
        },
        {
          "indexed": true,
          "internalType": "uint256",
          "name": "tokenId",
          "type": "uint256"
        }
      ],
      "name": "Transfer",
      "type": "event"
    },
    {
      "anonymous": false,
      "inputs": [
        {
          "indexed": false,
          "internalType": "address",
          "name": "account",
          "type": "address"
        }
      ],
      "name": "Unpaused",
      "type": "event"
    },
    {
      "inputs": [
        {
          "internalType": "address",
          "name": "to",
          "type": "address"
        },
        {
          "internalType": "uint256",
          "name": "tokenId",
          "type": "uint256"
        }
      ],
      "name": "approve",
      "outputs": [],
      "stateMutability": "nonpayable",
      "type": "function"
    },
    {
      "inputs": [
        {
          "internalType": "address",
          "name": "owner",
          "type": "address"
        }
      ],
      "name": "balanceOf",
      "outputs": [
        {
          "internalType": "uint256",
          "name": "",
          "type": "uint256"
        }
      ],
      "stateMutability": "view",
      "type": "function"
    },
    {
      "inputs": [
        {
          "internalType": "uint256",
          "name": "tokenId",
          "type": "uint256"
        }
      ],
      "name": "burn",
      "outputs": [],
      "stateMutability": "nonpayable",
      "type": "function"
    },
    {
      "inputs": [
        {
          "internalType": "uint256",
          "name": "tokenId",
          "type": "uint256"
        }
      ],
      "name": "exists",
      "outputs": [
        {
          "internalType": "bool",
          "name": "",
          "type": "bool"
        }
      ],
      "stateMutability": "view",
      "type": "function"
    },
    {
      "inputs": [
        {
          "internalType": "uint256",
          "name": "tokenId",
          "type": "uint256"
        }
      ],
      "name": "getApproved",
      "outputs": [
        {
          "internalType": "address",
          "name": "",
          "type": "address"
        }
      ],
      "stateMutability": "view",
      "type": "function"
    },
    {
      "inputs": [
        {
          "internalType": "address",
          "name": "owner",
          "type": "address"
        },
        {
          "internalType": "address",
          "name": "operator",
          "type": "address"
        }
      ],
      "name": "isApprovedForAll",
      "outputs": [
        {
          "internalType": "bool",
          "name": "",
          "type": "bool"
        }
      ],
      "stateMutability": "view",
      "type": "function"
    },
    {
      "inputs": [
        {
          "internalType": "address",
          "name": "to",
          "type": "address"
        },
        {
          "internalType": "uint256",
          "name": "tokenId",
          "type": "uint256"
        }
      ],
      "name": "mint",
      "outputs": [],
      "stateMutability": "nonpayable",
      "type": "function"
    },
    {
      "inputs": [],
      "name": "name",
      "outputs": [
        {
          "internalType": "string",
          "name": "",
          "type": "string"
        }
      ],
      "stateMutability": "view",
      "type": "function"
    },
    {
      "inputs": [
        {
          "internalType": "uint256",
          "name": "tokenId",
          "type": "uint256"
        }
      ],
      "name": "ownerOf",
      "outputs": [
        {
          "internalType": "address",
          "name": "",
          "type": "address"
        }
      ],
      "stateMutability": "view",
      "type": "function"
    },
    {
      "inputs": [],
      "name": "pause",
      "outputs": [],
      "stateMutability": "nonpayable",
      "type": "function"
    },
    {
      "inputs": [],
      "name": "paused",
      "outputs": [
        {
          "internalType": "bool",
          "name": "",
          "type": "bool"
        }
      ],
      "stateMutability": "view",
      "type": "function"
    },
    {
      "inputs": [
        {
          "internalType": "address",
          "name": "to",
          "type": "address"
        },
        {
          "internalType": "uint256",
          "name": "tokenId",
          "type": "uint256"
        },
        {
          "internalType": "bytes",
          "name": "_data",
          "type": "bytes"
        }
      ],
      "name": "safeMint",
      "outputs": [],
      "stateMutability": "nonpayable",
      "type": "function"
    },
    {
      "inputs": [
        {
          "internalType": "address",
          "name": "to",
          "type": "address"
        },
        {
          "internalType": "uint256",
          "name": "tokenId",
          "type": "uint256"
        }
      ],
      "name": "safeMint",
      "outputs": [],
      "stateMutability": "nonpayable",
      "type": "function"
    },
    {
      "inputs": [
        {
          "internalType": "address",
          "name": "from",
          "type": "address"
        },
        {
          "internalType": "address",
          "name": "to",
          "type": "address"
        },
        {
          "internalType": "uint256",
          "name": "tokenId",
          "type": "uint256"
        }
      ],
      "name": "safeTransferFrom",
      "outputs": [],
      "stateMutability": "nonpayable",
      "type": "function"
    },
    {
      "inputs": [
        {
          "internalType": "address",
          "name": "from",
          "type": "address"
        },
        {
          "internalType": "address",
          "name": "to",
          "type": "address"
        },
        {
          "internalType": "uint256",
          "name": "tokenId",
          "type": "uint256"
        },
        {
          "internalType": "bytes",
          "name": "_data",
          "type": "bytes"
        }
      ],
      "name": "safeTransferFrom",
      "outputs": [],
      "stateMutability": "nonpayable",
      "type": "function"
    },
    {
      "inputs": [
        {
          "internalType": "address",
          "name": "operator",
          "type": "address"
        },
        {
          "internalType": "bool",
          "name": "approved",
          "type": "bool"
        }
      ],
      "name": "setApprovalForAll",
      "outputs": [],
      "stateMutability": "nonpayable",
      "type": "function"
    },
    {
      "inputs": [
        {
          "internalType": "bytes4",
          "name": "interfaceId",
          "type": "bytes4"
        }
      ],
      "name": "supportsInterface",
      "outputs": [
        {
          "internalType": "bool",
          "name": "",
          "type": "bool"
        }
      ],
      "stateMutability": "view",
      "type": "function"
    },
    {
      "inputs": [],
      "name": "symbol",
      "outputs": [
        {
          "internalType": "string",
          "name": "",
          "type": "string"
        }
      ],
      "stateMutability": "view",
      "type": "function"
    },
    {
      "inputs": [
        {
          "internalType": "uint256",
          "name": "tokenId",
          "type": "uint256"
        }
      ],
      "name": "tokenURI",
      "outputs": [
        {
          "internalType": "string",
          "name": "",
          "type": "string"
        }
      ],
      "stateMutability": "view",
      "type": "function"
    },
    {
      "inputs": [
        {
          "internalType": "address",
          "name": "from",
          "type": "address"
        },
        {
          "internalType": "address",
          "name": "to",
          "type": "address"
        },
        {
          "internalType": "uint256",
          "name": "tokenId",
          "type": "uint256"
        }
      ],
      "name": "transferFrom",
      "outputs": [],
      "stateMutability": "nonpayable",
      "type": "function"
    },
    {
      "inputs": [],
      "name": "unpause",
      "outputs": [],
      "stateMutability": "nonpayable",
      "type": "function"
    }
  ],
  "bytecode": "0x60806040523480156200001157600080fd5b5060405162001a5138038062001a518339810160408190526200003491620001d2565b8151829082906200004d90600090602085019062000079565b5080516200006390600190602084019062000079565b50506006805460ff19169055506200028c915050565b828054620000879062000239565b90600052602060002090601f016020900481019282620000ab5760008555620000f6565b82601f10620000c657805160ff1916838001178555620000f6565b82800160010185558215620000f6579182015b82811115620000f6578251825591602001919060010190620000d9565b506200010492915062000108565b5090565b5b8082111562000104576000815560010162000109565b600082601f83011262000130578081fd5b81516001600160401b03808211156200014d576200014d62000276565b604051601f8301601f19908116603f0116810190828211818310171562000178576200017862000276565b8160405283815260209250868385880101111562000194578485fd5b8491505b83821015620001b7578582018301518183018401529082019062000198565b83821115620001c857848385830101525b9695505050505050565b60008060408385031215620001e5578182fd5b82516001600160401b0380821115620001fc578384fd5b6200020a868387016200011f565b9350602085015191508082111562000220578283fd5b506200022f858286016200011f565b9150509250929050565b600181811c908216806200024e57607f821691505b602082108114156200027057634e487b7160e01b600052602260045260246000fd5b50919050565b634e487b7160e01b600052604160045260246000fd5b6117b5806200029c6000396000f3fe608060405234801561001057600080fd5b50600436106101375760003560e01c80635c975abb116100b857806395d89b411161007c57806395d89b411461027a578063a144819414610282578063a22cb46514610295578063b88d4fde146102a8578063c87b56dd146102bb578063e985e9c5146102ce57610137565b80635c975abb146102205780636352211e1461022b57806370a082311461023e5780638456cb591461025f5780638832e6e31461026757610137565b80633f4ba83a116100ff5780633f4ba83a146101cc57806340c10f19146101d457806342842e0e146101e757806342966c68146101fa5780634f558e791461020d57610137565b806301ffc9a71461013c57806306fdde0314610164578063081812fc14610179578063095ea7b3146101a457806323b872dd146101b9575b600080fd5b61014f61014a3660046114b0565b61030a565b60405190151581526020015b60405180910390f35b61016c61035e565b60405161015b9190611598565b61018c6101873660046114e8565b6103f0565b6040516001600160a01b03909116815260200161015b565b6101b76101b2366004611432565b61048a565b005b6101b76101c7366004611357565b6105a0565b6101b76105d1565b6101b76101e2366004611432565b6105db565b6101b76101f5366004611357565b6105e9565b6101b76102083660046114e8565b610604565b61014f61021b3660046114e8565b610610565b60065460ff1661014f565b61018c6102393660046114e8565b61062f565b61025161024c36600461130b565b6106a6565b60405190815260200161015b565b6101b761072d565b6101b761027536600461145b565b610735565b61016c610740565b6101b7610290366004611432565b61074f565b6101b76102a33660046113f8565b610759565b6101b76102b6366004611392565b61082b565b61016c6102c93660046114e8565b610863565b61014f6102dc366004611325565b6001600160a01b03918216600090815260056020908152604080832093909416825291909152205460ff1690565b60006001600160e01b031982166380ac58cd60e01b148061033b57506001600160e01b03198216635b5e139f60e01b145b8061035657506301ffc9a760e01b6001600160e01b03198316145b90505b919050565b60606000805461036d906116bd565b80601f0160208091040260200160405190810160405280929190818152602001828054610399906116bd565b80156103e65780601f106103bb576101008083540402835291602001916103e6565b820191906000526020600020905b8154815290600101906020018083116103c957829003601f168201915b5050505050905090565b6000818152600260205260408120546001600160a01b031661046e5760405162461bcd60e51b815260206004820152602c60248201527f4552433732313a20617070726f76656420717565727920666f72206e6f6e657860448201526b34b9ba32b73a103a37b5b2b760a11b60648201526084015b60405180910390fd5b506000908152600460205260409020546001600160a01b031690565b60006104958261062f565b9050806001600160a01b0316836001600160a01b031614156105035760405162461bcd60e51b815260206004820152602160248201527f4552433732313a20617070726f76616c20746f2063757272656e74206f776e656044820152603960f91b6064820152608401610465565b336001600160a01b038216148061051f575061051f81336102dc565b6105915760405162461bcd60e51b815260206004820152603860248201527f4552433732313a20617070726f76652063616c6c6572206973206e6f74206f7760448201527f6e6572206e6f7220617070726f76656420666f7220616c6c00000000000000006064820152608401610465565b61059b838361094b565b505050565b6105aa33826109b9565b6105c65760405162461bcd60e51b8152600401610465906115fd565b61059b838383610ab0565b6105d9610c5b565b565b6105e58282610cee565b5050565b61059b8383836040518060200160405280600081525061082b565b61060d81610e3c565b50565b6000818152600260205260408120546001600160a01b03161515610356565b6000818152600260205260408120546001600160a01b0316806103565760405162461bcd60e51b815260206004820152602960248201527f4552433732313a206f776e657220717565727920666f72206e6f6e657869737460448201526832b73a103a37b5b2b760b91b6064820152608401610465565b60006001600160a01b0382166107115760405162461bcd60e51b815260206004820152602a60248201527f4552433732313a2062616c616e636520717565727920666f7220746865207a65604482015269726f206164647265737360b01b6064820152608401610465565b506001600160a01b031660009081526003602052604090205490565b6105d9610ee3565b61059b838383610f5e565b60606001805461036d906116bd565b6105e58282610f91565b6001600160a01b0382163314156107b25760405162461bcd60e51b815260206004820152601960248201527f4552433732313a20617070726f766520746f2063616c6c6572000000000000006044820152606401610465565b3360008181526005602090815260408083206001600160a01b0387168085529252909120805460ff1916841515179055906001600160a01b03167f17307eab39ab6107e8899845ad3d59bd9653f200f220920489ca2b5937696c318360405161081f911515815260200190565b60405180910390a35050565b61083533836109b9565b6108515760405162461bcd60e51b8152600401610465906115fd565b61085d84848484610fab565b50505050565b6000818152600260205260409020546060906001600160a01b03166108e25760405162461bcd60e51b815260206004820152602f60248201527f4552433732314d657461646174613a2055524920717565727920666f72206e6f60448201526e3732bc34b9ba32b73a103a37b5b2b760891b6064820152608401610465565b60006108f960408051602081019091526000815290565b905060008151116109195760405180602001604052806000815250610944565b8061092384610fde565b60405160200161093492919061152c565b6040516020818303038152906040525b9392505050565b600081815260046020526040902080546001600160a01b0319166001600160a01b03841690811790915581906109808261062f565b6001600160a01b03167f8c5be1e5ebec7d5bd14f71427d1e84f3dd0314c0f7b2291e5b200ac8c7c3b92560405160405180910390a45050565b6000818152600260205260408120546001600160a01b0316610a325760405162461bcd60e51b815260206004820152602c60248201527f4552433732313a206f70657261746f7220717565727920666f72206e6f6e657860448201526b34b9ba32b73a103a37b5b2b760a11b6064820152608401610465565b6000610a3d8361062f565b9050806001600160a01b0316846001600160a01b03161480610a785750836001600160a01b0316610a6d846103f0565b6001600160a01b0316145b80610aa857506001600160a01b0380821660009081526005602090815260408083209388168352929052205460ff165b949350505050565b826001600160a01b0316610ac38261062f565b6001600160a01b031614610b2b5760405162461bcd60e51b815260206004820152602960248201527f4552433732313a207472616e73666572206f6620746f6b656e2074686174206960448201526839903737ba1037bbb760b91b6064820152608401610465565b6001600160a01b038216610b8d5760405162461bcd60e51b8152602060048201526024808201527f4552433732313a207472616e7366657220746f20746865207a65726f206164646044820152637265737360e01b6064820152608401610465565b610b988383836110f9565b610ba360008261094b565b6001600160a01b0383166000908152600360205260408120805460019290610bcc90849061167a565b90915550506001600160a01b0382166000908152600360205260408120805460019290610bfa90849061164e565b909155505060008181526002602052604080822080546001600160a01b0319166001600160a01b0386811691821790925591518493918716917fddf252ad1be2c89b69c2b068fc378daa952ba7f163c4a11628f55a4df523b3ef91a4505050565b60065460ff16610ca45760405162461bcd60e51b815260206004820152601460248201527314185d5cd8589b194e881b9bdd081c185d5cd95960621b6044820152606401610465565b6006805460ff191690557f5db9ee0a495bf2e6ff9c91a7834c1ba4fdd244a5e8aa4e537bd38aeae4b073aa335b6040516001600160a01b03909116815260200160405180910390a1565b6001600160a01b038216610d445760405162461bcd60e51b815260206004820181905260248201527f4552433732313a206d696e7420746f20746865207a65726f20616464726573736044820152606401610465565b6000818152600260205260409020546001600160a01b031615610da95760405162461bcd60e51b815260206004820152601c60248201527f4552433732313a20746f6b656e20616c7265616479206d696e746564000000006044820152606401610465565b610db5600083836110f9565b6001600160a01b0382166000908152600360205260408120805460019290610dde90849061164e565b909155505060008181526002602052604080822080546001600160a01b0319166001600160a01b03861690811790915590518392907fddf252ad1be2c89b69c2b068fc378daa952ba7f163c4a11628f55a4df523b3ef908290a45050565b6000610e478261062f565b9050610e55816000846110f9565b610e6060008361094b565b6001600160a01b0381166000908152600360205260408120805460019290610e8990849061167a565b909155505060008281526002602052604080822080546001600160a01b0319169055518391906001600160a01b038416907fddf252ad1be2c89b69c2b068fc378daa952ba7f163c4a11628f55a4df523b3ef908390a45050565b60065460ff1615610f295760405162461bcd60e51b815260206004820152601060248201526f14185d5cd8589b194e881c185d5cd95960821b6044820152606401610465565b6006805460ff191660011790557f62e78cea01bee320cd4e420270b5ea74000d11b0c9f74754ebdbfc544b05a258610cd13390565b610f688383610cee565b610f756000848484611160565b61059b5760405162461bcd60e51b8152600401610465906115ab565b6105e5828260405180602001604052806000815250610f5e565b610fb6848484610ab0565b610fc284848484611160565b61085d5760405162461bcd60e51b8152600401610465906115ab565b60608161100357506040805180820190915260018152600360fc1b6020820152610359565b8160005b811561102d5780611017816116f8565b91506110269050600a83611666565b9150611007565b60008167ffffffffffffffff81111561105657634e487b7160e01b600052604160045260246000fd5b6040519080825280601f01601f191660200182016040528015611080576020820181803683370190505b5090505b8415610aa85761109560018361167a565b91506110a2600a86611713565b6110ad90603061164e565b60f81b8183815181106110d057634e487b7160e01b600052603260045260246000fd5b60200101906001600160f81b031916908160001a9053506110f2600a86611666565b9450611084565b60065460ff161561059b5760405162461bcd60e51b815260206004820152602b60248201527f4552433732315061757361626c653a20746f6b656e207472616e73666572207760448201526a1a1a5b19481c185d5cd95960aa1b6064820152608401610465565b60006001600160a01b0384163b1561126257604051630a85bd0160e11b81526001600160a01b0385169063150b7a02906111a490339089908890889060040161155b565b602060405180830381600087803b1580156111be57600080fd5b505af19250505080156111ee575060408051601f3d908101601f191682019092526111eb918101906114cc565b60015b611248573d80801561121c576040519150601f19603f3d011682016040523d82523d6000602084013e611221565b606091505b5080516112405760405162461bcd60e51b8152600401610465906115ab565b805181602001fd5b6001600160e01b031916630a85bd0160e11b149050610aa8565b506001949350505050565b80356001600160a01b038116811461035957600080fd5b600082601f830112611294578081fd5b813567ffffffffffffffff808211156112af576112af611753565b604051601f8301601f19908116603f011681019082821181831017156112d7576112d7611753565b816040528381528660208588010111156112ef578485fd5b8360208701602083013792830160200193909352509392505050565b60006020828403121561131c578081fd5b6109448261126d565b60008060408385031215611337578081fd5b6113408361126d565b915061134e6020840161126d565b90509250929050565b60008060006060848603121561136b578081fd5b6113748461126d565b92506113826020850161126d565b9150604084013590509250925092565b600080600080608085870312156113a7578081fd5b6113b08561126d565b93506113be6020860161126d565b925060408501359150606085013567ffffffffffffffff8111156113e0578182fd5b6113ec87828801611284565b91505092959194509250565b6000806040838503121561140a578182fd5b6114138361126d565b915060208301358015158114611427578182fd5b809150509250929050565b60008060408385031215611444578182fd5b61144d8361126d565b946020939093013593505050565b60008060006060848603121561146f578283fd5b6114788461126d565b925060208401359150604084013567ffffffffffffffff81111561149a578182fd5b6114a686828701611284565b9150509250925092565b6000602082840312156114c1578081fd5b813561094481611769565b6000602082840312156114dd578081fd5b815161094481611769565b6000602082840312156114f9578081fd5b5035919050565b60008151808452611518816020860160208601611691565b601f01601f19169290920160200192915050565b6000835161153e818460208801611691565b835190830190611552818360208801611691565b01949350505050565b6001600160a01b038581168252841660208201526040810183905260806060820181905260009061158e90830184611500565b9695505050505050565b6000602082526109446020830184611500565b60208082526032908201527f4552433732313a207472616e7366657220746f206e6f6e20455243373231526560408201527131b2b4bb32b91034b6b83632b6b2b73a32b960711b606082015260800190565b60208082526031908201527f4552433732313a207472616e736665722063616c6c6572206973206e6f74206f6040820152701ddb995c881b9bdc88185c1c1c9bdd9959607a1b606082015260800190565b6000821982111561166157611661611727565b500190565b6000826116755761167561173d565b500490565b60008282101561168c5761168c611727565b500390565b60005b838110156116ac578181015183820152602001611694565b8381111561085d5750506000910152565b600181811c908216806116d157607f821691505b602082108114156116f257634e487b7160e01b600052602260045260246000fd5b50919050565b600060001982141561170c5761170c611727565b5060010190565b6000826117225761172261173d565b500690565b634e487b7160e01b600052601160045260246000fd5b634e487b7160e01b600052601260045260246000fd5b634e487b7160e01b600052604160045260246000fd5b6001600160e01b03198116811461060d57600080fdfea26469706673582212207b5c97ec53b1debc15402556e98d01429ae5bc041a2cbd3e5aee6ac05b38b10e64736f6c63430008030033",
  "linkReferences": {},
  "deployedLinkReferences": {}
}