{
  "_format": "hh-sol-artifact-1",
  "contractName": "SafeMathMock",
  "sourceName": "contracts/mocks/SafeMathMock.sol",
  "abi": [
    {
      "inputs": [],
      "name": "addMemoryCheck",
      "outputs": [
        {
          "internalType": "uint256",
          "name": "mem",
          "type": "uint256"
        }
      ],
      "stateMutability": "pure",
      "type": "function"
    },
    {
      "inputs": [],
      "name": "divMemoryCheck",
      "outputs": [
        {
          "internalType": "uint256",
          "name": "mem",
          "type": "uint256"
        }
      ],
      "stateMutability": "pure",
      "type": "function"
    },
    {
      "inputs": [
        {
          "internalType": "uint256",
          "name": "a",
          "type": "uint256"
        },
        {
          "internalType": "uint256",
          "name": "b",
          "type": "uint256"
        },
        {
          "internalType": "string",
          "name": "errorMessage",
          "type": "string"
        }
      ],
      "name": "divWithMessage",
      "outputs": [
        {
          "internalType": "uint256",
          "name": "",
          "type": "uint256"
        }
      ],
      "stateMutability": "pure",
      "type": "function"
    },
    {
      "inputs": [
        {
          "internalType": "uint256",
          "name": "a",
          "type": "uint256"
        },
        {
          "internalType": "uint256",
          "name": "b",
          "type": "uint256"
        }
      ],
      "name": "doAdd",
      "outputs": [
        {
          "internalType": "uint256",
          "name": "",
          "type": "uint256"
        }
      ],
      "stateMutability": "pure",
      "type": "function"
    },
    {
      "inputs": [
        {
          "internalType": "uint256",
          "name": "a",
          "type": "uint256"
        },
        {
          "internalType": "uint256",
          "name": "b",
          "type": "uint256"
        }
      ],
      "name": "doDiv",
      "outputs": [
        {
          "internalType": "uint256",
          "name": "",
          "type": "uint256"
        }
      ],
      "stateMutability": "pure",
      "type": "function"
    },
    {
      "inputs": [
        {
          "internalType": "uint256",
          "name": "a",
          "type": "uint256"
        },
        {
          "internalType": "uint256",
          "name": "b",
          "type": "uint256"
        }
      ],
      "name": "doMod",
      "outputs": [
        {
          "internalType": "uint256",
          "name": "",
          "type": "uint256"
        }
      ],
      "stateMutability": "pure",
      "type": "function"
    },
    {
      "inputs": [
        {
          "internalType": "uint256",
          "name": "a",
          "type": "uint256"
        },
        {
          "internalType": "uint256",
          "name": "b",
          "type": "uint256"
        }
      ],
      "name": "doMul",
      "outputs": [
        {
          "internalType": "uint256",
          "name": "",
          "type": "uint256"
        }
      ],
      "stateMutability": "pure",
      "type": "function"
    },
    {
      "inputs": [
        {
          "internalType": "uint256",
          "name": "a",
          "type": "uint256"
        },
        {
          "internalType": "uint256",
          "name": "b",
          "type": "uint256"
        }
      ],
      "name": "doSub",
      "outputs": [
        {
          "internalType": "uint256",
          "name": "",
          "type": "uint256"
        }
      ],
      "stateMutability": "pure",
      "type": "function"
    },
    {
      "inputs": [],
      "name": "modMemoryCheck",
      "outputs": [
        {
          "internalType": "uint256",
          "name": "mem",
          "type": "uint256"
        }
      ],
      "stateMutability": "pure",
      "type": "function"
    },
    {
      "inputs": [
        {
          "internalType": "uint256",
          "name": "a",
          "type": "uint256"
        },
        {
          "internalType": "uint256",
          "name": "b",
          "type": "uint256"
        },
        {
          "internalType": "string",
          "name": "errorMessage",
          "type": "string"
        }
      ],
      "name": "modWithMessage",
      "outputs": [
        {
          "internalType": "uint256",
          "name": "",
          "type": "uint256"
        }
      ],
      "stateMutability": "pure",
      "type": "function"
    },
    {
      "inputs": [],
      "name": "mulMemoryCheck",
      "outputs": [
        {
          "internalType": "uint256",
          "name": "mem",
          "type": "uint256"
        }
      ],
      "stateMutability": "pure",
      "type": "function"
    },
    {
      "inputs": [],
      "name": "subMemoryCheck",
      "outputs": [
        {
          "internalType": "uint256",
          "name": "mem",
          "type": "uint256"
        }
      ],
      "stateMutability": "pure",
      "type": "function"
    },
    {
      "inputs": [
        {
          "internalType": "uint256",
          "name": "a",
          "type": "uint256"
        },
        {
          "internalType": "uint256",
          "name": "b",
          "type": "uint256"
        },
        {
          "internalType": "string",
          "name": "errorMessage",
          "type": "string"
        }
      ],
      "name": "subWithMessage",
      "outputs": [
        {
          "internalType": "uint256",
          "name": "",
          "type": "uint256"
        }
      ],
      "stateMutability": "pure",
      "type": "function"
    },
    {
      "inputs": [
        {
          "internalType": "uint256",
          "name": "a",
          "type": "uint256"
        },
        {
          "internalType": "uint256",
          "name": "b",
          "type": "uint256"
        }
      ],
      "name": "tryAdd",
      "outputs": [
        {
          "internalType": "bool",
          "name": "flag",
          "type": "bool"
        },
        {
          "internalType": "uint256",
          "name": "value",
          "type": "uint256"
        }
      ],
      "stateMutability": "pure",
      "type": "function"
    },
    {
      "inputs": [
        {
          "internalType": "uint256",
          "name": "a",
          "type": "uint256"
        },
        {
          "internalType": "uint256",
          "name": "b",
          "type": "uint256"
        }
      ],
      "name": "tryDiv",
      "outputs": [
        {
          "internalType": "bool",
          "name": "flag",
          "type": "bool"
        },
        {
          "internalType": "uint256",
          "name": "value",
          "type": "uint256"
        }
      ],
      "stateMutability": "pure",
      "type": "function"
    },
    {
      "inputs": [
        {
          "internalType": "uint256",
          "name": "a",
          "type": "uint256"
        },
        {
          "internalType": "uint256",
          "name": "b",
          "type": "uint256"
        }
      ],
      "name": "tryMod",
      "outputs": [
        {
          "internalType": "bool",
          "name": "flag",
          "type": "bool"
        },
        {
          "internalType": "uint256",
          "name": "value",
          "type": "uint256"
        }
      ],
      "stateMutability": "pure",
      "type": "function"
    },
    {
      "inputs": [
        {
          "internalType": "uint256",
          "name": "a",
          "type": "uint256"
        },
        {
          "internalType": "uint256",
          "name": "b",
          "type": "uint256"
        }
      ],
      "name": "tryMul",
      "outputs": [
        {
          "internalType": "bool",
          "name": "flag",
          "type": "bool"
        },
        {
          "internalType": "uint256",
          "name": "value",
          "type": "uint256"
        }
      ],
      "stateMutability": "pure",
      "type": "function"
    },
    {
      "inputs": [
        {
          "internalType": "uint256",
          "name": "a",
          "type": "uint256"
        },
        {
          "internalType": "uint256",
          "name": "b",
          "type": "uint256"
        }
      ],
      "name": "trySub",
      "outputs": [
        {
          "internalType": "bool",
          "name": "flag",
          "type": "bool"
        },
        {
          "internalType": "uint256",
          "name": "value",
          "type": "uint256"
        }
      ],
      "stateMutability": "pure",
      "type": "function"
    }
  ],
  "bytecode": "0x608060405234801561001057600080fd5b50610852806100206000396000f3fe608060405234801561001057600080fd5b50600436106101165760003560e01c80639f5cec89116100a2578063dcc721d211610071578063dcc721d21461021b578063fb1191981461022e578063fb24c86014610241578063fb999ded14610249578063fc0ce5031461025157610116565b80639f5cec89146101da578063a155bd62146101ed578063a29962b114610200578063c460ae041461021357610116565b80636f91e802116100e95780636f91e80214610191578063736ecb18146101995780637e86d25c146101ac578063869f602f146101b4578063884557bf146101c757610116565b80633449b5fb1461011b57806338dc0867146101415780636281efa41461016b5780636c7ac6371461017e575b600080fd5b61012e610129366004610637565b610264565b6040519081526020015b60405180910390f35b61015461014f366004610616565b610279565b604080519215158352602083019190915201610138565b610154610179366004610616565b610292565b61012e61018c366004610616565b61029f565b61012e6102b2565b6101546101a7366004610616565b6102e7565b61012e6102f4565b61012e6101c2366004610616565b610320565b6101546101d5366004610616565b61032c565b61012e6101e8366004610637565b610339565b61012e6101fb366004610637565b610346565b61015461020e366004610616565b610353565b61012e610360565b61012e610229366004610616565b61038c565b61012e61023c366004610616565b610398565b61012e6103a4565b61012e6103d0565b61012e61025f366004610616565b6103fc565b6000610271848484610408565b949350505050565b6000806102868484610459565b915091505b9250929050565b6000806102868484610497565b60006102ab83836104eb565b9392505050565b604051602060005b818110156102de576102cd6001806104f7565b506102d7816107ab565b90506102ba565b50506040510390565b6000806102868484610503565b604051602060005b818110156102de5761030f600180610541565b50610319816107ab565b90506102fc565b60006102ab83836104f7565b600080610286848461054d565b6000610271848484610568565b6000610271848484610594565b60008061028684846105dc565b604051602060005b818110156102de5761037b6001806105fe565b50610385816107ab565b9050610368565b60006102ab838361060a565b60006102ab8383610541565b604051602060005b818110156102de576103bf60018061060a565b506103c9816107ab565b90506103ac565b604051602060005b818110156102de576103eb6001806104eb565b506103f5816107ab565b90506103d8565b60006102ab83836105fe565b600081836104325760405162461bcd60e51b815260040161042991906106f6565b60405180910390fd5b5082848161045057634e487b7160e01b600052601260045260246000fd5b04949350505050565b6000808261046c5750600090508061028b565b600183858161048b57634e487b7160e01b600052601260045260246000fd5b06915091509250929050565b600080836104ab575060019050600061028b565b838302838582816104cc57634e487b7160e01b600052601260045260246000fd5b04146104df57600080925092505061028b565b60019590945092505050565b60006102ab8284610794565b60006102ab82846107c6565b600080826105165750600090508061028b565b600183858161053557634e487b7160e01b600052601260045260246000fd5b04915091509250929050565b60006102ab8284610775565b600080838301848110156104df57600080925092505061028b565b6000818484111561058c5760405162461bcd60e51b815260040161042991906106f6565b505050900390565b600081836105b55760405162461bcd60e51b815260040161042991906106f6565b508284816105d357634e487b7160e01b600052601260045260246000fd5b06949350505050565b600080838311156105f25750600090508061028b565b50600193919092039150565b60006102ab8284610761565b60006102ab8284610749565b60008060408385031215610628578182fd5b50508035926020909101359150565b60008060006060848603121561064b578081fd5b8335925060208401359150604084013567ffffffffffffffff80821115610670578283fd5b818601915086601f830112610683578283fd5b81358181111561069557610695610806565b604051601f8201601f19908116603f011681019083821181831017156106bd576106bd610806565b816040528281528960208487010111156106d5578586fd5b82602086016020830137856020848301015280955050505050509250925092565b6000602080835283518082850152825b8181101561072257858101830151858201604001528201610706565b818111156107335783604083870101525b50601f01601f1916929092016040019392505050565b6000821982111561075c5761075c6107da565b500190565b600082610770576107706107f0565b500490565b600081600019048311821515161561078f5761078f6107da565b500290565b6000828210156107a6576107a66107da565b500390565b60006000198214156107bf576107bf6107da565b5060010190565b6000826107d5576107d56107f0565b500690565b634e487b7160e01b600052601160045260246000fd5b634e487b7160e01b600052601260045260246000fd5b634e487b7160e01b600052604160045260246000fdfea264697066735822122005553d1a18713262748c40ec5b0c28ca0be4dcf8c62bf0532ceea3c58b6a9d7564736f6c63430008030033",
  "linkReferences": {},
  "deployedLinkReferences": {}
}